:100000000C9462010C9493010C9493010C94930151
:100010000C9493010C9493010C9493010C94930110
:100020000C9493010C9493010C9493010C94930100
:100030000C9493010C94EE110C9493010C94930185
:100040000C9493010C94ED120C9493010C94930175
:100050000C9493010C9493010C9493010C94A411AF
:100060000C9493010C94B7120C948D120C94930180
:100070000C9493010C9493010C9493010C949301B0
:100080000C9493010C9493010C9493010C949301A0
:100090000C9493010C9493010C9493010C944613CB
:1000A0000C9493010C9493010C9493010C94930180
:1000B0000C9493010C9493010C9493010C94930170
:1000C0000C9493010C9493010C9493010C94930160
:1000D0000C9493010C9493010C9493010C94930150
:1000E0000C9493010C941E030C94640E0C94EC027B
:1000F0000C944A060C94B9010C9477060C941903DD
:100100000C9474170C940B030C9449060C9415036F
:100110000C942C090C9418020C94F3020C94C80152
:100120000C94E8020C9465020C94F9020C94FD0204
:100130000C94790B0C94880B0C94DE020C94E50C57
:100140000C94EA010C941F030C9411030C94110BF2
:100150000C94CF0B0C9403030C9423030C94780B96
:100160000C94F0020C94A20B0C948F090C9448068A
:100170000C94E4020C94DC010C949B0B0C9407038C
:10018000005EBCE2613FDD83C29C7E20A3FD1F4177
:10019000009D23BE46DB65F88C11AF32CA57E97467
:1001A000000020002300260029002C002F00320030
:1001B0000001000003010601090100000A0B020909
:1001C0000C0D0E08070304010000000000000000F1
:1001D000000000000000000000000000000000001F
:1001E00000000000000012111000000000000000DC
:1001F00000000000000000000000000000000000FF
:100200000200002100240027002A002D00300033C6
:100210000001010000040107010A0100002200257D
:100220000028002B002E00310034000201000005E0
:100230000108010B01050505050705080808080266
:100240000202020A0A08080404040401010101016F
:100250000101010303030303030303040707070C5E
:100260000C0C0C0C0C0C0C02020202060606060614
:100270000606060B0B0B0B0B0B0B0B0102102020C1
:1002800008081020401020408002010201080402EA
:100290000101020408102040808040201008040260
:1002A00001800402018040201008040201080402B9
:1002B00001010204081020408001020408102040BF
:1002C0008000741711241FBECFEFD1E2DEBFCDBF77
:1002D00000E00CBF1CE0A0E0B2E0EEE5F7E500E0D6
:1002E0000BBF02C007900D92A834B107D9F72EE0DA
:1002F000A8E4BCE001C01D92A033B207E1F711E011
:10030000C2E6D1E000E006C021970109802FFE017E
:100310000E945E29C136D10780E00807A9F70E9434
:10032000C6170C94AD2B0C94000000912A000F709E
:1003300000932A0000912B00006F00932B0008957A
:100340008CBD9DBD089580917B00886080937B006B
:1003500080E480937C0080917A00806480937A00AE
:1003600080917A0086FDFCCF809178009091790091
:100370000895FC01538D448D252F30E0842F90E0AB
:10038000821B930B541710F0CF9608950197089590
:10039000FC01918D828D981761F0A28DAE0FBF2F59
:1003A000B11D5D968C91928D9F5F9F73928F90E0AF
:1003B00008958FEF9FEF0895FC01918D828D98171E
:1003C00031F0828DE80FF11D858D90E008958FEF5B
:1003D0009FEF0895FC01918D228D892F90E0805C24
:1003E0009F4F821B91098F7399270895FC01A48D5B
:1003F000A80FB92FB11DA35ABF4F2C91848D90E047
:1004000001968F739927848FA689B7892C93A08929
:10041000B1898C91837080648C93938D848D9813B3
:1004200006C00288F389E02D80818F7D8083089546
:10043000EF92FF920F931F93CF93DF93EC0181E034
:10044000888F9B8D8C8D98131AC0E889F9898081DB
:1004500085FF15C09FB7F894EE89FF896083E8890E
:10046000F98980818370806480839FBF81E090E000
:10047000DF91CF911F910F91FF90EF900895F62E8D
:100480000B8D10E00F5F1F4F0F731127E02E8C8D27
:100490008E110CC00FB607FCFACFE889F98980816C
:1004A00085FFF5CFCE010E94F601F1CFEB8DEC0F69
:1004B000FD2FF11DE35AFF4FF0829FB7F8940B8F89
:1004C000EA89FB8980818062CFCFCF93DF93EC01F3
:1004D000888D8823B9F0AA89BB89E889F9898C912C
:1004E00085FD03C0808186FD0DC00FB607FCF7CFE8
:1004F0008C9185FFF2CF808185FFEDCFCE010E94E8
:10050000F601E9CFDF91CF91089587E69DE00E9443
:10051000EA0121E0892B09F420E0822F089580E090
:1005200090E0892B29F00E94850281110E94000031
:1005300080E090E0892B49F080E090E0892B29F061
:100540000E94000081110E94000080E090E0892B51
:1005500049F080E090E0892B29F00E940000811191
:100560000E94000080E090E0892B49F080E090E05C
:10057000892B29F00E94000081110C94000008953D
:100580008150823108F05AC0E82FF0E08827E45308
:10059000FD4F8F4F0C945E29EC02F002DE02E40264
:1005A000E8021E03F302F902FD02030307030B0333
:1005B000110315031E0319031F03230380918000F9
:1005C0008F77809380000895809180008F7DF9CF90
:1005D00080918000877FF5CF84B58F7784BD0895A3
:1005E00084B58F7DFBCF8091B0008F778093B00072
:1005F00008958091B0008F7DF9CF809190008F7722
:10060000809390000895809190008F7DF9CF809124
:100610009000877FF5CF8091A0008F778093A00016
:1006200008958091A0008F7DF9CF8091A000877FF1
:10063000F5CF809120018F778093200108958091DC
:1006400020018F7DF9CF80912001877FF5CFCF9357
:10065000DF93282F30E0F901E654FE4F8491F90131
:10066000E558FD4FD491F901EB5CFD4FC491CC23CB
:10067000A1F081110E94C002EC2FF0E0EE0FFF1FED
:10068000E056FE4FA591B491EC91ED2381E090E00E
:1006900009F480E0DF91CF91089580E090E0FACFF7
:1006A0001F93CF93DF93282F30E0F901E654FE4FDC
:1006B0008491F901E558FD4FD491F901EB5CFD4FB0
:1006C000C491CC23A9F0162F81110E94C002EC2FF7
:1006D000F0E0EE0FFF1FE55EFD4FA591B4918FB7DF
:1006E000F894EC91111108C0D095DE23DC938FBFF4
:1006F000DF91CF911F910895DE2BF8CFCF93DF9339
:1007000090E0FC01E558FD4F24918B5C9D4FFC016E
:1007100084918823C9F090E0880F991FFC01EF5F56
:10072000FD4FA591B491FC01E55EFD4FC591D491BB
:1007300061110DC09FB7F8948C91209582238C9302
:100740008881282328839FBFDF91CF91089562304D
:1007500051F49FB7F8943C91822F809583238C931A
:10076000E8812E2BEFCF8FB7F894EC912E2B2C93A2
:100770008FBFEACFCF938091AA028A3121F08F3FB9
:1007800061F1CF910895E0E0F2E0C491C7FDF9CFA7
:1007900061E08AE10E947E03CC2309F4F1C0C230FB
:1007A00009F006C18091B100887F83608093B10019
:1007B00089EF8093B30080E991E0A0E0B0E08093FE
:1007C000540D9093550DA093560DB093570D8091F5
:1007D0007000826080937000D4CF8AE18093AA0277
:1007E000E0E0F2E0C4918C2FCF3F59F2C23009F41F
:1007F00068C060F4CC2379F1C13009F444C087FDAE
:10080000C0CF61E08AE10E947E03C9CFC43009F401
:1008100099C008F478C0C53091F710922001109269
:100820002101809121018860809321018091210123
:10083000816080932101EFE4F2E0E491F0E0EE0FBB
:10084000FF1FE55EFD4F85919491E5E9F2E0E491AB
:10085000E093400D9DCF14BC15BC84B5826084BD6F
:1008600085B5816085BDEFE4F2E0E491F0E0EE0F44
:10087000FF1FE55EFD4F85919491E5E9F2E0E4917B
:10088000E093470D85CF10928000109281008091F7
:1008900081008860809381008091810081608093D5
:1008A0008100EFE4F2E0E491F0E0EE0FFF1FE55E7F
:1008B000FD4F85919491E5E9F2E0E491E093460DD6
:1008C00067CF1092B0001092B1008091B0008260AA
:1008D0008093B0008091B10081608093B100EFE41B
:1008E000F2E0E491F0E0EE0FFF1FE55EFD4F859131
:1008F00094919093450D8093440DE5E9F2E0E491E5
:10090000E093430D45CF109290001092910080919A
:100910009100886080939100809191008160809324
:100920009100EFE4F2E0E491F0E0EE0FFF1FE55EEE
:10093000FD4F85919491E5E9F2E0E491E093420D59
:10094000C3E026CF1092A0001092A1008091A100D8
:1009500088608093A1008091A10081608093A100B4
:10096000EFE4F2E0E491F0E0EE0FFF1FE55EFD4FF3
:1009700085919491E5E9F2E0E491E093410D08CF8F
:1009800085B5887F836085BD8CE787BD80E991E070
:10099000A0E0B0E080935C0D90935D0DA0935E0DA0
:1009A000B0935F0D80916E00826080936E00E9CEFF
:1009B000C130F1F480918100887F81608093810053
:1009C0008FE39FE1909389008093880080E991E014
:1009D000A0E0B0E08093580D9093590DA0935A0D6C
:1009E000B0935B0D80916F00826080936F00C9CEE1
:1009F000C330F1F480919100887F816080939100F1
:100A00008FE39FE1909399008093980080E991E0B3
:100A1000A0E0B0E08093500D9093510DA093520D43
:100A2000B093530D80917100826080937100A9CEC4
:100A3000C430F1F48091A100887F81608093A1008F
:100A40008FE39FE19093A9008093A80080E991E053
:100A5000A0E0B0E080934C0D90934D0DA0934E0D0F
:100A6000B0934F0D8091720082608093720089CEA6
:100A7000C530F1F480912101887F8160809321014C
:100A80008FE39FE1909329018093280180E991E011
:100A9000A0E0B0E08093480D9093490DA0934A0DDB
:100AA000B0934B0D8091730082608093730069CE88
:100AB000C23091F034F4CC2369F0C13009F061CE3A
:100AC0007FCFC43009F4BCCF0CF49ACFC53009F005
:100AD00058CED6CF8FE359CF8FE36BCE3FB7F89484
:100AE00080913C0D90913D0DA0913E0DB0913F0D38
:100AF00026B5A89B05C02F3F19F00196A11DB11D79
:100B00003FBFBA2FA92F982F8827BC01CD01620FB4
:100B1000711D811D911D42E0660F771F881F991F6F
:100B20004A95D1F708958F929F92AF92BF92CF923C
:100B3000DF92EF92FF926B017C010E946E054B01E8
:100B40005C01C114D104E104F104B9F00E946E0506
:100B5000681979098A099B09683E734081059105E6
:100B600080F321E0C21AD108E108F10888EE880E6E
:100B700083E0981EA11CB11CE4CFFF90EF90DF90A2
:100B8000CF90BF90AF909F908F9008952FB7F8941B
:100B90006091380D7091390D80913A0D90913B0D17
:100BA0002FBF08958F929F92AF92BF92CF92DF9204
:100BB000EF92FF926B017C0149015A0160E079E0FC
:100BC0008DE390E0A70196010E94A62769017A01B2
:100BD00081E0C81AD108E108F1080E94C605860E16
:100BE000971EA81EB91E8092630D9092640DA0926C
:100BF000650DB092660D8091620D811122C0E5E90C
:100C0000F2E024912093620D8FE492E0FC01349194
:100C1000E32FF0E0EE0FFF1FE55EFD4F459154918D
:100C20005093610D4093600DFC018491E82FF0E03A
:100C3000EE0FFF1FEF5FFD4FA591B491EC912E2BAE
:100C40002C93D0928700C09286008091840090916E
:100C50008500B0E0A0E0C816D906EA06FB0620F43D
:100C6000D0928500C092840081E18093810080E170
:100C70008093800080916F00826080936F00FF906E
:100C8000EF90DF90CF90BF90AF909F908F9008959E
:100C900008950895AF92BF92CF92DF92EF92FF92A4
:100CA0000F931F93CF93DF936C017B018B01040F94
:100CB000151FEB015E01AE18BF08C017D10759F030
:100CC0006991D601ED91FC910190F081E02DC60172
:100CD0001995892B79F7C501DF91CF911F910F915C
:100CE000FF90EF90DF90CF90BF90AF900895BC0140
:100CF0006E5F7F4FDC01ED91FC910190F081E02D62
:100D000040E0199591E0811190E0892F08950895B0
:100D10008EBD00000DB407FEFDCF8EB50895DF92A5
:100D2000EF92FF920F931F93CF93DF937C01062FD7
:100D3000D42E152F80E590E00E94A00160E0F7011D
:100D400086850E94500382E10E948806CD2DD12F16
:100D50000C0F1D2F111DC017D10721F089910E9482
:100D60008806F9CF61E0F7018685DF91CF911F9169
:100D70000F91FF90EF90DF900C9450031F93CF934F
:100D8000DF93EC01162F80E590E00E94A00160E067
:100D90008E850E945003812F80680E94880680E023
:100DA0000E948806182F61E08E850E945003812FD3
:100DB000DF91CF911F9108950F931F93CF93DF93EE
:100DC000EC01062F142F80E590E00E94A00160E066
:100DD0008E850E945003802F0E948806812F0E94DA
:100DE000880661E08E85DF91CF911F910F910C9461
:100DF0005003CF92DF92EF92FF920F931F93CF9306
:100E0000DF93EC016B01F42E890140E062E00E9467
:100E1000DC0644E06AE0CE010E94DC0640E864E1C2
:100E2000CE010E94DC06A6016F2DCE010E948F0626
:100E300043E062E0CE010E94DC060E94C6056B0121
:100E40007C0129E5C20ED11CE11CF11C6AE0CE0137
:100E50000E94BE0682FF1BC040E062E0CE010E94FD
:100E6000DC0664E4CE010E94BE06F801808362E4E1
:100E7000CE010E94BE06F801818380E0DF91CF9110
:100E80001F910F91FF90EF90DF90CF9008950E94F7
:100E9000C6056C157D058E059F05C0F283E0EECF7B
:100EA0002F923F924F925F926F927F928F929F927A
:100EB000AF92BF92CF92DF92EF92FF920F931F9368
:100EC000CF93DF931F921F92CDB7DEB73C01162F51
:100ED000942E290180E0A114B10411F0F501808164
:100EE000382C329490EF3922380E40E062E0C30192
:100EF0000E94DC064FE768E0C3010E94DC0640E880
:100F000064E1C3010E94DC06A201602FC3010E94BC
:100F10008F06432D6AE1C3010E94DC06412F62E087
:100F2000C3010E94DC061C3051F46AE1C3010E9437
:100F3000BE06482F40686AE1C3010E94DC060E9499
:100F4000C6051B012C01F4E22F0E311C411C511C63
:100F500068E0C3010E94BE06982F992109F0B6C02F
:100F600080FF16C083E00F900F90DF91CF911F910B
:100F70000F91FF90EF90DF90CF90BF90AF909F9038
:100F80008F907F906F905F904F903F902F9008953B
:100F90000E94C6056215730584059505C8F2E2CF67
:100FA000E114F10409F467C0C114D10409F463C069
:100FB00064E1C3010E94BE06982EF6018081891566
:100FC00008F47EC090829920C9F180E590E00E94EB
:100FD000A00160E0F30186850E9450039A9482E9A3
:100FE0000E948806882099F00FEF10E001C0000FE2
:100FF0008A94EAF782E90E948806902F9095F7017B
:10100000208192238023982B9083882483948701C6
:10101000080D111D891440F482E90E948806F80128
:1010200081938F018394F6CF80E00E948806F801B7
:10103000808361E0F30186850E94500368E1C3016B
:101040000E94BE068770A114B10411F0F5018083DF
:1010500053FC38C0E114F104B9F1C114D104A1F179
:10106000988D992389F1F6014081413031F4843023
:1010700029F58FEF78CF80E0EBCF4230F8F0811187
:101080001DC042509E012F5F3F4FB701C3010E9418
:10109000F906811168CFF6019081E90EF11CF70184
:1010A000329720819981291309C0F1E0EF1AF108E4
:1010B000F70120819A81291709F455CF87E053CF92
:1010C00084E051CF82E04FCF80E04DCF6CE0C30190
:1010D0000E94BE06582E837109F462CF81E043CF8F
:1010E0008F92AF92BF92CF92DF92EF92FF920F93C7
:1010F000CF93DF93CDB7DEB72C970FB6F894DEBF52
:101100000FBECDBF20E6298321E02A83FE0133965E
:101110009C012A5F3F4FDC014D91CD014193A21705
:10112000B307C9F7E0911E0EE150FF0BE45EF14FEB
:10113000DE011996CE010D9621912D93A817B907BE
:10114000D9F71F92812CB12CA12CD12CC12CF12CC0
:10115000E12C0CE09E012F5F3F4F40E16EE08CE1FF
:101160009EE00E9450070F902C960FB6F894DEBFB9
:101170000FBECDBFDF91CF910F91FF90EF90DF9029
:10118000CF90BF90AF908F9008956F927F928F9283
:10119000AF92BF92CF92DF92EF92FF920F931F9385
:1011A000CF93DF9300D01F92CDB7DEB73C0180E52F
:1011B00089831A829E012D5F3F4F42E0BE016F5F1F
:1011C0007F4FC3010E94F906182F811118C01F928A
:1011D000812CB12CA12CD12CC12CF12CE12C04E0C0
:1011E0009E012F5F3F4F40E36CE0C3010E94500718
:1011F0000F90833021F0182F811101C011E0812F51
:101200000F900F900F900F90DF91CF911F910F9142
:10121000FF90EF90DF90CF90BF90AF908F907F9036
:101220006F9008950F931F93CF93DF938C01D62F68
:10123000C42F0E94BE06C0954C2F48236D2FC801B5
:10124000DF91CF911F910F910C94DC0648E060E193
:101250008CE19EE00C9412096F927F928F92AF9274
:10126000BF92CF92DF92EF92FF920F93CF93DF93D3
:1012700000D01F921F92CDB7DEB73C0182E08D8374
:1012800040E064E2C3010E94DC0640E066E2C30184
:101290000E94DC0646E268E4C3010E94DC0686E2A6
:1012A0008B838D818230C8F140E86CE1C3010E94DC
:1012B000120987E08C831F92812CCE0104965C0179
:1012C00001966C0104977C0101E09E012D5F3F4F68
:1012D00040E36CE0C3010E945007982F0F908111EA
:1012E00019C08D818230C9F48C81811116C081E0D2
:1012F0000F900F900F900F900F90DF91CF910F9163
:10130000FF90EF90DF90CF90BF90AF908F907F9045
:101310006F90089581E0923059F380E0E9CF2F92E9
:101320003F924F925F926F927F928F929F92AF9275
:10133000BF92CF92DF92EF92FF920F931F93CF93C2
:10134000DF93CDB7DEB72E970FB6F894DEBF0FBE92
:10135000CDBF06E0413508F046C14E873B012C0168
:1013600040E86CE10E94120983E989832E852223DB
:1013700029F081E0F3019081953008F480E0992410
:1013800093941C869C85990F990F990F1E85191BA4
:1013900017FD10E032E0882319F098E89B8333E0D2
:1013A00021E0912F977009F420E0912F9595959564
:1013B0009595290FD1F094E0811193E0291708F455
:1013C000922F2C85E22FF0E03196E60DF71D232FAA
:1013D0004191A1E0B0E0AC0FBD1FA20FB11D4C9335
:1013E0002F5F422F431B491798F38111185F10326A
:1013F0000CF484C080E78A838B819C8189279D813E
:1014000089279E8189278F839E01285F3F4F47E070
:10141000BE016F5F7F4FC2010E94F906082F811144
:10142000E2C01A8693E09B871D87FE0137961F0155
:1014300009E08A84482D4295407F480D6AE1C20147
:101440000E94DC061F92CE010A965C01FE013B96CB
:101450006F0171019E012F5F3F4F40E36CE0C201BD
:101460000E945007082F0F90823009F065C06CE190
:10147000C2010E94BE0685FDB6C08F7109F480E2EC
:10148000282F30E0412F110F550B421753070CF056
:101490009EC0182FE22FE595E595E595EF5F922F19
:1014A000977081E009F480E0E80F81E090E08C0F14
:1014B0009D1F8E0F911DFC0121503109277033278C
:1014C00081E090E002C0880F991F2A95E2F79C0105
:1014D0008081822B80838BCF85E98983FE85FF23E2
:1014E00031F081E0F3019081983008F04BCF80E03B
:1014F00049CF87E98983F6E0FC87F9CF912F977070
:101500009A87812F8595859585958E5F282F2295C1
:10151000207F290F2A8301E0911101C000E0080F0C
:1015200022242394312C2C0E3D1E280E311CF9E070
:10153000F81BFB871D877DCF811155C010E29D856B
:1015400090320CF457CF8B81883809F042C083E089
:1015500093E02C85E22FF0E03196E60DF71D980F11
:10156000A1E0B0E0AC0FBD1FA80FB11D2C912193DD
:101570008F5F8913F5CF8B858C87833009F04DC041
:101580008A8581114AC09E012D5F3F4F41E0B10124
:10159000C2010E94F906082F811125C09B81F1012B
:1015A000818198133CC09C818281981338C08081CE
:1015B00082FF12C09394F2E09F1609F48DCF23E0CE
:1015C000921609F496CF81E0981609F4CDCE05E085
:1015D0000AC082E094E0BDCFF3018387892D880F94
:1015E000980E93949082802F2E960FB6F894DEBFBB
:1015F0000FBECDBFDF91CF911F910F91FF90EF9064
:10160000DF90CF90BF90AF909F908F907F906F9022
:101610005F904F903F902F90089501E0E4CF07E056
:10162000E2CF08952091890C260F3327331F2132F2
:101630003105ECF42091D20CFC0190E080E02430E4
:1016400069F082E00895A091890C2191AC0147597D
:10165000534FA40FB52FB11D2C930196861798F305
:101660008091890C680F6093890C80E0089581E077
:1016700008951092D20C81E08093D10C1092AC0CA2
:1016800061E084E10E94500361E085E10E94500323
:10169000E9EBF0E080818E7F808380818D7F808385
:1016A00088E48093B80085E48093BC000895CF93CC
:1016B000DF9391E09093680C8823B9F0C091B80053
:1016C000D091BA008091BC008A7B8093BC0060E01E
:1016D00084E10E94500360E085E10E9450030E9473
:1016E000390BD093BA00C093B800DF91CF91089521
:1016F0000895E091020D8091010DE81730F4F0E0BB
:10170000E85BF34F808190E008958FEF9FEF08959D
:101710009091020D8091010D2FEF3FEF981748F443
:10172000E92FF0E0E85BF34F208130E09F5F90937A
:10173000020DC90108958091010D9091020D891B40
:10174000990B0895CF92DF92EF92FF920F931F9320
:10175000CF93DF937C01CB018A012091D80C222307
:1017600089F0EB016B01C40ED51ECC15DD0569F0C7
:101770006991D701ED91FC910190F081E02DC701B5
:101780001995F3CF642F0E94120BC801DF91CF91FE
:101790001F910F91FF90EF90DF90CF900895CF931E
:1017A000DF931F92CDB7DEB769832091D80C222337
:1017B000F9F02091FF0C203258F021E030E0FC01DC
:1017C0003383228390E080E00F90DF91CF910895E2
:1017D0008091000DE82FF0E0E752F34F998190835C
:1017E0008F5F8093000D8093FF0C81E090E0ECCF41
:1017F00061E0CE0101960E94120BF7CFCF92DF92EB
:10180000EF92FF920F931F93CF93DF93FC01C4815C
:1018100021E02093D80CC093F90C1092000D109287
:10182000FF0C8385682B84E09EE00E94CF0BD09153
:10183000FF0CD13208F092C00E946E056B017C0152
:101840008091D20C811165C082E08093D20C81E03E
:101850008093D10C8FEF8093D00C1092CF0CD0934B
:10186000CE0CA9EDBCE0EEEAFCE080E0D81385C028
:101870001092AD0C8091AD0CCC0FC82BC093AD0C69
:101880008091AC0C813009F07CC01092AC0C0E94AD
:101890006E056B017C018091AD0C8093BB00809143
:1018A000D40C9091D50CA091D60CB091D70C892B6B
:1018B0008A2B8B2B99F00E946E050091D40C10910D
:1018C000D50C2091D60C3091D70C6C197D098E095E
:1018D0009F090617170728073907E0F18091BC0018
:1018E00083FDD9CF85EC8093BC000E946E056B010F
:1018F0007C018091D20C823009F445C08091D00CDB
:101900008F3F61F18091D00C803241F18091D00CF9
:1019100025C08091D40C9091D50CA091D60CB0919B
:10192000D70C892B8A2B8B2B09F48ACF0E946E054A
:101930000091D40C1091D50C2091D60C3091D70C7D
:101940006C197D098E099F090617170728073907A3
:1019500008F076CF8091D30C0E94570B1092000DA7
:101960001092FF0C1092D80CDF91CF911F910F9124
:10197000FF90EF90DF90CF9008959D9191938F5FAE
:1019800075CF85EEB0CF8091D40C9091D50CA091FD
:10199000D60CB091D70C892B8A2B8B2B09F4A9CFAD
:1019A0000E946E050091D40C1091D50C2091D60C9C
:1019B0003091D70C6C197D098E099F0906171707FE
:1019C0002807390708F095CFC5CF90E080E008954B
:1019D00026E930E040E050E060E971E080E090E02E
:1019E0000E94D20568EC70E080E090E00E949305D0
:1019F00026E930E040E050E060E971E080E090E00E
:101A00000E94D20568EC70E080E090E00C949305B1
:101A100028EC30E040E050E068EE73E080E090E0D9
:101A20000E94D20568EC70E080E090E00C94930591
:101A3000CF92DF92EF92FF920F931F93CF93DF939A
:101A4000EB010E942703892B51F080E0DF91CF91B9
:101A50001F910F91FF90EF90DF90CF9008950E941B
:101A6000C605088119812A813B816B017C01C01A5E
:101A7000D10AE20AF30A970186010B3F11052105FD
:101A8000310518F3688379838A839B8381E0DECFF5
:101A9000FC0101900020E9F73197AF01481B590B79
:101AA000BC0180E19EE00C944A068F929F92AF9217
:101AB000BF920F931F93CF93DF93CDB7DEB7A1975C
:101AC0000FB6F894DEBF0FBECDBF19A2423008F4A6
:101AD0004AE08E010F5D1F4F842E912CB12CA12C5A
:101AE000A50194010E94A627E62FB901CA01EA3098
:101AF000F4F4E05DD801EE938D01232B242B252BEC
:101B000079F790E080E0109719F0CD010E94480D20
:101B1000A1960FB6F894DEBF0FBECDBFDF91CF9177
:101B20001F910F91BF90AF909F908F900895E95CA7
:101B3000E1CF009711F00C94480D90E080E00895FB
:101B40000F931F93CF938C01C62F0E94FE0B6C2F17
:101B50006460C8010E94FE0B6C2F6B7FC8010E945D
:101B6000FE0B83EC90E00197F1F7CF911F910F915D
:101B700008950F931F93CF93DF938C01D62FC42F1B
:101B8000607F642B0E94A00D80E1D89FB0011124DA
:101B90006C2BC801DF91CF911F910F910C94A00D78
:101BA000CF93DF9300D000D01F921F92CDB7DEB746
:101BB00098E0E1EBF2E0DE01119601900D929A952A
:101BC000E1F79091180E961710F46FEF690F262F1A
:101BD00030E0220F331F41E050E04C0F5D1F240F17
:101BE000351FF9016081680F606840E080E19EE088
:101BF00028960FB6F894DEBF0FBECDBFDF91CF9110
:101C00000C94B90D40E061E080E19EE00E94B90DC6
:101C10008BE39FE10197F1F70895DF92EF92FF9236
:101C20000F931F93CF93DF930E94020ED0E0C0E08A
:101C300036E0D32E80910B0D90E0E090100DF12C4A
:101C4000880F991FFC01EF5EF24F008111810E1980
:101C50001F090C0F1D1F17FD2AC0855E924FFC0146
:101C6000808191810817190714F56C2F80E00E947C
:101C7000D00D8AEC96E0EC16FD0611F48DEF94E0A1
:101C80000E94990DE0910B0DF0E0EE0FFF1FEB5D50
:101C9000F24FD09EC001D19E900D11240190F08191
:101CA000E02DE80FF91F808191810E94990D219606
:101CB000C430D10509F0BECFDF91CF911F910F91B4
:101CC000FF90EF90DF90089541E00E94B90D81E010
:101CD00090E00895CF92DF92EF92FF926C01990FFE
:101CE000EE08FF08F7FE16C041E06DE280E19EE0DD
:101CF0000E94B90D66277727CB016C197D098E09E3
:101D00009F094AE00E94550D0196FF90EF90DF90E9
:101D1000CF9008954AE0C701B601FF90EF90DF90A1
:101D2000CF900C94550D4F925F926F927F928F924D
:101D30009F92AF92BF92CF92DF92EF92FF920F935A
:101D40001F93CF936B017C01742EAC019B010E9409
:101D50003029882399F080E095E0CF911F910F9171
:101D6000FF90EF90DF90CF90BF90AF909F908F90BB
:101D70007F906F905F904F900C94480D46015701F3
:101D8000E894B7F82FEF3FEF4FE75FE7C501B401E5
:101D90000E94302981110DC02FEF3FEF4FE75FE721
:101DA000C501B4010E94582618161CF484E095E081
:101DB000D4CF2FEF3FEF4FE75FE4C701B6010E949A
:101DC000E52818161CF488E095E0C7CF2FEF3FEF09
:101DD0004FE75FECC701B6010E94582687FDF3CF9D
:101DE00020E030E0A901C701B6010E94582610E0AA
:101DF00000E087FF0CC041E06DE280E19EE00E94C0
:101E0000B90DF7FAF094F7F8F09401E010E0C0E0B3
:101E100060E070E080E09FE37C1641F020E030E07D
:101E200040E251E40E944428CF5FF6CFA70196011B
:101E30000E94D8274B015C010E94B6282B013C016F
:101E40004AE00E94550D080F191FCC23C9F1C301A8
:101E5000B2010E945D269B01AC01C501B4010E9444
:101E6000D7274B015C0141E06EE280E19EE00E94D9
:101E7000B90D0F5F1F4FC15018F120E030E040E274
:101E800051E4C501B4010E94BE262B013C010E9411
:101E9000B6284B01B12CA12C4AE0C501B4010E9427
:101EA000550D080F191FC501B4010E945D269B0145
:101EB000AC01C301B2010E94D7274B015C01DBCF0B
:101EC000C801CF911F910F91FF90EF90DF90CF90BD
:101ED000BF90AF909F908F907F906F905F904F904A
:101EE00008958F92AF92BF92CF92DF92EF92FF92BE
:101EF0000F93CF93DF93CDB7DEB764970FB6F89407
:101F0000DEBF0FBECDBF062FE62EF12CA701BC0110
:101F1000CE0101960E94942B21E030E02C0F3D1F52
:101F20002E0D3F1D402FBE016F5F7F4F8CE19EE065
:101F30000E94F906811123C082E18C8B1B8A0E5FFF
:101F40001F92812CCE0143965C0101966C01439750
:101F50007C019C0140E36CE08CE19EE00E94500714
:101F60000F9081110CC08C898130D1F48B89843021
:101F7000B9F481E099819A3009F480E08195649602
:101F80000FB6F894DEBF0FBECDBFDF91CF910F919A
:101F9000FF90EF90DF90CF90BF90AF908F9008951B
:101FA00081E0EDCF2F923F924F925F926F927F929E
:101FB0008F929F92AF92BF92CF92DF92EF92FF9259
:101FC0000F931F93CF93DF93CDB7DEB7AD970FB6C7
:101FD000F894DEBF0FBECDBF712C612CCE014396AD
:101FE0009BA78AA792E4691671040CF05FC1F30104
:101FF000EE0FFF1FEE0FFF1FE751FD4F8081918114
:102000009DA78CA7028113810E94020E60E080E0F0
:102010000E94D00D8CE095E00E94990D61E080E077
:102020000E94D00DC8010E94990D212C312C210154
:102030001FEF86E20E942703892B89F491E4691639
:1020400071041CF090E4692E712CEFEF6E1A7E0A79
:102050006CE271E080E090E00E949305C3CF8FE2D4
:102060000E942703892B51F4161417041CF06624D0
:102070006394712CF1E06F1A7108EACF80E30E943B
:102080002703892B09F04AC021143104410451046B
:1020900089F40E94C6051B012C018CE19EE00E9480
:1020A0002C0981114AC064E670E080E090E00E9453
:1020B0009305BFCF0E94C60562197309840995096B
:1020C000613D77408105910540F30E94020E61E079
:1020D00080E00E94D00D8FE195E00E94990D6CED9B
:1020E00075E080E090E00E949305AD960FB6F894FD
:1020F000DEBF0FBECDBFDF91CF911F910F91FF903B
:10210000EF90DF90CF90BF90AF909F908F907F9097
:102110006F905F904F903F902F900895211431045D
:102120004104510409F4B9CF0E94020E61E080E03D
:102130000E94D00D81E395E0D0CF8CE19EE00E941B
:102140007706982E882309F4AECFEAA5FBA520E1F7
:1021500011922A95E9F7ECA5FDA501900020E9F779
:10216000AF01415051098CA59DA5481B590B413128
:10217000510514F040E150E06CA57DA5CE014396D9
:102180000E94942B1BA31CA31DA31EA31FA318A76F
:10219000CE0183960E9470088823A9F063E080E056
:1021A0000E94D00D84E495E00E94990D0E94E80CF5
:1021B0008CE19EE00E94C5080E9426096CED75E046
:1021C00080E090E074CF90EA9983E1E0EA8362E0F6
:1021D000CE0101960E94710F811177C060E1CE019E
:1021E00043960E94710F811170C0F2E1F9A780E35C
:1021F000898321E02A839E012D5F3F4F42E0BE018B
:102200006F5F7F4F8CE19EE00E94F906882339F0D2
:1022100063E080E00E94D00D88E595E0C5CF81E0C5
:102220008F93812CB12CA12CFE01B9966F01CE01A8
:1022300001967C0104E09C0140E36CE08CE19EE0AF
:102240000E9450070F908111E3CF40E150E0B701A9
:10225000CE0143960E94872B63E0892BE1F480E056
:102260000E94D00D8CE695E00E94990D0E94080D09
:102270009FEF691A790A8CE19EE00E94C5080E94CE
:10228000260960ED77E080E090E00E9493059920B8
:1022900009F4CFCEA7CE80E00E94D00D80E895E073
:1022A0000E94990D0E94E80C912CE5CF0E94020E2D
:1022B00061E080E00E94D00D84E995E00E94990DD4
:1022C00060ED77E080E090E00ECF63E080E00E9478
:1022D000D00D86EA95E068CF85ED8093BC008091B3
:1022E000D40C9091D50CA091D60CB091D70C079638
:1022F000A11DB11D23E0B695A795979587952A95C1
:10230000D1F72091BC0024FD03C01092D20C089597
:102310004091D40C5091D50C6091D60C7091D70C93
:10232000452B462B472B69F30097A105B10541F0DA
:102330002AE22A95F1F700C00197A109B109E1CF7E
:102340008091D30C0C94570B1F920F920FB60F92E3
:1023500011242F933F938F939F93AF93BF938091BB
:10236000380D9091390DA0913A0DB0913B0D3091FF
:10237000370D23E0230F2D3758F50196A11DB11D10
:102380002093370D8093380D9093390DA0933A0D1B
:10239000B0933B0D80913C0D90913D0DA0913E0D71
:1023A000B0913F0D0196A11DB11D80933C0D9093FE
:1023B0003D0DA0933E0DB0933F0DBF91AF919F9106
:1023C0008F913F912F910F900FBE0F901F901895F6
:1023D00026E8230F0296A11DB11DD2CF1F920F92A6
:1023E0000FB60F9211240BB60F922F933F934F937A
:1023F0005F936F937F938F939F93AF93BF93EF936D
:10240000FF938091540D9091550DA091560DB09170
:10241000570D892B8A2B8B2BE1F19091430DE09185
:10242000440DF091450D8081892780838091540D62
:102430009091550DA091560DB091570D1816190693
:102440001A061B069CF48091540D9091550DA09195
:10245000560DB091570D0197A109B1098093540D04
:102460009093550DA093560DB093570DFF91EF919A
:10247000BF91AF919F918F917F916F915F914F919C
:102480003F912F910F900BBE0F900FBE0F901F909A
:1024900018958091AA02E0E0F2E0E4919FEF90931A
:1024A000AA02E230E9F040F4EE2389F0E13091F045
:1024B00060E00E945003DACFE43049F110F1E530DA
:1024C000B9F7909173009D7F90937300F1CF1092B4
:1024D0006E00EECF90916F009D7F90936F00E8CFDC
:1024E000909170009D7F9093700091E09093B00068
:1024F0009091B100987F94609093B1001092B300D6
:10250000D7CF909171009D7F90937100D1CF909122
:1025100072009D7F90937200CBCF1F920F920FB6E7
:102520000F9211240BB60F922F933F934F935F930B
:102530006F937F938F939F93AF93BF93EF93FF938B
:1025400087E69DE00E94F601FF91EF91BF91AF9168
:102550009F918F917F916F915F914F913F912F91BB
:102560000F900BBE0F900FBE0F901F9018951F92EB
:102570000F920FB60F9211240BB60F922F938F93D9
:102580009F93EF93FF93E091770DF091780D808109
:10259000E0917D0DF0917E0D82FD1DC090818091B6
:1025A000800D8F5F8F732091810D821741F0E09134
:1025B000800DF0E0E959F24F958F8093800DFF91E7
:1025C000EF919F918F912F910F900BBE0F900FBEA7
:1025D0000F901F9018958081F2CF1F920F920FB627
:1025E0000F9211240BB60F920F931F932F933F93CB
:1025F0004F935F936F937F938F939F93AF93BF930B
:10260000EF93FF930E94C6050091630D1091640D36
:102610002091650D3091660D601771078207930751
:10262000B8F080916F008D7F80936F0082E080937F
:10263000810081E080938000E091600DF091610D58
:1026400090818091620D8095892380831092620D24
:10265000E091600DF091610D80819091620D89276C
:102660008083FF91EF91BF91AF919F918F917F9167
:102670006F915F914F913F912F911F910F910F900B
:102680000BBE0F900FBE0F901F9018951F920F92C8
:102690000FB60F9211240BB60F922F933F934F93C7
:1026A0005F936F937F938F939F93AF93BF93EF93BA
:1026B000FF938091B900887F803609F44DC008F0FF
:1026C00040C0883209F4A9C028F5803109F49DC0C2
:1026D000C8F4882309F4FBC0883009F496C0FF9140
:1026E000EF91BF91AF919F918F917F916F915F918A
:1026F0004F913F912F910F900BBE0F900FBE0F90F7
:102700001F901895883109F488C0803241F7809372
:10271000D00C14C0803409F49DC040F48033B9F368
:102720008833E9F68093D00C85ECB0C0803509F48D
:1027300085C0883509F496C0883489F60E946C11EA
:10274000CECF883909F48CC038F5883729F050F499
:10275000883611F0803719F683E08093D20C1092FE
:10276000AB0C57C0883809F47BC0803919F0803829
:1027700009F0B5CF8091AB0C803208F071C0E091C8
:10278000AB0C81E08E0F8093AB0C8091BB00F0E02E
:10279000E557F34F80833DC0803B39F0E0F4803A49
:1027A00009F479C0883A09F09ACF84E08093D20C7A
:1027B00010928A0C1092890CE091FD0CF091FE0CA5
:1027C00019958091890C81110FC081E08093890C4B
:1027D0001092690C09C0803C09F4A6CF883C09F42A
:1027E000A3CF883B09F07BCFE0918A0C81E08E0F6C
:1027F00080938A0CF0E0E759F34F80818093BB000F
:1028000090918A0C8091890C29C08091AD0C8093A5
:10281000BB0085EC8093BC0062CF9091CF0C80917F
:10282000CE0C981758F5E091CF0C81E08E0F809375
:10283000CF0CF0E0E255F34F8081E9CFE091CF0C6F
:1028400081E08E0F8093CF0C8091BB00F0E0E255C9
:10285000F34F80839091CF0C8091CE0C9817C8F2E3
:1028600085E8D8CFE091CF0C81E08E0F8093CF0C1C
:102870008091BB00F0E0E255F34F80838091D10C52
:1028800081115CCF81E08093AC0C84EA8093BC0022
:102890001092D20C24CF85EC8093BC001092D20C05
:1028A0008091AB0C803230F4E091AB0CF0E0E55756
:1028B000F34F10826091AB0C70E0E091FB0CF09153
:1028C000FC0C8BE89CE019951092AB0C08CF109291
:1028D000D00C34CFCF92DF92EF92FF920F931F93E1
:1028E000E82FF92F05C0015011092109310961F1C3
:1028F000908196239417B9F305C00150110921095D
:10290000310911F1908196239413F7CFC12CD12C6A
:10291000E12CF12C0AC08FEFC81AD80AE80AF80A8D
:102920000C151D052E053F0579F08081862384173F
:1029300091F36C2D7D2D8E2D9F2D1F910F91FF906A
:10294000EF90DF90CF90089560E070E080E090E03D
:102950001F910F91FF90EF90DF90CF900895DC01D1
:1029600080E0615090F09D919827E92FEF70F0E0A2
:10297000E058FE4F2491E92FE295EF70F0E0E05728
:10298000FE4FE491822F8E27ECCF0895DC012C912D
:102990001196ED91FC91F8948181822B8183928133
:1029A000322F30959323928387E090E00197F1F7DF
:1029B00081818323818383E290E00197F1F7908105
:1029C0007894EFECF0E03197F1F7922381E009F48D
:1029D00080E00895FC0190810180F281E02D292F93
:1029E000209560FF14C0F8948281822382838181C4
:1029F000892B8183A3E2B0E01197F1F78281982BB4
:102A00009283789487ED90E00197F1F70895F89418
:102A10008281822382838181892B8183AFEFB0E021
:102A20001197F1F78281982B928378948FE090E050
:102A3000EBCFDF92EF92FF920F931F93CF93DF9331
:102A4000EC01D62EE42E08E010E0FF24F39461E0C0
:102A50008D2D8F2109F460E0CE010E94EA14FF0C55
:102A600001501109A1F7E11010C0F894E981FA8131
:102A700091818881809589238183E981FA8192817E
:102A800088818095892382837894DF91CF911F91EB
:102A90000F91FF90EF90DF900895EF92FF920F93C8
:102AA0001F93CF93DF938C017B0140E065E50E948B
:102AB0001915E70188E0E80EF11C699140E0C801B2
:102AC0000E941915CE15DF05C1F7DF91CF911F9137
:102AD0000F91FF90EF900895FC0190810180F281A9
:102AE000E02DF8948181292F209582238183789489
:102AF0003DE743E050E0315029F1DA011197F1F759
:102B000080818923C1F3F894828182238283818129
:102B1000892B81837894ABE7B7E01197F1F7F894AC
:102B2000818182238183A3E1B1E01197F1F7808154
:102B3000982381E009F080E07894E3E6F6E03197AD
:102B4000F1F7089580E008954F925F926F927F921F
:102B50008F929F92AF92BF92CF92DF92EF92FF92AD
:102B60000F931F93CF93DF938C017B01EA01FC014C
:102B7000818592850E946C158823D9F1B701F801EF
:102B8000818592850E944D1540E06EEBF8018185AC
:102B900092850E9419156E015E01F9E0AF0EB11C1D
:102BA0007E01F8018184928488E0682E712C512C7A
:102BB00044244394C4010E94C61481115428440C37
:102BC000F1E06F1A7108B1F7F70151927F01AE166B
:102BD000BF0639F7F801818592850E946C15813016
:102BE00041F4F60181916F01811105C0EE15FF05D9
:102BF000C1F790E008C068E0CE010E94AF1491E0F8
:102C000028852813F6CF892FDF91CF911F910F913F
:102C1000FF90EF90DF90CF90BF90AF909F908F90FC
:102C20007F906F905F904F900895BF92CF92DF9208
:102C3000EF92FF920F931F93CF93DF93EC01B62E89
:102C4000C72E8D85811105C0CE010E946C158111A2
:102C50000EC01B861D861C8680E0DF91CF911F91E0
:102C60000F91FF90EF90DF90CF90BF90089540E0DC
:102C700060EFCE010E94191501E0E12CD12C11E08A
:102C8000CE010E94C614F82ECE010E94C61491E017
:102C9000F91218C0813099F51134D8F2DB86D110C1
:102CA00002C081E08D878B81882399F22396EB2DDA
:102CB000FC2DCF01089629912193E817F907D9F740
:102CC00081E0CBCFEE2DF0E0F8120FC08B85181706
:102CD000A0F4DE01AE0FBF1F13968C91802379F410
:102CE000F12C193008F41C87D12EEC0FFD1F8381C5
:102CF000902F9095892383830AC08113F1CFFE0121
:102D0000EE0DF11D8381802B8383FF24F3946F2DBF
:102D1000CE010E94EA141F5F000F11F4E39401E05A
:102D200087E08E1508F0ACCFB7CF0F931F93CF93EA
:102D3000DF938B0198E0899FB0011124606440E02B
:102D400080E19EE00E94B90DE801085F1F4F699184
:102D500080E19EE00E94640EC017D107C1F7DF91A9
:102D6000CF911F910F910895FC018081918100976F
:102D700011F00C941D2A08950F931F93CF93DF93A6
:102D8000EC0188819981009759F02A813B812617AF
:102D9000370730F081E0DF91CF911F910F910895B7
:102DA0008B016F5F7F4F0E94A62A009759F099838D
:102DB00088831B830A832C813D81232B59F7FC01D7
:102DC0001082E8CF80E0E7CF0F931F93CF93DF937C
:102DD000EC010C811D810F5F1F4FB8010E94BC16D2
:102DE00028813981882381F08C819D8166EB76E092
:102DF000820F931F0E94A62B1D830C83CE01DF91AF
:102E0000CF911F910F9108952115310519F0C90136
:102E10000E941D2A198218821D821C821B821A821E
:102E2000EDCFEF92FF920F931F93CF93DF93EC01BF
:102E30007B018A01BA010E94BC1628813981811167
:102E400014C02115310519F0C9010E941D2A1982EB
:102E500018821D821C821B821A82CE01DF91CF91C3
:102E60001F910F91FF90EF9008951D830C83B70180
:102E7000C9010E94A62BF1CFEF92FF920F931F93EF
:102E8000CF93DF93CDB7DEB762970FB6F894DEBF6E
:102E90000FBECDBF8C01CB01F801118210821382CD
:102EA0001282158214824AE09E012F5F3F4F790102
:102EB000B9010E942326F70101900020E9F731971C
:102EC000AF014E195F09B701C8010E941117629640
:102ED0000FB6F894DEBF0FBECDBFDF91CF911F912B
:102EE0000F91FF90EF900895E7E6FDE013821282C4
:102EF00088EE93E0A0E0B0E084839583A683B78357
:102F000027EC34E03183208325EC30E035872487BB
:102F100024EC30E03787268720EC30E0318B208BA3
:102F200021EC30E0338B228B22EC30E0358B248B8C
:102F300026EC30E0378B268B118E128E138E148E7A
:102F4000E4E0FEE01382128284839583A683B78334
:102F500089ED94E091838083ECE1FEE087EF94E0DB
:102F6000918380838AE286878FEF8787E0E1FEE0A6
:102F7000138212828BEE94E09183808387E28483B4
:102F800084E1818784E0828713860895CF93DF935D
:102F9000CDB7DEB7C355D1090FB6F894DEBF0FBE6B
:102FA000CDBF789484B5826084BD84B5816084BDD2
:102FB00085B5826085BD85B5816085BD80916E00D7
:102FC000816080936E001092810080918100826008
:102FD0008093810080918100816080938100809145
:102FE00080008160809380008091B1008460809334
:102FF000B1008091B00081608093B0008091910019
:103000008260809391008091910081608093910013
:10301000809190008160809390008091A1008260F7
:103020008093A1008091A10081608093A100809194
:10303000A00081608093A000809121018260809334
:1030400021018091210181608093210180912001E3
:1030500081608093200180917A00846080937A005F
:1030600080917A00826080937A0080917A008160FA
:1030700080937A0080917A00806880937A00109221
:10308000C1001FB7F8948091FA0C811127C0EAE6BD
:10309000F2E08491E0EBF2E09491E82FF0E0EE0FA3
:1030A000FF1FEF5FFD4FA591B491EC91E92321F44F
:1030B00061E085E30E94500361E085E30E947E03A6
:1030C0008CB580618CBD8CB580648CBD61E084E37F
:1030D0000E947E0361E083E30E947E038091FA0CEC
:1030E0008F5F8093FA0C1FBF61E080912A0E0E94CF
:1030F0007E0361E080912A0E0E94500380912B0E86
:103100008F3F09F461C160E00E947E0380912B0E25
:103110000E942703892B09F057C161E080912B0E93
:103120000E947E0360E080912B0E0E94500383E09A
:1031300090E00197F1F761E080912B0E0E9450031F
:1031400062E370E080E090E00E94930540E064E27A
:103150008CE19EE00E94DC0640E066E28CE19EE0AD
:103160000E94DC0646E268E48CE19EE00E94DC06F8
:1031700040E864E58CE19EE00E94DC0649EA66E5F1
:103180008CE19EE00E94DC0643E068E58CE19EE075
:103190000E94DC0648EE6AE58CE19EE00E94DC06B7
:1031A00040E46AE28CE19EE00E94DC064DE362E2CC
:1031B0008CE19EE00E94DC0668E28CE19EE00E94C9
:1031C000BE06982F9370933039F0482F436068E221
:1031D0008CE19EE00E94DC0661E08AE10E947E03B1
:1031E0001092020D1092010D1092000D1092FF0C22
:1031F0000E94390B88E496E09093FE0C8093FD0CBE
:1032000089E496E09093FC0C8093FB0C1092150ED1
:1032100080911A0E823018F098E09093150E8093EA
:10322000180E62E370E080E090E00E9493056091E8
:103230001B0E80E19EE00E94FE0B68EE73E080E0D2
:1032400090E00E94930560E380E19EE00E94A00D63
:103250000BE416E4C8010197F1F760E380E19EE01A
:103260000E94A00DC8010197F1F760E380E19EE0A4
:103270000E94A00D83E592E00197F1F760E280E102
:103280009EE00E94A00D6091150E606240E080E11A
:103290009EE00E94B90D84E08093160E40E06CE041
:1032A00080E19EE00E94B90D0E94020E82E08093B0
:1032B000170E40E066E080E19EE00E94B90D40E01C
:1032C00062E080E19EE00E94B90D8BE39FE10197EF
:1032D000F1F788E080931B0E60E080E19EE00E94A1
:1032E000FE0B0E9495010E94020E60E086E00E94A3
:1032F000D00D8BEB95E00E94990D61E083E00E9478
:10330000D00D83EC95E00E94990D63E084E00E946B
:10331000D00D80ED95E00E94990D8091A90288233F
:1033200009F469C00E94C6050091330D1091340D57
:103330002091350D3091360D6B017C01C01AD10AF8
:10334000E20AF30A97018601053F11402105310584
:10335000D0F06093330D7093340D8093350D9093BE
:10336000360D1091A80281E018271093A80263E09F
:1033700084E00E94D00D80ED95E0111102C08FEB2A
:1033800096E00E94990D6FE27DE081E390E00E945B
:10339000180D8823B1F01092A9028CE992E0909365
:1033A000260D8093250D82E090E090931C0D809374
:1033B0001B0D1092120D1092110D1092100D0E9403
:1033C0000D0E0E948F02A9CF4FE062E08CE19EE0DB
:1033D0000E94DC0613E062E370E080E090E00E946F
:1033E000930562E08CE19EE00E94BE0684FFAECEB3
:1033F000115089F7ABCE6CE07DE08FE290E00E9447
:10340000180D8823C9F0E0910B0DF0E0EE0FFF1FBF
:10341000EF5EF24F80819181181619065CF40197D6
:10342000918380838091100D882309F487C0815097
:103430008093100D0E940D0E67E07DE086E290E023
:103440000E94180D882331F180910B0D90E0880FB8
:10345000991FFC01EF5EF24F40815181855E924FD2
:10346000DC012D913C91215031094217530784F41E
:103470004F5F5F4F518340838091100D833008F080
:1034800060C0821713060CF05CC08F5F8093100D34
:103490000E940D0E6FE27DE081E390E00E94180D26
:1034A000682E8823C9F180910B0D282F30E0220F60
:1034B000331FF901EB5DF24F2F5E324FD9014D9171
:1034C0005C9196E0949F9001959F300D112401909E
:1034D000F081E02DE20FF31F2281338121153105A8
:1034E00099F1448155818F5F80930B0D90E0880F97
:1034F000991FFC01EB5DF24F31832083FC01E55EF7
:10350000F24F518340838F5E924FFC0111821082F3
:103510001092100D0E940D0E63E07DE080E390E0BC
:103520000E94180D882309F44CCF80910B0D88233D
:1035300009F447CF815080930B0D3FCF0E940D0EB1
:1035400079CF0E940D0EA4CF008111816CED75E042
:10355000C8010E949D2B1C01892B09F053C19E01BB
:10356000285E3F4F2B963FAF2EAF2B9734E42316A8
:1035700031040CF038C1F101EE0FFF1FE20DF31D15
:10358000EF50FC4F40812C964FAF2C970181128158
:103590000E94020E60E080E00E94D00D8CE095E079
:1035A0000E94990D61E080E00E94D00DC8010E9448
:1035B000990D412C512C32011FEF86E20E94270306
:1035C000892B89F453E4251631041CF012E4212ED2
:1035D000312C8FEF281A380A6CE271E080E090E01D
:1035E0000E949305C3CF8FE20E942703892B51F4D9
:1035F000121413041CF022242394312C91E0291A74
:103600003108EACF80E30E942703892B91F541140A
:1036100051046104710489F40E94C6052B013C0128
:103620008CE19EE00E942C09811131C064E670E0BB
:1036300080E090E00E949305C0CF0E94C605641907
:10364000750986099709613D77408105910540F329
:103650000E94020E61E080E00E94D00D8FE195E0B3
:103660000E94990D6CED75E080E090E00E9493055A
:10367000D2C0411451046104710491F20E94020EFF
:1036800061E080E00E94D00D81E395E0E9CF8CE11C
:103690009EE00E947706982E882341F22B96EEAD8D
:1036A000FFAD2B97A0E1CA2E1192CA94E9F72C9690
:1036B000DFAC2C97D88E18A719A71AA71BA71CA791
:1036C0001DA7CE0188960E9470088823A9F063E0A8
:1036D00080E00E94D00D84E495E00E94990D0E9444
:1036E000E80C8CE19EE00E94C5080E9426096CED62
:1036F00075E080E090E09ECF70EAE72EE982FF243B
:10370000F394FA8262E0CE0101960E94710F81115A
:103710000C941B2660E1CE0148960E94710F811126
:103720000C941B2622E129AB80E38983FA829E0157
:103730002D5F3F4F42E0BE016F5F7F4F8CE19EE007
:103740000E94F906882339F063E080E00E94D00DE2
:1037500088E595E0C2CF31E03F93812CB12CA12CBC
:10376000AE014F5C5F4F6A01CE0101967C0104E01F
:103770009C0140E36CE08CE19EE00E9450070F90BA
:103780008111E2CF40E150E0B701CE0148960E949E
:10379000872B63E0892BE1F480E00E94D00D8CE65A
:1037A00095E00E94990D0E94080D9FEF291A390A91
:1037B0008CE19EE00E94C5080E94260960ED77E03A
:1037C00080E090E00E949305992009F4F6CECECED9
:1037D00080E00E94D00D80E895E00E94990D0E9443
:1037E000E80C912CE5CF0E94020E61E080E00E947F
:1037F000D00D84E995E00E94990D60ED77E080E0BE
:1038000090E034CF65EE75E0C8010E949D2B892BB6
:1038100029F40E94D20F0E94020E7CCE66EF75E062
:10382000C8010E949D2B892B19F40E94D20FF3CF5F
:1038300069E076E0C8010E949D2B892B19F40E9453
:10384000D20FE9CF69E176E0C8010E949D2B892B58
:1038500019F40E94D20FDFCF69E276E0C8010E941E
:103860009D2B892B19F40E94D20FD5CF64E376E00B
:10387000C8010E949D2B892B09F04EC00E94020EA8
:103880006CEB862E62E0962EA12CB12C80E30E9478
:103890002703019711F00C9470250E94A3018C015D
:1038A00024E130E0DC010E946629A50194010E9418
:1038B0007C27790160E080E00E94D00D80E496E0F2
:1038C0000E94990D62E080E00E94D00D85E596E0AF
:1038D0000E94990DC8010E946A0E87EC96E00E9432
:1038E000990D63E080E00E94D00D10E000E08DE5CE
:1038F00096E00E151F0514F08BEC96E00E94990DD2
:103900000F5F1F4F0431110591F764E170E080E013
:1039100090E00E949305BACF62E776E0C8010E946A
:103920009D2B892BA1F562E08EE30E947E030E940D
:10393000020E80E30E942703019711F00C9470257A
:103940008EE30E942703892B89F461E080E00E94C6
:10395000D00D8EE796E00E94990D0E94BA0368ECA4
:1039600070E080E090E00E949305E3CF60E084E0A7
:103970000E94D00D83E996E00E94990D61E080E0FD
:103980000E94D00D8FE996E00E94990DE8CF6EEA73
:1039900076E0C8010E949D2B892B09F059C00E9436
:1039A000020E58E5852E52E0952EA12CB12C80E315
:1039B0000E942703019711F00C9470250E94A30127
:1039C0008C019C01990F440B550B285C310941096E
:1039D0005109A4E1B0E00E949B27A50194010E9437
:1039E0007C27790161E080E00E94D00D88EB96E0B1
:1039F0000E94990D61E080E00E94D00D8DEC96E070
:103A00000E94990DC8010E946A0E62E080E00E9447
:103A1000D00D87ED96E00E94990D10E000E00E15A4
:103A20001F058CF46FEF80E19EE00E94640E0F5F33
:103A30001F4F0D30110599F764EF71E080E090E0C1
:103A40000E949305B4CF8BEC96E00E94990DEFCFC6
:103A50006FED76E0C8010E949D2B892B09F080C094
:103A60000E94020E60E080E00E94D00D82EF96E09E
:103A70000E94990D61E082E00E947E0360E08EE387
:103A80000E947E0393E0E92EF12C23E2C22ED12C7A
:103A900039EBA32E32E0B32E43E7842E42E0942E7E
:103AA00080E30E942703019711F00C94702560E0D9
:103AB00082E00E945003C7010197F1F761E082E0C4
:103AC0000E945003C6010197F1F760E082E00E9476
:103AD0005003F5016491F4018491E82FF0E0EE0FBA
:103AE000FF1FE056FE4F8591949100E412E42FE011
:103AF00030E0462F0E946A142B013C01411451040E
:103B00006104710439F0FFEF4F1A5F0A6F0A7F0AF0
:103B10002FE0722261E080E00E94D00D86E097E005
:103B20000E94990DC301B2010E945F2626E933E489
:103B30004BE05DE30E94BE2620E030E040E05FE322
:103B40000E94BE2641E00E94930E82E197E00E940F
:103B5000990D64EF71E080E090E00E949305A0CFA2
:103B60006BE177E0C8010E949D2B892B09F05FC0B3
:103B70000E94020E60E080E00E94D00D84E297E097
:103B80000E94990D80E30E942703019709F0A8C7BE
:103B90000E94A301BC01990F880B990B0E945F261C
:103BA00020E030E040EA50E40E94BE2620E030EC05
:103BB0004FE754E40E9444286B017C010E94020EEE
:103BC00060E080E00E94D00D84E397E00E94990DB0
:103BD00042E0C701B6010E94930E8DE397E00E9478
:103BE000990D61E080E00E94D00D80E497E00E9492
:103BF000990DA70196016AE979E989E290E40E94AA
:103C0000D7272CEE31E548E35EE30E94442820E00C
:103C100030E040EE50E40E94D82742E00E94930E2C
:103C200068EE73E080E090E00E949305ABCF65E41E
:103C300077E0C8010E949D2B892B59F50E94020E46
:103C400060E080E00E94D00D8EE497E00E94990D24
:103C500060E08EE30E947E0380E30E9427030197C9
:103C600009F03EC78EE30E9427038C0162E080E0EA
:103C70000E94D00D83E697E0012B11F088E797E0D2
:103C80000E94990D68EC70E080E090E00E9493053E
:103C9000E3CF6DE877E0C8010E949D2B892B09F0E6
:103CA0004AC00E94020E60E080E00E94D00D80EACF
:103CB00097E00E94990DCC24C3940CEFD02EEE24F3
:103CC000EA94FE2C80E30E942703019709F008C7BD
:103CD0000E94A3018C0160E080E00E94D00D8FEA79
:103CE00097E00E94990D61E080E00E94D00D87ED81
:103CF00096E00E94990D012E000C220B330BA901B6
:103D000098012F5F334041095109A4E6B0E00E94B9
:103D10009B27A70196010E947C27C9010E946A0E79
:103D20008DEB97E00E94990D64EF71E080E090E0E8
:103D30000E949305C7CF65EC77E0C8010E949D2BD8
:103D4000892B09F041C00E94020E60E080E00E94D1
:103D5000D00D81ED97E00E94990D61E08EE30E9405
:103D60007E0380E30E942703019709F0B9C662E051
:103D700080E00E94D00D85EE97E00E94990D61E0F1
:103D80008EE30E94500362E080E00E94D00D88EF35
:103D900097E00E94990D68EB7BE080E090E00E9444
:103DA000930560E08EE30E94500362E080E00E9491
:103DB000D00D85EE97E00E94990D68EE73E080E0EB
:103DC00090E00E949305CDCF6AE078E0C8010E94A0
:103DD0009D2B892B09F014C20E94020E60E080E046
:103DE0000E94D00D8CE198E00E94990D80E30E9422
:103DF0002703019709F074C660E08EE30E947E03FA
:103E0000E9EBF2E0E491E88FE3E7F2E0E491F0E03F
:103E1000EE0FFF1FE056FE4F859194919A8F898F88
:103E20001BA21DA21CA21AA219A218A21F8E1E8ECE
:103E30001D8E1C8E1B8E198289E08C8381E08D8300
:103E40008E838F831A821F8A1E8A8FEF8C8B1D8A26
:103E5000CE0148969B878A8713E001E0EA85FB85BF
:103E6000138615861486128611861086178216828E
:103E70001582148213821886198662E370E080E04E
:103E800090E00E949305BE016F5C7F4F8A859B8501
:103E90000E941516882309F46BC067E0CE01C19615
:103EA0000E94AF1498AD8913EECF88858F5F888705
:103EB00089A9883231F008F043C0803111F0823294
:103EC00011F789858F5F8987898181111DC08A8556
:103ED0009B850E946C15BE016F5C7F4F8A859B8518
:103EE0000E944D1540E064EB8A859B850E94191560
:103EF0008A859B850E94C614F82E8A859B850E9420
:103F00006C15F11001C0098389A9803121F1AE013E
:103F1000485D5F4FBE016F5C7F4FCE0101960E94EE
:103F2000A415882359F08CA599A99B3311F487FD1A
:103F300012C08F3391F058F48F31B1F080E00EC091
:103F40008B3309F4BECF823409F09DCFBACF8F35C1
:103F500069F08F3799F78CE001C08AE09C8198174F
:103F600008F091CF8C838FCF89E0F8CF8BE0F6CF2C
:103F70008885811103C0115009F070CF8A859B8517
:103F80000E946C1540E06CEC8A859B850E94191597
:103F9000498164E48A859B850E9419150E94C605A3
:103FA0006B017C018D818823C1F0EC818E81882397
:103FB000B1F18981811133C08A859B850E94C61425
:103FC000813059F00E94C6056C197D098E099F0940
:103FD0006E3E72408105910578F38885811142C05B
:103FE000C12CD12CAEEFEA2EA2ECFA2E61E080E0DB
:103FF0000E94D00D20E030E04EEF52ECC701B60138
:104000000E9458268111EEC089E298E00E94990D25
:1040100068EE73E080E090E00E949305E7CEE950FF
:104020008EEE92E0E33038F4F0E0EE0FFF1FE35441
:10403000FB4F808191816C01F12CE12C8A818823D6
:1040400021F060E08B810E945003C701B6010E94FD
:1040500093058A81882309F4C0CF61E08B810E9497
:104060005003BBCFEA85FB8513861586148612861E
:104070001186108617821682158214821382BE0161
:104080006F5C7F4F8A859B850E941516882309F4F3
:10409000A7CF67E0CE01C1960E94AF1498AD8913F7
:1040A0009FCFAE01485D5F4FBE016F5C7F4FCE0179
:1040B00001960E94A415882309F492CF89A5C12CEA
:1040C000D12C760187FF06C0C12CD12CF8EFEF2E42
:1040D000FF24FA9499A948A59B3309F03FC02CA569
:1040E00027FF3CC040FD7CCF042F10E030E020E0F3
:1040F00063E0000F111F221F331F6A95D1F7B9012A
:10410000A801407E57706627772790E0B0E0A0E0D6
:104110008C019D01EBE0000F111F221F331FEA9558
:10412000D1F7042B152B262B372B0C291D292E29D3
:104130003F290138B4EE1B07BFEF2B073B070CF4F8
:104140004FCFC901B8010E945F2620E030E040E077
:104150005CE30E94BE266B017C0148CF082F10E073
:10416000102F0027110F110F110F88E0489FA00199
:104170001124042B152B012E000C220B330B0C29C0
:104180001D292E293F299031A1F66FA5662389F2BA
:1041900070E08EA5DB01A81BB109CD019695982F83
:1041A0008827979587950E944A29CB01770FAA0BFC
:1041B000BB0B43E0000F111F221F331F4A95D1F79D
:1041C0000078277033270052110921093109800F27
:1041D000911FA21FB31F97018601082B192B2A2BB1
:1041E0003B2BA7CF42E0C701B6010E94930E41E0EE
:1041F0006FED80E19EE00E94B90D8BE398E006CF61
:104200006DE378E0C8010E949D2B892B99F50E94EF
:10421000020E60E080E00E94D00D88E498E00E94E9
:10422000990D60E08EE30E947E0380E30E942703E5
:10423000019709F055C48EE30E9427038C0162E0C8
:1042400080E00E94D00D85E598E00E94990D62E023
:1042500088E00E94D00D8DE698E0012B11F087E7F1
:1042600098E00E94990D68EC70E080E090E00E9478
:104270009305DBCF61E878E0C8010E949D2B892B74
:1042800009F052C00E94020E88248394FCEF9F2EF6
:10429000AA24AA94BA2C80E30E942703019709F06C
:1042A0001FC460E082E00E947E030E94A3018C0193
:1042B00082E00E9427037C0160E080E00E94D00D34
:1042C0008DE898E00E94990D012E000C220B330B13
:1042D000A90198012F5F334041095109A4E6B0E0DC
:1042E0000E949B27A50194010E947C27C9010E947E
:1042F0006A0E8DEB97E00E94990D61E080E00E94CC
:10430000D00D87E998E00E94990D80EA98E0EF28A7
:1043100011F08EEA98E00E94990D64EF71E080E060
:1043200090E00E949305B7CF61EC78E0C8010E944D
:104330009D2B892B09F06CC00E94020E60E080E08A
:104340000E94D00D80ED98E00E94990D60E082E01F
:104350000E947E03712CC12CD12C760180E30E9437
:104360002703019709F0BCC362E080E00E94D00DF2
:1043700082EE98E00E94990D64E170E080E090E0A8
:104380000E94930582E00E9427038C010E94C605CB
:104390004B015C0101301105F9F47110DFCFDC0134
:1043A000CB018C199D09AE09BF098D329140A10541
:1043B000B105A0F262E080E00E94D00D86EF98E0A7
:1043C0000E94990D68EE73E080E090E00E949305F2
:1043D000762C75016401C2CF012B09F0BFCF772085
:1043E00009F4BCCF8C189D08AE08BF08FDE28F16FB
:1043F000F1E09F06A104B10408F4B0CF62E080E0D0
:104400000E94D00D82EE98E00E94990D712CA6CFEB
:104410006AE079E0C8010E949D2B892B09F0BDC09C
:104420000E94020E60E080E00E94D00D88E199E0D9
:104430000E94990D61E082E00E947E0380E30E9469
:104440002703019709F04CC361E082E00E9450030A
:104450000EE110E062E080E00E94D00D86E299E07B
:104460000E94990D62E081E10E94D00D89EC96E0F6
:104470000E94990D62E081E10E94D00DB801CE0149
:1044800048960E943C171A8219821C821B821E8247
:104490001D82688D798D6115710531F04C8D5D8DB2
:1044A000CE0101960E941117CE0101960E94E416DA
:1044B000DC0114964D915C9115976D917C9180E192
:1044C0009EE00E944A06CE0101960E94B416CE01DB
:1044D00048960E94B41668EE73E080E090E00E9477
:1044E00093050150110909F0B5CF60E082E00E9408
:1044F000500302E010E0E2E0EE2EF12C62E080E0FA
:104500000E94D00D85E399E00E94990D62E081E15F
:104510000E94D00D89EC96E00E94990D62E081E145
:104520000E94D00DB701CE0148960E943C171A8216
:1045300019821C821B821E821D82688D798D6115F5
:10454000710531F04C8D5D8DCE0101960E941117E1
:10455000CE0101960E94E416FC01448155816081E0
:10456000718180E19EE00E944A06CE0101960E9480
:10457000B416CE0148960E94B41668EE73E080E04F
:1045800090E00E949305EE24E394F12C0130110594
:1045900009F454CF01E010E0B1CF62E479E0C80142
:1045A0000E949D2B892BB1F50E94020E80E30E9490
:1045B0002703019709F094C260E080E00E94D00DCB
:1045C0008CE499E00E94990D60E08EE30E947E03E6
:1045D0008EE30E94270361E00197A1F480E00E942E
:1045E000D00D8EE599E00E94990D64EF71E080E0B6
:1045F00090E00E94930564E170E080E090E00E940A
:104600009305D4CF80E00E94D00D83E799E00E940B
:10461000990DF1CF68E879E0C8010E949D2B892BA4
:1046200009F0DFC00E94020E60E08EE30E947E036C
:1046300088E0BE016F5B7F4FDB01E82F1D92EA959A
:10464000E9F7E9EBF2E0DE01D996982F01900D929F
:104650009A95E1F7E1ECF2E0DE01D196982F019016
:104660000D929A95E1F7E9ECF2E0DE019896982F29
:1046700001900D929A95E1F7E1EDF2E0DE01589696
:10468000982F01900D929A95E1F7E9EDF2E0DE01A5
:10469000119601900D928A95E1F780E00E9495169F
:1046A000BE01675C7F4F81E00E949516BE016F5C82
:1046B0007F4F82E00E949516BE01685D7F4F83E0C8
:1046C0000E949516BE01685E7F4F84E00E94951699
:1046D000BE016F5F7F4F85E00E94951660E080E02D
:1046E0000E94D00D86E999E00E94990D56E4452E6E
:1046F000512C612C712C65E0862E912C80E30E9458
:104700002703019709F0ECC10E94A3019C01990FB6
:10471000440B550B245F314041095109A6E4B0E038
:104720000E949B272AEF30E040E050E00E947C2767
:1047300089019A01025E1F4F2F4F3F4F0536110529
:1047400014F004E610E017FF02C010E000E098014A
:10475000012E000C440B550B2E5131094109510912
:10476000A4E6B0E00E949B27A30192010E947C274F
:10477000C901B4010E944A296B015C0162E080E03A
:104780000E94D00DF12CE12C65E0EC14FD0444F006
:10479000CE14DF0421F46A2D1A141B040CF060E01F
:1047A00080E19EE00E94640EFFEFEF1AFF0A24E111
:1047B000E216F10449F761E080E00E94D00D87ED38
:1047C00096E00E94990DC8010E946A0E88EA99E05D
:1047D0000E94990D66E970E080E090E00E949305E8
:1047E0008DCF6FEA79E0C8010E949D2B892B09F0DB
:1047F0007DC00E94020E60E08EE30E947E0380E393
:104800000E942703019709F06BC108EE13E0C12C49
:10481000D12C76010E94A301BC01990F880B990B42
:104820000E945F2620E030EC4FE754E40E944428C9
:1048300020E030E040EA50E40E94BE2620E030E074
:1048400040E250E40E94D7279B01AC010E94BE26A3
:104850009B01AC01C701B6010E94D8276B017C0106
:1048600001501109B9F620E030E04AE754E40E9413
:1048700044280E94F0286B017C010E94020E60E037
:1048800080E00E94D00D82EC99E00E94990D61E0D9
:1048900080E00E94D00D43E0C701B6010E94930E54
:1048A0008DE397E00E94990D62E080E00E94D00DB8
:1048B0008EEC99E00E94990D63E080E00E94D00D9B
:1048C00024EA30E74DE35EE3C701B6010E944428C5
:1048D00043E00E94930E88ED99E00E94990D68EEE6
:1048E00073E080E090E00E94930589CF6BED79E062
:1048F000C8010E949D2B892B09F002C188E0E1EEDE
:10490000F2E0DE01589601900D928A95E1F7BE0122
:10491000685E7F4F80E00E9495163BE9A32EB12C84
:1049200088248394912C80E30E942703019709F047
:10493000D7C019861A861B861C861D8661E08EE309
:104940000E947E0360E08EE30E94500364E170E009
:1049500080E090E00E94930561E08EE30E945003A6
:10496000C5010197F1F760E08EE30E947E0301E14B
:1049700017E28EE30E942703892B09F043C0015000
:104980001109B9F70E94020E60E080E00E94D00D8C
:104990008EEE99E00E94990D61E080E00E94D00DBA
:1049A0008DE898E00E94990D40E064966CAD7DAD75
:1049B0008EAD9FAD64970E94930E8BEF99E00E949D
:1049C000990D62E080E00E94D00D8EEF99E00E9488
:1049D000990D40E060966CAD7DAD8EAD9FAD60975A
:1049E0000E94930E60E080E19EE00E94640E8BE3E3
:1049F00098E00E94990D60ED77E080E090E00E94E1
:104A0000930591CF01E117E28EE30E9427030197FE
:104A100021F401501109C1F7B5CF28E2E22EF12CA3
:104A200017E000E091E1C92E97E2D92E8EE30E94B3
:104A30002703892B29F431E0C31AD108B9F7A2CF93
:104A40000E946E052B013C0181E1C82E87E2D82E21
:104A50008EE30E942703019729F441E0C41AD1088C
:104A6000B9F790CF0E946E056419750986099709F8
:104A7000693271058105910578F0E9E0F0E0EC0F0D
:104A8000FD1FE00FF11D80819401012E01C0220F56
:104A90000A94EAF7822B8083111120C00F5F17E080
:104AA00051E0E51AF10809F0BDCF698570E090E0AA
:104AB00080E00E945D2664966CAF7DAF8EAF9FAFA5
:104AC00064976B8570E090E080E00E945D266096C0
:104AD0006CAF7DAF8EAF9FAF609754CF1150E0CFDA
:104AE0000E94020E60E080E00E94D00D8FE596E00B
:104AF0000E94990D64EF71E080E090E00C94361B09
:104B000065E07AE0C8010E949D2B892B11F00C947E
:104B10000B1C0E94020E60E080E00E94D00D80E13C
:104B20009AE00E94990D80E30E942703019709F003
:104B300072C08CE19EE00E942C09882309F464C0B5
:104B40008CE19EE00E947706882309F45DC00E94F4
:104B5000020E60E080E00E94D00D82E29AE00E94A6
:104B6000990D62E080E00E94D00D85E39AE00E94FA
:104B7000990D10E080911E0E1817D8F4812F90E047
:104B8000DC01A45EB14F7D0113968C91803170F4ED
:104B900089EB95E00E94990DF701638170E090E048
:104BA00080E040E10E94550D1F5FE4CF8CEC96E061
:104BB000F1CF0E94BA036CE271E080E090E00E94C5
:104BC00093058CE19EE00E94C5080E9426090E9480
:104BD000020E60E080E00E94D00D80E19AE00E9429
:104BE000990D8CE19EE00E942C09882339F064E63F
:104BF00070E080E090E00E949305F3CF8CE19EE0AE
:104C00000E9477068111F3CF64E170E080E090E0CC
:104C10000E94930588CF0E94020E60E080E00E940F
:104C2000D00D8FE596E00E94990D68EE73E080E06C
:104C300090E00C94361B63E080E00E94D00D86EA81
:104C400095E00C946D1BBB274A3031F4992322F474
:104C5000BDE2909581959F4F0C942F26BB27FB01B9
:104C60005527AA27880F991FAA1FA41710F0A41B65
:104C700083955051B9F7A05DAA3308F0A95DA193BF
:104C8000009779F7B111B1931192CB010C9448269A
:104C9000DC01FC01672F71917723E1F7329704C0A3
:104CA0007C916D9370836291AE17BF07C8F308952E
:104CB0000E949A2608F481E00895E89409C097FBC1
:104CC0003EF490958095709561957F4F8F4F9F4FE3
:104CD0009923A9F0F92F96E9BB279395F695879527
:104CE00077956795B795F111F8CFFAF4BB0F11F4EA
:104CF00060FF1BC06F5F7F4F8F4F9F4F16C0882391
:104D000011F096E911C0772321F09EE8872F762FC6
:104D100005C0662371F096E8862F70E060E02AF007
:104D20009A95660F771F881FDAF7880F96958795F3
:104D300097F90895990F0008550FAA0BE0E8FEEFC8
:104D400016161706E807F907C0F012161306E4074F
:104D5000F50798F0621B730B840B950B39F40A2648
:104D600061F0232B242B252B21F408950A2609F426
:104D7000A140A6958FEF811D811D08950E94D12627
:104D80000C9442270E94342738F00E943B2720F0E1
:104D9000952311F00C942B270C94312711240C949B
:104DA00076270E94532770F3959FC1F3950F50E02B
:104DB000551F629FF001729FBB27F00DB11D639FCD
:104DC000AA27F00DB11DAA1F649F6627B00DA11D73
:104DD000661F829F2227B00DA11D621F739FB00D19
:104DE000A11D621F839FA00D611D221F749F332789
:104DF000A00D611D231F849F600D211D822F762F22
:104E00006A2F11249F5750409AF0F1F088234AF0FE
:104E1000EE0FFF1FBB1F661F771F881F915050406A
:104E2000A9F79E3F510580F00C942B270C94762710
:104E30005F3FE4F3983ED4F3869577956795B795F1
:104E4000F795E7959F5FC1F7FE2B880F911D96950B
:104E5000879597F9089597F99F6780E870E060E07B
:104E600008959FEF80EC089500240A941616170603
:104E700018060906089500240A941216130614064B
:104E800005060895092E0394000C11F4882352F0AE
:104E9000BB0F40F4BF2B11F460FF04C06F5F7F4F66
:104EA0008F4F9F4F089557FD9058440F551F59F04D
:104EB0005F3F71F04795880F97FB991F61F09F3F07
:104EC00079F087950895121613061406551FF2CF30
:104ED0004695F1DF08C0161617061806991FF1CF80
:104EE00086957105610508940895E894BB276627A7
:104EF0007727CB0197F90895052E97FB1EF40094B0
:104F00000E94932757FD07D00E94A62707FC03D0D5
:104F10004EF40C94932750954095309521953F4F32
:104F20004F4F5F4F089590958095709561957F4F95
:104F30008F4F9F4F08950E94C827A59F900DB49F43
:104F4000900DA49F800D911D11240895A1E21A2EA9
:104F5000AA1BBB1BFD010DC0AA1FBB1FEE1FFF1F1D
:104F6000A217B307E407F50720F0A21BB30BE40B6D
:104F7000F50B661F771F881F991F1A9469F76095B4
:104F80007095809590959B01AC01BD01CF0108956E
:104F9000A29FB001B39FC001A39F700D811D11247A
:104FA000911DB29F700D811D1124911D08955058BF
:104FB000BB27AA270E94EF270C9442270E94342780
:104FC00038F00E943B2720F039F49F3F19F426F473
:104FD0000C9431270EF4E095E7FB0C942B27E92F76
:104FE0000E94532758F3BA1762077307840795077F
:104FF00020F079F4A6F50C9475270EF4E0950B2EAD
:10500000BA2FA02D0B01B90190010C01CA01A0011A
:105010001124FF27591B99F0593F50F4503E68F175
:105020001A16F040A22F232F342F4427585FF3CFB6
:10503000469537952795A795F0405395C9F77EF487
:105040001F16BA0B620B730B840BBAF09150A1F0D0
:10505000FF0FBB1F661F771F881FC2F70EC0BA0F56
:10506000621F731F841F48F4879577956795B795DE
:10507000F7959E3F08F0B0CF9395880F08F09927D9
:10508000EE0F9795879508950E9458280C94422713
:105090000E943B2758F00E94342740F029F45F3FDC
:1050A00029F00C942B2751110C9476270C9431275E
:1050B0000E94532768F39923B1F3552391F3951B6D
:1050C000550BBB27AA2762177307840738F09F5F29
:1050D0005F4F220F331F441FAA1FA9F335D00E2E96
:1050E0003AF0E0E832D091505040E695001CCAF703
:1050F0002BD0FE2F29D0660F771F881FBB1F2617C6
:1051000037074807AB07B0E809F0BB0B802DBF019C
:10511000FF2793585F4F3AF09E3F510578F00C946B
:105120002B270C9476275F3FE4F3983ED4F38695C3
:1051300077956795B795F7959F5FC9F7880F911D8C
:105140009695879597F90895E1E0660F771F881F78
:10515000BB1F621773078407BA0720F0621B730B2B
:10516000840BBA0BEE1F88F7E09508950E945B2729
:1051700088F09F5798F0B92F9927B751B0F0E1F018
:10518000660F771F881F991F1AF0BA95C9F714C0C8
:10519000B13091F00E947527B1E008950C94752705
:1051A000672F782F8827B85F39F0B93FCCF3869501
:1051B00077956795B395D9F73EF49095809570955E
:1051C00061957F4F8F4F9F4F08950E949A2608F454
:1051D0008FEF089519F416F40C9431270C943529A7
:1051E0000E945B27B8F39923C9F3B6F39F57550B79
:1051F00087FF0E9443290024A0E640EA90018058DE
:105200005695979528F4805C660F771F881F20F0CD
:1052100026173707480730F4621B730B840B2029CD
:1052200031294A2BA69517940794202531254A2722
:1052300058F7660F771F881F20F026173707480793
:1052400030F4620B730B840B200D311D411DA095B2
:1052500081F7B901842F9158880F96958795089505
:105260000E949A26880B990B08959F3F31F0915028
:1052700020F4879577956795B795880F911D96953A
:10528000879597F9089591505040660F771F881FB2
:10529000D2F7089597FB072E16F4009407D077FDF8
:1052A00009D00E946D2907FC05D03EF490958195A8
:1052B0009F4F0895709561957F4F0895EE0FFF1FE2
:1052C000881F8BBF0790F691E02D19940E94C82784
:1052D000B7FF0895821B930B0895AA1BBB1B51E1D6
:1052E00007C0AA1FBB1FA617B70710F0A61BB70B56
:1052F000881F991F5A95A9F780959095BC01CD01FB
:1053000008950F931F93CF93DF938230910510F48C
:1053100082E090E0E0912E0EF0912F0E30E020E040
:10532000B0E0A0E0309799F42115310509F44AC0A6
:10533000281B390B24303105D8F58A819B816115F2
:10534000710589F1FB0193838283FE0111C04081C5
:1053500051810281138148175907E0F04817590716
:1053600099F4109761F012960C93129713961C9370
:105370003296CF01DF91CF911F910F910895009345
:105380002E0E10932F0EF4CF2115310551F0421738
:10539000530738F0A901DB019A01BD01DF01F801D3
:1053A000C1CFEF01F9CF90932F0E80932E0ECDCF6A
:1053B000FE01E20FF31F819391932250310939834B
:1053C0002883D7CF20912C0E30912D0E232B41F422
:1053D0002091AD023091AE0230932D0E20932C0E11
:1053E0002091AB023091AC022115310541F42DB76B
:1053F0003EB74091AF025091B002241B350BE091B3
:105400002C0EF0912D0EE217F307A0F42E1B3F0B8C
:105410002817390778F0AC014E5F5F4F2417350726
:1054200048F04E0F5F1F50932D0E40932C0E81932A
:1054300091939FCFF0E0E0E09CCFCF93DF93009774
:10544000E9F0FC01329713821282A0912E0EB091E6
:105450002F0EED0130E020E01097A1F42081318182
:10546000820F931F20912C0E30912D0E2817390793
:1054700009F061C0F0932D0EE0932C0EDF91CF91D7
:105480000895EA01CE17DF07E8F54A815B819E01A6
:1054900041155105B1F7E901FB83EA83499159911F
:1054A000C40FD51FEC17FD0761F48081918102962E
:1054B000840F951FE90199838883828193819B835F
:1054C0008A83F0E0E0E012968D919C91139700970B
:1054D000B9F52D913C911197CD010296820F931F42
:1054E00020912C0E30912D0E2817390739F6309760
:1054F00051F510922F0E10922E0EB0932D0EA093F8
:105500002C0EBCCFD383C28340815181840F951F61
:10551000C817D90761F44E5F5F4F88819981480FA2
:10552000591F518340838A819B81938382832115F4
:10553000310509F0B0CFF0932F0EE0932E0E9ECFE1
:10554000FD01DC01C0CF13821282D7CF4F925F9250
:105550006F927F928F929F92AF92BF92CF92DF9283
:10556000EF92FF920F931F93CF93DF938C010097DD
:1055700099F4CB01DF91CF911F910F91FF90EF90A4
:10558000DF90CF90BF90AF909F908F907F906F9063
:105590005F904F900C948129FC01E60FF71F9C014E
:1055A00022503109E217F30708F4AEC0D901CD91BA
:1055B000DC911197C617D70720F1C530D10578F0D7
:1055C000CE0104978617970750F0C61BD70B22977A
:1055D000C193D1936D937C93CF010E941D2AC80182
:1055E000DF91CF911F910F91FF90EF90DF90CF90BF
:1055F000BF90AF909F908F907F906F905F904F90F3
:1056000008955B01AC1ABD0A4C018C0E9D1EA09141
:105610002E0EB0912F0E512C412CF12CE12C109715
:1056200031F580912C0E90912D0E8815990509F079
:105630005CC04616570608F058C08091AB029091A6
:10564000AC02009741F48DB79EB74091AF025091E4
:10565000B002841B950BE817F90708F055C0F093CA
:105660002D0EE0932C0EF90171836083B8CF8D91DC
:105670009C91119712966C90129713967C901397A9
:10568000A815B90559F56C0142E0C40ED11CCA1425
:10569000DB0420F1AC014A195B09DA011296159777
:1056A00080F06282738251834083D9016D937C9331
:1056B000E114F10471F0D7011396FC93EE93129765
:1056C0008ECF22968C0F9D1FF90191838083F30169
:1056D000EFCFF0932F0EE0932E0E81CF4816590690
:1056E00008F42C017D01D3019ACFCB010E948129BE
:1056F0007C01009749F0AE01B8010E94942BC801CB
:105700000E941D2A87016BCF10E000E068CFFB01EB
:10571000DC0104C08D910190801921F4415050406A
:10572000C8F7881B990B0895FB01DC0102C00190AA
:105730000D9241505040D8F70895FB01DC018D9146
:10574000019080190110D9F3990B0895FB01DC0138
:0E57500001900D920020E1F70895F894FFCF2C
:10575E00E50500000000F605000000000906000047
:10576E000000190600000000290600000000C50711
:10577E00000000007206000000008108000000001A
:10578E00AF09000000008809000000003406000088
:10579E000000AE06000000003D08000000004507B6
:1057AE00000000000A09000000004209000000008D
:1057BE00050A000000000A08000000003B0A000075
:1057CE000000DB0900000000DF0600000000C10839
:1057DE00000000001B0700000000490A0002040040
:1057EE00290600000000DC05000000002A0C8A02D9
:1057FE000300380C180214000101FF0000300E8067
:10580E000000004000140054001010101010101072
:10581E001018181818181818181C1C1C1C1C1C1CE6
:10582E001C1E1E1E1E1E1E1E1E1F1F1F1F1F1F1F85
:10583E001F0609090600000000D909D9095A0A5A9B
:10584E000A3B083B08CE05CE055C0A5C0A5E0A5E82
:10585E000AB30AB30A22072207600A600A620A62C2
:10586E000A640A640A660A660A680A680A6A0A6AA2
:10587E000A750875086C0A6C0A6E0A6E0A4C074C9B
:10588E0007C105C105C009C009700A700A3E073E6E
:10589E0007720A720A740A740A760A760A780A7805
:1058AE000AB905B905D90BD90BE20BE20BEB0BEBE1
:1058BE000BF40BF40BFD0BFD0B060C060C7A0A7A9F
:1058CE000A7C0A7C0A7E0A7E0ACE05800AD90988DD
:1058DE000A720A910AC105960A9C0AA30AAE0AB573
:1058EE000AC10AC80AD00AD70A6E0AE00A720AE387
:1058FE000A5C0AE60A4C07E90AC009EC0A760AF0C5
:10590E000A700AF30AD90BF60AE20BFC0AEB0B0239
:10591E000B5C0A090B6E0A0E0B4C07160BC0091F07
:10592E000B720A250B760A2C0B680A320BD9093733
:10593E000B6A0A3D0B4C07420BC009480BC1054FC1
:10594E000B02580B02580B02580B02580B02580B45
:10595E0002580B02580B02580B02580B02580B023E
:10596E00580B02580B06650B06650B06650B03708C
:10597E000B03700B03700B03700B03700B047B0B8C
:10598E00047B0B047B0B047B0B047B0B05890B0543
:10599E00890B05890B05890B05890B079B0B079B4B
:1059AE000B079B0B079B0B079B0B08A30B08A30B6B
:1059BE0008A30B08A30B08A30B09AB0B09AB0B0930
:1059CE00AB0B09AB0B09AB0B0AB30B0AB30B0AB348
:1059DE000B0BBE0B0BBE0B0BBE0B0BBE0B13C90B77
:1059EE0013C90B0CD20B0DDB0B0EE40B0FED0B10D2
:1059FE00F60B11FF0B12080C12080C12080C1208F1
:105A0E000C12080C12080C01130CFE200C5E00BCCC
:105A1E000077010000000018024A06B9016502EA8B
:105A2E0001C801DC0100000000CF0BA20BE50C78D1
:105A3E000B9B0B880B790B00000000640E4A06E5E9
:105A4E000C110B000000008F092C0977063E200078
:105A5E006E616E00696E66006F7666004170726FE1
:105A6E0078696D65206F2063617274616F3A004DC5
:105A7E00656E75207072696E636970616C2E2E2E64
:105A8E0000477261766163616F2063616E63656C5E
:105A9E0061646100417574656E7469636163616F01
:105AAE002066616C686F75004572726F206C656957
:105ABE007475726120636865636B2000477261764E
:105ACE0061646F20636F6D207375636573736F0010
