:100000000C9462010C9493010C9493010C94930151
:100010000C9493010C9493010C9493010C94930110
:100020000C9493010C9493010C9493010C94930100
:100030000C9493010C947B100C9493010C949301F9
:100040000C9493010C947A110C9493010C949301E9
:100050000C9493010C9493010C9493010C94311023
:100060000C9493010C9444110C941A110C94930168
:100070000C9493010C9493010C9493010C949301B0
:100080000C9493010C9493010C9493010C949301A0
:100090000C9493010C9493010C9493010C94D31140
:1000A0000C9493010C9493010C9493010C94930180
:1000B0000C9493010C9493010C9493010C94930170
:1000C0000C9493010C9493010C9493010C94930160
:1000D0000C9493010C9493010C9493010C94930150
:1000E0000C9493010C9407020C9421040C94C10904
:1000F0000C94E7010C94FF010C946E040C947407AB
:100100000C94D0090C94D6010C94EA090C94E903E0
:100110000C94E1010C94170A0C9411020C94D20176
:100120000C9403020C94EB010C940D020C948203CA
:100130000C94B8030C94F9010C944B180C94D70749
:100140000C94F1010C948B030C94F5010C94590957
:100150000C94CC010C94BF040C94DB030C94FD0BA9
:100160000C9483030C94E3090C942D0B0C94C0099C
:100170000C940C020C94DE010C94C7030C94DA016D
:10018000005EBCE2613FDD83C29C7E20A3FD1F4177
:10019000009D23BE46DB65F88C11AF32CA57E97467
:1001A00002000020002300260029002C002F00322E
:1001B000000001000003010601090100000A0B0212
:1001C000090C0D0E080703040100000000000000E8
:1001D000000000000000000000000000000000001F
:1001E00000000000000000121110000000000000DC
:1001F00000000000000000000000000000000000FF
:100200000000002100240027002A002D00300033C8
:100210000001010000040107010A0100002200257D
:100220000028002B002E00310034000201000005E0
:100230000108010B01050505050705080808080266
:100240000202020A0A08080404040401010101016F
:100250000101010303030303030303040707070C5E
:100260000C0C0C0C0C0C0C02020202060606060614
:100270000606060B0B0B0B0B0B0B0B0102102020C1
:1002800008081020401020408002010201080402EA
:100290000101020408102040808040201008040260
:1002A00001800402018040201008040201080402B9
:1002B00001010204081020408001020408102040BF
:1002C00080004B1811241FBECFEFD1E2DEBFCDBF9F
:1002D00000E00CBF1CE0A0E0B2E0E4E5F9E500E0DE
:1002E0000BBF02C007900D92AA36B107D9F72EE0D6
:1002F000AAE6BCE001C01D92A235B207E1F711E009
:10030000C2E6D1E000E006C021970109802FFE017E
:100310000E94592AC136D10780E00807A9F70E9438
:100320009D180C94A82C0C9400008CBD9DBD0895C4
:1003300080917B00886080937B0080E480937C00C8
:1003400080917A00806480937A0080917A0086FDA3
:10035000FCCF80917800909179000895815082318E
:1003600008F05AC0E82FF0E08827E654FE4F8F4F80
:100370000C94592ADA01DE01CC01D201D6010C021B
:10038000E101E701EB01F101F501F901FF010302D0
:100390000C0207020D021102809180008F7780937A
:1003A00080000895809180008F7DF9CF809180003A
:1003B000877FF5CF84B58F7784BD089584B58F7D11
:1003C000FBCF8091B0008F778093B000089580912B
:1003D000B0008F7DF9CF809190008F77809390004F
:1003E0000895809190008F7DF9CF80919000877F54
:1003F000F5CF8091A0008F778093A0000895809121
:10040000A0008F7DF9CF8091A000877FF5CF8091EC
:1004100020018F77809320010895809120018F7DA6
:10042000F9CF80912001877FF5CFCF93DF93282FDD
:1004300030E0F901E554FE4F8491F901E558FD4F94
:10044000D491F901EB5CFD4FC491CC23A1F0811153
:100450000E94AE01EC2FF0E0EE0FFF1FEF55FE4FB4
:10046000A591B491EC91ED2381E090E009F480E056
:10047000DF91CF91089580E090E0FACF1F93CF9362
:10048000DF93282F30E0F901E554FE4F8491F90104
:10049000E558FD4FD491F901EB5CFD4FC491CC239D
:1004A000A9F0162F81110E94AE01EC2FF0E0EE0FA3
:1004B000FF1FE55EFD4FA591B4918FB7F894EC91C5
:1004C000111108C0D095DE23DC938FBFDF91CF914F
:1004D0001F910895DE2BF8CFCF93DF9390E0FC01BE
:1004E000E558FD4F24918B5C9D4FFC01849188233E
:1004F000C9F090E0880F991FFC01EF5FFD4FA591B7
:10050000B491FC01E55EFD4FC591D49161110DC020
:100510009FB7F8948C91209582238C93888128230F
:1005200028839FBFDF91CF910895623051F49FB728
:10053000F8943C91822F809583238C93E8812E2B15
:10054000EFCF8FB7F894EC912E2B2C938FBFEACF7F
:100550003FB7F89480917E0D90917F0DA091800D12
:10056000B091810D26B5A89B05C02F3F19F00196CB
:10057000A11DB11D3FBFBA2FA92F982F8827BC01FD
:10058000CD01620F711D811D911D42E0660F771F25
:10059000881F991F4A95D1F708958F929F92AF9225
:1005A000BF92CF92DF92EF92FF926B017C010E948B
:1005B000A8024B015C01C114D104E104F104B9F0BB
:1005C0000E94A802681979098A099B09683E73404C
:1005D0008105910580F321E0C21AD108E108F108F4
:1005E00088EE880E83E0981EA11CB11CE4CFFF901A
:1005F000EF90DF90CF90BF90AF909F908F90089535
:100600002FB7F89460917A0D70917B0D80917C0DDD
:1006100090917D0D2FBF08958F929F92AF92BF92C0
:10062000CF92DF92EF92FF926B017C0149015A0158
:1006300060E079E08DE390E0A70196010E94A12897
:1006400069017A0181E0C81AD108E108F1080E9425
:100650000003860E971EA81EB91E8092850D9092EB
:10066000860DA092870DB092880D8091840D811126
:1006700022C0E5E9F2E024912093840D8FE492E01A
:10068000FC013491E32FF0E0EE0FFF1FE55EFD4F1C
:10069000459154915093830D4093820DFC018491B8
:1006A000E82FF0E0EE0FFF1FEF5FFD4FA591B49133
:1006B000EC912E2B2C93D0928700C09286008091D3
:1006C000840090918500B0E0A0E0C816D906EA0643
:1006D000FB0620F4D0928500C092840081E18093D3
:1006E000810080E18093800080916F008260809320
:1006F0006F00FF90EF90DF90CF90BF90AF909F90F2
:100700008F90089508950895DC01ED91FC9101907A
:10071000F081E02D1994AF92BF92CF92DF92EF92C9
:10072000FF920F931F93CF93DF936C017B018B019B
:10073000040F151FEB015E01AE18BF08C017D107EB
:1007400059F06991D601ED91FC910190F081E02D75
:10075000C6011995892B79F7C501DF91CF911F91BA
:100760000F91FF90EF90DF90CF90BF90AF900895E2
:10077000FC01538D448D252F30E0842F90E0821BA7
:10078000930B541710F0CF96089501970895FC012C
:10079000918D828D981761F0A28DAE0FBF2FB11D84
:1007A0005D968C91928D9F5F9F73928F90E00895DC
:1007B0008FEF9FEF0895FC01918D828D981731F096
:1007C000828DE80FF11D858D90E008958FEF9FEFEA
:1007D0000895FC01918D228D892F90E0805C9F4FC0
:1007E000821B91098F739927089589E89DE00E94E3
:1007F000E90321E0892B09F420E0822F0895FC0110
:10080000A48DA80FB92FB11DA35ABF4F2C91848D71
:1008100090E001968F739927848FA689B7892C93CE
:10082000A089B1898C91837080648C93938D848D21
:10083000981306C00288F389E02D80818F7D808324
:100840000895EF92FF920F931F93CF93DF93EC01E4
:1008500081E0888F9B8D8C8D98131AC0E889F98967
:10086000808185FF15C09FB7F894EE89FF8960836A
:10087000E889F98980818370806480839FBF81E0EB
:1008800090E0DF91CF911F910F91FF90EF9008952D
:10089000F62E0B8D10E00F5F1F4F0F731127E02E08
:1008A0008C8D8E110CC00FB607FCFACFE889F98940
:1008B000808185FFF5CFCE010E94FF03F1CFEB8D44
:1008C000EC0FFD2FF11DE35AFF4FF0829FB7F89414
:1008D0000B8FEA89FB8980818062CFCFCF93DF9332
:1008E000EC01888D8823B9F0AA89BB89E889F98948
:1008F0008C9185FD03C0808186FD0DC00FB607FC7D
:10090000F7CF8C9185FFF2CF808185FFEDCFCE01AF
:100910000E94FF03E9CFDF91CF91089580E090E03E
:10092000892B29F00E94F50381110E94000080E0CC
:1009300090E0892B49F080E090E0892B29F00E941B
:10094000000081110E94000080E090E0892B49F0B6
:1009500080E090E0892B29F00E94000081110E9424
:10096000000080E090E0892B49F080E090E0892B46
:1009700029F00E94000081110C9400000895BC0130
:100980006E5F7F4FDC01ED91FC910190F081E02DD5
:1009900040E0199591E0811190E0892F0895089524
:1009A0008EBD00000DB407FEFDCF8EB50895DF9219
:1009B000EF92FF920F931F93CF93DF937C01062F4B
:1009C000D42E152F80E590E00E94950160E0F7019C
:1009D00086850E943E0282E10E94D004CD2DD12F57
:1009E0000C0F1D2F111DC017D10721F089910E94F6
:1009F000D004F9CF61E0F7018685DF91CF911F9197
:100A00000F91FF90EF90DF900C943E021F93CF93D5
:100A1000DF93EC01162F80E590E00E94950160E0E5
:100A20008E850E943E02812F80680E94D00480E063
:100A30000E94D004182F61E08E850E943E02812F13
:100A4000DF91CF911F9108950F931F93CF93DF9361
:100A5000EC01062F142F80E590E00E94950160E0E4
:100A60008E850E943E02802F0E94D004812F0E941A
:100A7000D00461E08E85DF91CF911F910F910C948E
:100A80003E02CF92DF92EF92FF920F931F93CF938C
:100A9000DF93EC016B01F42E890140E062E00E94DB
:100AA000240544E06AE0CE010E94240540E864E1A8
:100AB000CE010E942405A6016F2DCE010E94D7040D
:100AC00043E062E0CE010E9424050E9400036B0116
:100AD0007C0129E5C20ED11CE11CF11C6AE0CE01AB
:100AE0000E94060582FF1BC040E062E0CE010E942A
:100AF000240564E4CE010E940605F801808362E4C7
:100B0000CE010E940605F801818380E0DF91CF913C
:100B10001F910F91FF90EF90DF90CF9008950E946A
:100B200000036C157D058E059F05C0F283E0EECFB6
:100B30002F923F924F925F926F927F928F929F92ED
:100B4000AF92BF92CF92DF92EF92FF920F931F93DB
:100B5000CF93DF931F921F92CDB7DEB73C01162FC4
:100B6000942E290180E0A114B10411F0F5018081D7
:100B7000382C329490EF3922380E40E062E0C30105
:100B80000E9424054FE768E0C3010E94240540E865
:100B900064E1C3010E942405A201602FC3010E94E9
:100BA000D704432D6AE1C3010E942405412F62E06E
:100BB000C3010E9424051C3051F46AE1C3010E9464
:100BC0000605482F40686AE1C3010E9424050E947F
:100BD00000031B012C01F4E22F0E311C411C511C9F
:100BE00068E0C3010E940605982F992109F0B6C05C
:100BF00080FF16C083E00F900F90DF91CF911F917F
:100C00000F91FF90EF90DF90CF90BF90AF909F90AB
:100C10008F907F906F905F904F903F902F900895AE
:100C20000E9400036215730584059505C8F2E2CFA2
:100C3000E114F10409F467C0C114D10409F463C0DC
:100C400064E1C3010E940605982EF6018081891592
:100C500008F47EC090829920C9F180E590E00E945E
:100C6000950160E0F30186850E943E029A9482E934
:100C70000E94D004882099F00FEF10E001C0000F0F
:100C80008A94EAF782E90E94D004902F9095F701A8
:100C9000208192238023982B90838824839487013A
:100CA000080D111D891440F482E90E94D004F80156
:100CB00081938F018394F6CF80E00E94D004F801E5
:100CC000808361E0F30186850E943E0268E1C301F2
:100CD0000E9406058770A114B10411F0F50180830C
:100CE00053FC38C0E114F104B9F1C114D104A1F1ED
:100CF000988D992389F1F6014081413031F4843097
:100D000029F58FEF78CF80E0EBCF4230F8F08111FA
:100D10001DC042509E012F5F3F4FB701C3010E948B
:100D20004105811168CFF6019081E90EF11CF701B0
:100D3000329720819981291309C0F1E0EF1AF10857
:100D4000F70120819A81291709F455CF87E053CF05
:100D500084E051CF82E04FCF80E04DCF6CE0C30103
:100D60000E940605582E837109F462CF81E043CFBB
:100D70008F92AF92BF92CF92DF92EF92FF920F933A
:100D8000CF93DF93CDB7DEB72C970FB6F894DEBFC5
:100D90000FBECDBF20E6298321E02A83FE013396D2
:100DA0009C012A5F3F4FDC014D91CD014193A21779
:100DB000B307C9F7E091400EE150FF0BE25CF14F41
:100DC000DE011996CE010D9621912D93A817B90732
:100DD000D9F71F92812CB12CA12CD12CC12CF12C34
:100DE000E12C0CE09E012F5F3F4F40E16EE08EE36F
:100DF0009EE00E9498050F902C960FB6F894DEBFE7
:100E00000FBECDBFDF91CF910F91FF90EF90DF909C
:100E1000CF90BF90AF908F9008956F927F928F92F6
:100E2000AF92BF92CF92DF92EF92FF920F931F93F8
:100E3000CF93DF9300D01F92CDB7DEB73C0180E5A2
:100E400089831A829E012D5F3F4F42E0BE016F5F92
:100E50007F4FC3010E944105182F811118C01F92B6
:100E6000812CB12CA12CD12CC12CF12CE12C04E033
:100E70009E012F5F3F4F40E36CE0C3010E94980545
:100E80000F90833021F0182F811101C011E0812FC4
:100E90000F900F900F900F90DF91CF911F910F91B6
:100EA000FF90EF90DF90CF90BF90AF908F907F90AA
:100EB0006F9008950F931F93CF93DF938C01D62FDC
:100EC000C42F0E940605C0954C2F48236D2FC801E2
:100ED000DF91CF911F910F910C94240548E060E1C0
:100EE0008EE39EE00C945A076F927F928F92AF929E
:100EF000BF92CF92DF92EF92FF920F93CF93DF9347
:100F000000D01F921F92CDB7DEB73C0182E08D83E7
:100F100040E064E2C3010E94240540E066E2C301B0
:100F20000E94240546E268E4C3010E94240586E28B
:100F30008B838D818230C8F140E86CE1C3010E944F
:100F40005A0787E08C831F92812CCE0104965C01A6
:100F500001966C0104977C0101E09E012D5F3F4FDB
:100F600040E36CE0C3010E949805982F0F90811117
:100F700019C08D818230C9F48C81811116C081E045
:100F80000F900F900F900F900F90DF91CF910F91D6
:100F9000FF90EF90DF90CF90BF90AF908F907F90B9
:100FA0006F90089581E0923059F380E0E9CF2F925D
:100FB0003F924F925F926F927F928F929F92AF92E9
:100FC000BF92CF92DF92EF92FF920F931F93CF9336
:100FD000DF93CDB7DEB72E970FB6F894DEBF0FBE06
:100FE000CDBF06E0413508F046C14E873B012C01DC
:100FF00040E86CE10E945A0783E989832E85222309
:1010000029F081E0F3019081953008F480E0992483
:1010100093941C869C85990F990F990F1E85191B17
:1010200017FD10E032E0882319F098E89B8333E045
:1010300021E0912F977009F420E0912F95959595D7
:101040009595290FD1F094E0811193E0291708F4C8
:10105000922F2C85E22FF0E03196E60DF71D232F1D
:101060004191A1E0B0E0AC0FBD1FA20FB11D4C93A8
:101070002F5F422F431B491798F38111185F1032DD
:101080000CF484C080E78A838B819C8189279D81B1
:1010900089279E8189278F839E01285F3F4F47E0E4
:1010A000BE016F5F7F4FC2010E944105082F811171
:1010B000E2C01A8693E09B871D87FE0137961F01C9
:1010C00009E08A84482D4295407F480D6AE1C201BB
:1010D0000E9424051F92CE010A965C01FE013B96F8
:1010E0006F0171019E012F5F3F4F40E36CE0C20131
:1010F0000E949805082F0F90823009F065C06CE1BE
:10110000C2010E94060585FDB6C08F7109F480E218
:10111000282F30E0412F110F550B421753070CF0C9
:101120009EC0182FE22FE595E595E595EF5F922F8C
:10113000977081E009F480E0E80F81E090E08C0F87
:101140009D1F8E0F911DFC012150310927703327FF
:1011500081E090E002C0880F991F2A95E2F79C0178
:101160008081822B80838BCF85E98983FE85FF2355
:1011700031F081E0F3019081983008F04BCF80E0AE
:1011800049CF87E98983F6E0FC87F9CF912F9770E3
:101190009A87812F8595859585958E5F282F229535
:1011A000207F290F2A8301E0911101C000E0080F80
:1011B00022242394312C2C0E3D1E280E311CF9E0E4
:1011C000F81BFB871D877DCF811155C010E29D85DF
:1011D00090320CF457CF8B81883809F042C083E0FD
:1011E00093E02C85E22FF0E03196E60DF71D980F85
:1011F000A1E0B0E0AC0FBD1FA80FB11D2C91219351
:101200008F5F8913F5CF8B858C87833009F04DC0B4
:101210008A8581114AC09E012D5F3F4F41E0B10197
:10122000C2010E944105082F811125C09B81F10157
:10123000818198133CC09C818281981338C0808141
:1012400082FF12C09394F2E09F1609F48DCF23E041
:10125000921609F496CF81E0981609F4CDCE05E0F8
:101260000AC082E094E0BDCFF3018387892D880F07
:10127000980E93949082802F2E960FB6F894DEBF2E
:101280000FBECDBFDF91CF911F910F91FF90EF90D7
:10129000DF90CF90BF90AF909F908F907F906F9096
:1012A0005F904F903F902F90089501E0E4CF07E0CA
:1012B000E2CF08952091AB0C260F3327331F213244
:1012C0003105ECF42091F40CFC0190E080E0243036
:1012D00069F082E00895A091AB0C2191AC014557D3
:1012E000534FA40FB52FB11D2C930196861798F379
:1012F0008091AB0C680F6093AB0C80E0089581E0A7
:1013000008951092F40C81E08093F30C1092CE0CAF
:1013100061E084E10E943E0261E085E10E943E02BC
:10132000E9EBF0E080818E7F808380818D7F8083F8
:1013300088E48093B80085E48093BC000895CF933F
:10134000DF9391E090938A0C8823B9F0C091B800A4
:10135000D091BA008091BC008A7B8093BC0060E091
:1013600084E10E943E0260E085E10E943E020E940C
:101370008109D093BA00C093B800DF91CF9108954E
:101380000895E091240D8091230DE81730F4F0E0EA
:10139000E659F34F808190E008958FEF9FEF089515
:1013A0009091240D8091230D2FEF3FEF981748F473
:1013B000E92FF0E0E659F34F208130E09F5F9093F2
:1013C000240DC90108958091230D9091240D891B4E
:1013D000990B0895CF92DF92EF92FF920F931F9394
:1013E000CF93DF937C01CB018A012091FA0C222359
:1013F00089F0EB016B01C40ED51ECC15DD0569F03B
:101400006991D701ED91FC910190F081E02DC70128
:101410001995F3CF642F0E945A09C801DF91CF912B
:101420001F910F91FF90EF90DF90CF900895CF9391
:10143000DF931F92CDB7DEB769832091FA0C222388
:10144000F9F02091210D203258F021E030E0FC012C
:101450003383228390E080E00F90DF91CF91089555
:101460008091220DE82FF0E0E550F34F99819083B1
:101470008F5F8093220D8093210D81E090E0ECCF6F
:1014800061E0CE0101960E945A09F7CFCF92DF9218
:10149000EF92FF920F931F93CF93DF93FC01C481D0
:1014A00021E02093FA0CC0931B0D1092220D109294
:1014B000210D8385682B86E29EE00E94170AD09159
:1014C000210DD13208F092C00E94A8026B017C016C
:1014D0008091F40C811165C082E08093F40C81E06E
:1014E0008093F30C8FEF8093F20C1092F10CD09359
:1014F000F00CABEFBCE0E0EDFCE080E0D81385C081
:101500001092CF0C8091CF0CCC0FC82BC093CF0C76
:101510008091CE0C813009F07CC01092CE0C0E94DC
:10152000A8026B017C018091CF0C8093BB0080915D
:10153000F60C9091F70CA091F80CB091F90C892B56
:101540008A2B8B2B99F00E94A8020091F60C109127
:10155000F70C2091F80C3091F90C6C197D098E096B
:101560009F090617170728073907E0F18091BC008B
:1015700083FDD9CF85EC8093BC000E94A8026B014B
:101580007C018091F40C823009F445C08091F20C0A
:101590008F3F61F18091F20C803241F18091F20C29
:1015A00025C08091F60C9091F70CA091F80CB091A9
:1015B000F90C892B8A2B8B2B09F48ACF0E94A80265
:1015C0000091F60C1091F70C2091F80C3091F90C69
:1015D0006C197D098E099F09061717072807390717
:1015E00008F076CF8091F50C0E949F091092220D91
:1015F0001092210D1092FA0CDF91CF911F910F9153
:10160000FF90EF90DF90CF9008959D9191938F5F21
:1016100075CF85EEB0CF8091F60C9091F70CA0912C
:10162000F80CB091F90C892B8A2B8B2B09F4A9CFDC
:101630000E94A8020091F60C1091F70C2091F80C72
:101640003091F90C6C197D098E099F09061717074F
:101650002807390708F095CFC5CF90E080E00895BE
:1016600026E930E040E050E060E971E080E090E0A1
:101670000E940C0368EC70E080E090E00E94CD02D4
:1016800026E930E040E050E060E971E080E090E081
:101690000E940C0368EC70E080E090E00C94CD02B6
:1016A00028EC30E040E050E068EE73E080E090E04D
:1016B0000E940C0368EC70E080E090E00C94CD0296
:1016C000CF92DF92EF92FF920F931F93CF93DF930E
:1016D000EB010E941502892B51F080E0DF91CF9140
:1016E0001F910F91FF90EF90DF90CF9008950E948F
:1016F0000003088119812A813B816B017C01C01A9A
:10170000D10AE20AF30A970186010B3F1105210570
:10171000310518F3688379838A839B8381E0DECF68
:101720000F931F93CF938C01C62F0E94460A6C2FF4
:101730006460C8010E94460A6C2F6B7FC8010E943A
:10174000460A83EC90E00197F1F7CF911F910F913A
:1017500008950F931F93CF93DF938C01D62FC42F3F
:10176000607F642B0E94900B80E1D89FB001112410
:101770006C2BC801DF91CF911F910F910C94900BAE
:10178000CF93DF9300D000D01F921F92CDB7DEB76A
:1017900098E0E1EBF2E0DE01119601900D929A954E
:1017A000E1F790913A0E961710F46FEF690F262F1C
:1017B00030E0220F331F41E050E04C0F5D1F240F3B
:1017C000351FF9016081680F606840E082E39EE0A8
:1017D00028960FB6F894DEBF0FBECDBFDF91CF9134
:1017E0000C94A90B40E061E082E39EE00E94A90B0B
:1017F0008BE39FE10197F1F7089541E00E94A90B67
:1018000081E090E00895FB0101900020E9F7319715
:10181000AF01461B570BDC01ED91FC910280F38177
:10182000E02D19948F929F92AF92BF92EF92FF9208
:101830000F931F93CF93DF93CDB7DEB7A1970FB66A
:10184000F894DEBF0FBECDBF7C01FA01CB0119A217
:10185000223008F42AE08E010F5D1F4F822E912C5A
:10186000B12CA12CBF01A50194010E94A128F9016E
:10187000CA016A300CF5605DD8016E938D01232B8F
:10188000242B252B79F790E080E0109721F0BD0103
:10189000C7010E94030CA1960FB6F894DEBF0FBEDD
:1018A000CDBFDF91CF911F910F91FF90EF90BF902F
:1018B000AF909F908F900895695CDECFCF92DF92BA
:1018C000EF92FF920F931F93CF93DF936B01770FEC
:1018D000EE08FF08F7FE1BC0EC016DE20E948403D6
:1018E0008C0144275527BA014C195D096E097F09FF
:1018F0002AE0CE010E94120C800F911FDF91CF9140
:101900001F910F91FF90EF90DF90CF9008952AE004
:10191000B701A601DF91CF911F910F91FF90EF903A
:10192000DF90CF900C94120CCF93DF93BC0189E829
:101930009DE00E94030CEC016DEF74E089E89DE0EE
:101940000E94030C8C0F9D1FDF91CF9108952F9261
:101950003F924F925F926F927F928F929F92AF923F
:10196000BF92CF92DF92EF92FF921F93CF93DF93BC
:10197000EC016A017B01722EAB019601CB01B6012D
:101980000E942B2A60E075E0811126C046015701B4
:10199000E894B7F82FEF3FEF4FE75FE7C501B401D9
:1019A0000E942B2A81110CC02FEF3FEF4FE75FE71A
:1019B000C501B4010E94532764E075E0181664F075
:1019C0002FEF3FEF4FE75FE4C701B6010E94E02928
:1019D0001816B4F468E075E0CE01DF91CF911F9145
:1019E000FF90EF90DF90CF90BF90AF909F908F903F
:1019F0007F906F905F904F903F902F900C94030CCE
:101A00002FEF3FEF4FE75FECC701B6010E9453276E
:101A100087FDE0CF20E030E0A901C701B6010E94B8
:101A20005327312C212C87FF09C06DE2CE010E9483
:101A300084031C01F7FAF094F7F8F09410E060E0EA
:101A400070E080E09FE3711641F020E030E040E27A
:101A500051E40E943F291F5FF6CFA70196010E9423
:101A6000D3282B013C010E94B1294B015C012AE0E3
:101A7000BC01A401CE010E94120C7C01E20CF31CFB
:101A80001123C1F1C501B4010E9458279B01AC018B
:101A9000C301B2010E94D2284B015C016EE2CE016B
:101AA0000E948403E80EF91E115020F120E030E07E
:101AB00040E251E4C501B4010E94B9272B013C0169
:101AC0000E94B1294B01B12CA12C2AE0B501A4013F
:101AD000CE010E94120CE80EF91EC501B4010E944D
:101AE00058279B01AC01C301B2010E94D2284B01CF
:101AF0005C01DACFC701DF91CF911F91FF90EF908A
:101B0000DF90CF90BF90AF909F908F907F906F901D
:101B10005F904F903F902F9008956115710511F0DF
:101B20000C94030C90E080E00895DF92EF92FF9216
:101B30000F931F93CF93DF930E94F20BD0E0C0E08E
:101B400036E0D32E80914D0D90E0E090520DF12CB7
:101B5000880F991FFC01ED5AF24F008111810E1977
:101B60001F090C0F1D1F17FD2EC0835A924FFC0139
:101B7000808191810817190734F56C2F80E00E944D
:101B8000C00B61EC76E0EC16FD0611F461ED79E036
:101B900082E39EE00E948D0DE0914D0DF0E0EE0F8E
:101BA000FF1FE959F24FD09EC001D19E900D112424
:101BB0000190F081E02DE80FF91F6081718182E3CF
:101BC0009EE00E948D0D2196C430D10509F0BACF58
:101BD000DF91CF911F910F91FF90EF90DF900895CB
:101BE0008F92AF92BF92CF92DF92EF92FF920F93BC
:101BF000CF93DF93CDB7DEB764970FB6F894DEBF0F
:101C00000FBECDBF062FE62EF12CA701BC01CE01E1
:101C100001960E948F2C21E030E02C0F3D1F2E0DED
:101C20003F1D402FBE016F5F7F4F8EE39EE00E94FD
:101C30004105811123C082E18C8B1B8A0E5F1F92AC
:101C4000812CCE0143965C0101966C0143977C0187
:101C50009C0140E36CE08EE39EE00E9498050F90AB
:101C600081110CC08C898130D1F48B898430B9F416
:101C700081E099819A3009F480E0819564960FB6ED
:101C8000F894DEBF0FBECDBFDF91CF910F91FF90D3
:101C9000EF90DF90CF90BF90AF908F90089581E04C
:101CA000EDCF2F923F924F925F926F927F928F92E1
:101CB0009F92AF92BF92CF92DF92EF92FF920F93DB
:101CC0001F93CF93DF93CDB7DEB7AD970FB6F894E0
:101CD000DEBF0FBECDBF712C612CCE0143969BA7FA
:101CE0008AA792E4691671040CF06BC1F301EE0F40
:101CF000FF1FEE0FFF1FE751FD4F808191819DA7D0
:101D00008CA7028113810E94F20B60E080E00E94A8
:101D1000C00B60E475E082E39EE00E948D0D61E0FF
:101D200080E00E94C00BB80182E39EE00E948D0D0E
:101D3000212C312C21011FEF86E20E941502892BF4
:101D400089F491E4691671041CF090E4692E712CF9
:101D5000EFEF6E1A7E0A6CE271E080E090E00E9484
:101D6000CD02BFCF8FE20E941502892B51F41614C9
:101D700017041CF066246394712CF1E06F1A71084B
:101D8000EACF80E30E941502892B09F04CC0211490
:101D900031044104510489F40E9400031B012C0109
:101DA0008EE39EE00E94740781114CC064E670E0EF
:101DB00080E090E00E94CD02BFCF0E940003621934
:101DC000730984099509613D77408105910540F3C8
:101DD0000E94F20B61E080E00E94C00B63E575E0B9
:101DE00082E39EE00E948D0D6CED75E080E090E056
:101DF0000E94CD02AD960FB6F894DEBF0FBECDBFE8
:101E0000DF91CF911F910F91FF90EF90DF90CF90D6
:101E1000BF90AF909F908F907F906F905F904F900A
:101E20003F902F900895211431044104510409F486
:101E3000B7CF0E94F20B61E080E00E94C00B65E624
:101E400075E0CECF8EE39EE00E94BF04982E8823DB
:101E500009F4ACCFEAA5FBA520E111922A95E9F798
:101E6000ECA5FDA501900020E9F7AF014150510913
:101E70008CA59DA5481B590B4131510514F040E13B
:101E800050E06CA57DA5CE0143960E948F2C1BA32C
:101E90001CA31DA31EA31FA318A7CE0183960E94F7
:101EA000B8068823B9F063E080E00E94C00B68E7C1
:101EB00075E082E39EE00E948D0D0E94300B8EE360
:101EC0009EE00E940D070E946E076CED75E080E0B9
:101ED00090E070CF90EA9983E1E0EA8362E0CE017E
:101EE00001960E94F00D81117DC060E1CE01439604
:101EF0000E94F00D811176C0F2E1F9A780E3898399
:101F000021E02A839E012D5F3F4F42E0BE016F5FBB
:101F10007F4F8EE39EE00E944105882339F063E005
:101F200080E00E94C00B6CE875E0C3CF81E08F9326
:101F3000812CB12CA12CFE01B9966F01CE01019626
:101F40007C0104E09C0140E36CE08EE39EE00E9493
:101F500098050F908111E3CF40E150E0B701CE0129
:101F600043960E94822C63E0892BF1F480E00E946A
:101F7000C00B60EA75E082E39EE00E948D0D0E9436
:101F8000500B9FEF691A790A8EE39EE00E940D07BD
:101F90000E946E0760ED77E080E090E00E94CD0245
:101FA000992009F4C9CE9DCE80E00E94C00B64EB5D
:101FB00075E082E39EE00E948D0D0E94300B912C13
:101FC000E3CF0E94F20B61E080E00E94C00B68EC5E
:101FD00075E082E39EE00E948D0D60ED77E080E089
:101FE00090E006CF63E080E00E94C00B6AED75E0F0
:101FF00060CF85ED8093BC008091F60C9091F70C3A
:10200000A091F80CB091F90C0796A11DB11D23E029
:10201000B695A795979587952A95D1F72091BC00FD
:1020200024FD03C01092F40C08954091F60C5091D9
:10203000F70C6091F80C7091F90C452B462B472B4F
:1020400069F30097A105B10541F02AE22A95F1F75D
:1020500000C00197A109B109E1CF8091F50C0C9462
:102060009F091F920F920FB60F9211242F933F9347
:102070008F939F93AF93BF9380917A0D90917B0D37
:10208000A0917C0DB0917D0D3091790D23E0230F4F
:102090002D3758F50196A11DB11D2093790D809320
:1020A0007A0D90937B0DA0937C0DB0937D0D809164
:1020B0007E0D90917F0DA091800DB091810D0196C4
:1020C000A11DB11D80937E0D90937F0DA093800D77
:1020D000B093810DBF91AF919F918F913F912F91BF
:1020E0000F900FBE0F901F90189526E8230F0296B1
:1020F000A11DB11DD2CF1F920F920FB60F921124C6
:102100000BB60F922F933F934F935F936F937F93F1
:102110008F939F93AF93BF93EF93FF938091390D6C
:1021200090913A0DA0913B0DB0913C0D892B8A2BDB
:102130008B2BE1F19091280DE091290DF0912A0D62
:102140008081892780838091390D90913A0DA091EB
:102150003B0DB0913C0D181619061A061B069CF48F
:102160008091390D90913A0DA0913B0DB0913C0DAD
:102170000197A109B1098093390D90933A0DA0936D
:102180003B0DB0933C0DFF91EF91BF91AF919F91AB
:102190008F917F916F915F914F913F912F910F9010
:1021A0000BBE0F900FBE0F901F90189580919C0250
:1021B000E0EAF1E0E4919FEF90939C02E230E9F0D5
:1021C00040F4EE2389F0E13091F060E00E943E029D
:1021D000DACFE43049F110F1E530B9F790917300AE
:1021E0009D7F90937300F1CF10926E00EECF90918F
:1021F0006F009D7F90936F00E8CF909170009D7F5E
:102200009093700091E09093B0009091B100987F0E
:1022100094609093B1001092B300D7CF9091710069
:102220009D7F90937100D1CF909172009D7F90938C
:102230007200CBCF1F920F920FB60F9211240BB6E4
:102240000F922F933F934F935F936F937F938F934F
:102250009F93AF93BF93EF93FF9389E89DE00E9414
:10226000FF03FF91EF91BF91AF919F918F917F916C
:102270006F915F914F913F912F910F900BBE0F90F7
:102280000FBE0F901F9018951F920F920FB60F92CE
:1022900011240BB60F922F938F939F93EF93FF937D
:1022A000E091990DF0919A0D8081E0919F0DF09150
:1022B000A00D82FD1DC090818091A20D8F5F8F7354
:1022C0002091A30D821741F0E091A20DF0E0E757B5
:1022D000F24F958F8093A20DFF91EF919F918F9177
:1022E0002F910F900BBE0F900FBE0F901F9018955F
:1022F0008081F2CF1F920F920FB60F9211240BB66E
:102300000F920F931F932F933F934F935F936F936E
:102310007F938F939F93AF93BF93EF93FF930E940D
:1023200000030091850D1091860D2091870D30914D
:10233000880D6017710782079307B8F080916F00CE
:102340008D7F80936F0082E08093810081E0809395
:102350008000E091820DF091830D90818091840D39
:102360008095892380831092840DE091820DF091F5
:10237000830D80819091840D89278083FF91EF9157
:10238000BF91AF919F918F917F916F915F914F918D
:102390003F912F911F910F910F900BBE0F900FBE89
:1023A0000F901F9018951F920F920FB60F92112445
:1023B0000BB60F922F933F934F935F936F937F933F
:1023C0008F939F93AF93BF93EF93FF938091B90047
:1023D000887F803609F44DC008F040C0883209F487
:1023E000A9C028F5803109F49DC0C8F4882309F4F8
:1023F000FBC0883009F496C0FF91EF91BF91AF9177
:102400009F918F917F916F915F914F913F912F910C
:102410000F900BBE0F900FBE0F901F901895883134
:1024200009F488C0803241F78093F20C14C08034E4
:1024300009F49DC040F48033B9F38833E9F6809302
:10244000F20C85ECB0C0803509F485C0883509F4FC
:1024500096C0883489F60E94F90FCECF883909F4E6
:102460008CC038F5883729F050F4883611F0803761
:1024700019F683E08093F40C1092CD0C57C0883885
:1024800009F47BC0803919F0803809F0B5CF80910C
:10249000CD0C803208F071C0E091CD0C81E08E0F40
:1024A0008093CD0C8091BB00F0E0E355F34F808327
:1024B0003DC0803B39F0E0F4803A09F479C0883AB5
:1024C00009F09ACF84E08093F40C1092AC0C109237
:1024D000AB0CE0911F0DF091200D19958091AB0C84
:1024E00081110FC081E08093AB0C10928B0C09C05E
:1024F000803C09F4A6CF883C09F4A3CF883B09F0BF
:102500007BCFE091AC0C81E08E0F8093AC0CF0E0BF
:10251000E557F34F80818093BB009091AC0C809184
:10252000AB0C29C08091CF0C8093BB0085EC8093CD
:10253000BC0062CF9091F10C8091F00C981758F587
:10254000E091F10C81E08E0F8093F10CF0E0E0530C
:10255000F34F8081E9CFE091F10C81E08E0F809301
:10256000F10C8091BB00F0E0E053F34F8083909139
:10257000F10C8091F00C9817C8F285E8D8CFE09163
:10258000F10C81E08E0F8093F10C8091BB00F0E0A4
:10259000E053F34F80838091F30C81115CCF81E095
:1025A0008093CE0C84EA8093BC001092F40C24CF6C
:1025B00085EC8093BC001092F40C8091CD0C80329D
:1025C00030F4E091CD0CF0E0E355F34F10826091D0
:1025D000CD0C70E0E0911D0DF0911E0D8DEA9CE098
:1025E00019951092CD0C08CF1092F20C34CFCF92E7
:1025F000DF92EF92FF920F931F93E82FF92F05C000
:10260000015011092109310961F190819623941734
:10261000B9F305C0015011092109310911F1908167
:1026200096239413F7CFC12CD12CE12CF12C0AC0A6
:102630008FEFC81AD80AE80AF80A0C151D052E05EE
:102640003F0579F080818623841791F36C2D7D2DD1
:102650008E2D9F2D1F910F91FF90EF90DF90CF90C7
:10266000089560E070E080E090E01F910F91FF908E
:10267000EF90DF90CF900895DC0180E0615090F002
:102680009D919827E92FEF70F0E0E058FE4F2491DC
:10269000E92FE295EF70F0E0E057FE4FE491822FD2
:1026A0008E27ECCF0895DC012C911196ED91FC91D1
:1026B000F8948181822B81839281322F30959323EC
:1026C000928387E090E00197F1F7818183238183F2
:1026D00083E290E00197F1F790817894EFECF0E0DD
:1026E0003197F1F7922381E009F480E00895FC012D
:1026F00090810180F281E02D292F209560FF14C088
:10270000F8948281822382838181892B8183A3E251
:10271000B0E01197F1F78281982B9283789487ED3E
:1027200090E00197F1F70895F894828182238283E3
:102730008181892B8183AFEFB0E01197F1F782811E
:10274000982B928378948FE090E0EBCFDF92EF921A
:10275000FF920F931F93CF93DF93EC01D62EE42EBD
:1027600008E010E0FF24F39461E08D2D8F2109F43F
:1027700060E0CE010E947713FF0C01501109A1F710
:10278000E11010C0F894E981FA81918188818095E7
:1027900089238183E981FA819281888180958923C7
:1027A00082837894DF91CF911F910F91FF90EF90EA
:1027B000DF900895EF92FF920F931F93CF93DF93D3
:1027C0008C017B0140E065E50E94A613E70188E0EB
:1027D000E80EF11C699140E0C8010E94A613CE15D5
:1027E000DF05C1F7DF91CF911F910F91FF90EF901F
:1027F0000895FC0190810180F281E02DF89481819F
:10280000292F20958223818378943DE743E050E08F
:10281000315029F1DA011197F1F780818923C1F351
:10282000F8948281822382838181892B81837894A9
:10283000ABE7B7E01197F1F7F894818182238183A8
:10284000A3E1B1E01197F1F78081982381E009F0CD
:1028500080E07894E3E6F6E03197F1F7089580E0C0
:1028600008954F925F926F927F928F929F92AF9254
:10287000BF92CF92DF92EF92FF920F931F93CF936D
:10288000DF938C017B01EA01FC01818592850E9426
:10289000F9138823D9F1B701F801818592850E9447
:1028A000DA1340E06EEBF801818592850E94A61351
:1028B0006E015E01F9E0AF0EB11C7E01F80181846A
:1028C000928488E0682E712C512C44244394C401D6
:1028D0000E94531381115428440CF1E06F1A7108BF
:1028E000B1F7F70151927F01AE16BF0639F7F80133
:1028F000818592850E94F913813041F4F60181911E
:102900006F01811105C0EE15FF05C1F790E008C009
:1029100068E0CE010E943C1391E028852813F6CF91
:10292000892FDF91CF911F910F91FF90EF90DF9052
:10293000CF90BF90AF909F908F907F906F905F905F
:102940004F900895BF92CF92DF92EF92FF920F9334
:102950001F93CF93DF93EC01B62EC72E8D85811187
:1029600005C0CE010E94F91381110EC01B861D8681
:102970001C8680E0DF91CF911F910F91FF90EF9027
:10298000DF90CF90BF90089540E060EFCE010E94AD
:10299000A61301E0E12CD12C11E0CE010E945313CB
:1029A000F82ECE010E94531391E0F91218C0813025
:1029B00099F51134D8F2DB86D11002C081E08D8701
:1029C0008B81882399F22396EB2DFC2DCF0108965D
:1029D00029912193E817F907D9F781E0CBCFEE2DA4
:1029E000F0E0F8120FC08B851817A0F4DE01AE0FCF
:1029F000BF1F13968C91802379F4F12C193008F4C1
:102A00001C87D12EEC0FFD1F8381902F9095892379
:102A100083830AC08113F1CFFE01EE0DF11D838186
:102A2000802B8383FF24F3946F2DCE010E947713B4
:102A30001F5F000F11F4E39401E087E08E1508F0AA
:102A4000ACCFB7CF0F931F93CF93DF938B0198E059
:102A5000899FB0011124606440E082E39EE00E94FF
:102A6000A90BE801085F1F4F699182E39EE00E9475
:102A7000FD0BC017D107C1F7DF91CF911F910F91C7
:102A80000895CF92DF92EF92FF920F931F93CF930F
:102A9000DF93CDB7DEB7E6970FB6F894DEBF0FBE73
:102AA000CDBF0E94F20B60E080E00E94C00B6CE0A2
:102AB00075E082E39EE00E948D0D80E30E94150286
:102AC000019709F007C260E08EE30E946C02E9EB17
:102AD000F2E0E491E88FE3E7F2E0E491F0E0EE0F5A
:102AE000FF1FEF55FE4F859194919A8F898F1BA2FE
:102AF0001DA21CA21AA219A218A21F8E1E8E1D8E24
:102B00001C8E1B8E198289E08C8381E08D838E83DD
:102B10008F831A821F8A1E8A8FEF8C8B1D8ACE01AB
:102B200048969B878A8713E001E0EA85FB85138638
:102B300015861486128611861086178216821582D3
:102B4000148213821886198662E370E080E090E0B8
:102B50000E94CD02BE01615D7F4F8A859B850E94E8
:102B6000A214882309F46BC067E0CE018F960E94FF
:102B70003C139EA98913EECF88858F5F88878FA528
:102B8000883231F008F043C0803111F0823211F701
:102B900089858F5F8987898181111DC08A859B8581
:102BA0000E94F913BE01615D7F4F8A859B850E945B
:102BB000DA1340E064EB8A859B850E94A6138A8520
:102BC0009B850E945313F82E8A859B850E94F913DA
:102BD000F11001C009838FA5803121F1AE014A5D5A
:102BE0005F4FBE01615D7F4FCE0101960E9431149F
:102BF000882359F08AA59FA59B3311F487FD12C045
:102C00008F3391F058F48F31B1F080E00EC08B33E8
:102C100009F4BECF823409F09DCFBACF8F3569F069
:102C20008F3799F78CE001C08AE09C81981708F0F3
:102C300091CF8C838FCF89E0F8CF8BE0F6CF88855A
:102C4000811103C0115009F070CF8A859B850E94C5
:102C5000F91340E06CEC8A859B850E94A61349819C
:102C600064E48A859B850E94A6130E9400036B0181
:102C70007C018D818823C1F08E81882309F446C0B0
:102C80008981811143C08A859B850E9453138130BD
:102C900059F00E9400036C197D098E099F096E3E50
:102CA00072408105910578F38885811153C0C12C4C
:102CB000D12CAEEFEA2EA2ECFA2E61E080E00E9469
:102CC000C00B20E030E04EEF52ECC701B6010E948D
:102CD000532769E175E0882371F022E0B701A6016E
:102CE00082E39EE00E94A70C6FED82E39EE00E94CB
:102CF00084036BE275E082E39EE00E948D0D68EE36
:102D000073E080E090E00E94CD02D7CEEC81E950E4
:102D10008EEE92E0E33038F4F0E0EE0FFF1FEF505C
:102D2000FC4F808191816C01F12CE12C8A818823F8
:102D300021F060E08B810E943E02C701B6010E9433
:102D4000CD028A81882309F4AFCF61E08B810E9494
:102D50003E02AACFEA85FB85138615861486128665
:102D60001186108617821682158214821382BE0184
:102D7000615D7F4F8A859B850E94A214882309F498
:102D800096CF67E0CE018F960E943C139EA98913CF
:102D90008ECFAE014A5D5F4FBE01615D7F4FCE01B8
:102DA00001960E943114882309F481CF8FA1C12C90
:102DB000D12C760187FF06C0C12CD12CF8EFEF2E65
:102DC000FF24FA949FA54EA19B3309F03FC02AA58A
:102DD00027FF3CC040FD6BCF042F10E030E020E027
:102DE00073E0000F111F221F331F7A95D1F7B9012D
:102DF000A801407E57706627772790E0B0E0A0E0FA
:102E00008C019D01EBE0000F111F221F331FEA957B
:102E1000D1F7042B152B262B372B0C291D292E29F6
:102E20003F29013854EE15075FEF250735070CF4ED
:102E30003ECFC901B8010E945A2720E030E040E0AF
:102E40005CE30E94B9276B017C0137CF082F10E0AB
:102E5000102F0027110F110F110F88E0489FA001BC
:102E60001124042B152B012E000C220B330B0C29E3
:102E70001D292E293F299031A1F66DA5662389F2DF
:102E800070E08CA5AB01481B5109CA019695982F9B
:102E90008827979587950E94452ACB01770FAA0B23
:102EA000BB0B53E0000F111F221F331F5A95D1F7A0
:102EB0000078277033270052110921093109800F4A
:102EC000911FA21FB31F97018601082B192B2A2BD4
:102ED0003B2BA7CF0E94F20B60E080E00E94C00B6A
:102EE0006DE275E082E39EE00E948D0D64EF71E07B
:102EF00080E090E00E94CD02E6960FB6F894DEBF27
:102F00000FBECDBFDF91CF911F910F91FF90EF903A
:102F1000DF90CF900895FC0180819181009711F09E
:102F20000C94182B08950F931F93CF93DF93EC010C
:102F300088819981009759F02A813B8126173707AC
:102F400030F081E0DF91CF911F910F9108958B01B7
:102F50006F5F7F4F0E94A12B009759F09983888360
:102F60001B830A832C813D81232B59F7FC0110829E
:102F7000E8CF80E0E7CF0F931F93CF93DF93EC016F
:102F80000C811D810F5F1F4FB8010E94931728818C
:102F90003981882381F08C819D816DEA76E0820FF2
:102FA000931F0E94A12C1D830C83CE01DF91CF9132
:102FB0001F910F9108952115310519F0C9010E9443
:102FC000182B198218821D821C821B821A82EDCF57
:102FD000EF92FF920F931F93CF93DF93EC017B014E
:102FE0008A01BA010E94931728813981811114C086
:102FF0002115310519F0C9010E94182B1982188278
:103000001D821C821B821A82CE01DF91CF911F91FB
:103010000F91FF90EF9008951D830C83B701C901B4
:103020000E94A12CF1CFEF92FF920F931F93CF93A9
:10303000DF93CDB7DEB762970FB6F894DEBF0FBE51
:10304000CDBF8C01CB01F801118210821382128254
:10305000158214824AE09E012F5F3F4F7901B9012A
:103060000E941E27F70101900020E9F73197AF0178
:103070004E195F09B701C8010E94E81762960FB6A2
:10308000F894DEBF0FBECDBFDF91CF911F910F919E
:10309000FF90EF900895E9E8FDE01382128288EE38
:1030A00093E0A0E0B0E084839583A683B78327EC08
:1030B00034E03183208325EC30E03587248724EC0D
:1030C00030E03787268720EC30E0318B208B21ECF5
:1030D00030E0338B228B22EC30E0358B248B26ECD6
:1030E00030E0378B268B118E128E138E148EE6E213
:1030F000FEE01382128284839583A683B78389EDD1
:1031000094E091838083EEE3FEE087EF94E0918387
:1031100080838AE286878FEF8787E2E3FEE013826F
:1031200012828BEE94E09183808387E2848384E132
:10313000818784E0828713860895CF93DF93CDB78C
:10314000DEB7CD54D1090FB6F894DEBF0FBECDBFA8
:10315000789484B5826084BD84B5816084BD85B572
:10316000826085BD85B5816085BD80916E0081607E
:1031700080936E0010928100809181008260809324
:103180008100809181008160809381008091800026
:103190008160809380008091B10084608093B10051
:1031A0008091B00081608093B00080919100826036
:1031B0008093910080919100816080939100809133
:1031C00090008160809390008091A1008260809344
:1031D000A1008091A10081608093A1008091A00056
:1031E00081608093A0008091210182608093210101
:1031F0008091210181608093210180912001816073
:103200008093200180917A00846080937A0080917D
:103210007A00826080937A0080917A008160809346
:103220007A0080917A00806880937A001092C100C1
:10323000E091990DF0919A0D82E08083E091950DD7
:10324000F091960D1082E091970DF091980D80E12C
:1032500080831092A10DE0919D0DF0919E0D86E06E
:103260008083E0919B0DF0919C0D80818061808333
:10327000E0919B0DF0919C0D808188608083E091AE
:103280009B0DF0919C0D808180688083E0919B0D67
:10329000F0919C0D80818F7D80831FB7F894809181
:1032A0001C0D811127C0EAE6F2E08491E0EBF2E028
:1032B0009491E82FF0E0EE0FFF1FEF5FFD4FA59117
:1032C000B491EC91E92321F461E085E30E943E0290
:1032D00061E085E30E946C028CB580618CBD8CB589
:1032E00080648CBD61E084E30E946C0261E083E352
:1032F0000E946C0280911C0D8F5F80931C0D1FBF7C
:1033000061E080914C0E0E946C0261E080914C0E55
:103310000E943E0280914D0E8F3F09F477C160E01C
:103320000E946C0280914D0E0E941502892B09F0BB
:103330006DC161E080914D0E0E946C0260E0809151
:103340004D0E0E943E0283E090E00197F1F761E0AC
:1033500080914D0E0E943E0262E370E080E090E0BA
:103360000E94CD0240E064E28EE39EE00E942405CC
:1033700040E066E28EE39EE00E94240546E268E4B7
:103380008EE39EE00E94240540E864E58EE39EE023
:103390000E94240549EA66E58EE39EE00E9424052A
:1033A00043E068E58EE39EE00E94240548EE6AE56E
:1033B0008EE39EE00E94240540E46AE28EE39EE0F4
:1033C0000E9424054DE362E28EE39EE00E94240504
:1033D00068E28EE39EE00E940605982F937093307A
:1033E00039F0482F436068E28EE39EE00E94240596
:1033F00061E08AE10E946C021092240D1092230D6C
:103400001092220D1092210D0E94810982E893E012
:103410009093200D80931F0D83E893E090931E0DF1
:1034200080931D0D1092370E80913C0E823018F063
:1034300098E09093370E80933A0E62E370E080E05C
:1034400090E00E94CD0260913D0E82E39EE00E94DA
:10345000460A68EE73E080E090E00E94CD0260E3EF
:1034600082E39EE00E94900B0BE416E4C8010197F2
:10347000F1F760E382E39EE00E94900BC8010197A0
:10348000F1F760E382E39EE00E94900B83E592E017
:103490000197F1F760E282E39EE00E94900B609159
:1034A000370E606240E082E39EE00E94A90B84E058
:1034B0008093380E40E06CE082E39EE00E94A90B0E
:1034C0000E94F20B82E08093390E40E066E082E3D6
:1034D0009EE00E94A90B40E062E082E39EE00E9431
:1034E000A90B8BE39FE10197F1F788E080933D0EF4
:1034F00060E082E39EE00E94460A62E08FE20E9462
:103500006C0262E086E20E946C0262E081E30E944B
:103510006C0262E080E30E946C020E94F20B60E0A9
:1035200086E00E94C00B68EF75E082E39EE00E9497
:103530008D0D61E083E00E94C00B60E076E082E3E5
:103540009EE00E948D0D63E084E00E94C00B6DE060
:1035500076E082E39EE00E948D0D8091AA0288238E
:1035600009F46BC00E9400030091750D1091760D57
:103570002091770D3091780D6B017C01C01AD10A32
:10358000E20AF30A97018601053F11402105310542
:10359000E0F06093750D7093760D8093770D9093A6
:1035A000780D1091A90281E018271093A90263E019
:1035B00084E00E94C00B6DE076E0111102C066EB62
:1035C00076E082E39EE00E948D0D61E77DE081E37D
:1035D00090E00E94600B8823B1F01092AA028DE95E
:1035E00092E09093680D8093670D82E090E0909355
:1035F0005E0D80935D0D1092540D1092530D10923C
:10360000520D0E94950D0E948E04A7CF4FE062E0FC
:103610008EE39EE00E94240513E062E370E080E008
:1036200090E00E94CD0262E08EE39EE00E940605DB
:1036300084FF98CE115089F795CE6EE47DE08FE23D
:1036400090E00E94600B8823C9F0E0914D0DF0E0FE
:10365000EE0FFF1FED5AF24F808191811816190667
:103660005CF40197918380838091520D882309F443
:1036700087C081508093520D0E94950D69E47DE0D2
:1036800086E290E00E94600B882331F180914D0D1D
:1036900090E0880F991FFC01ED5AF24F4081518153
:1036A000835A924FDC012D913C91215031094217F0
:1036B000530784F44F5F5F4F518340838091520DD5
:1036C000833008F060C0821713060CF05CC08F5F77
:1036D0008093520D0E94950D61E77DE081E390E0BB
:1036E0000E94600B682E8823C9F180914D0D282F10
:1036F00030E0220F331FF901E959F24F2D5A324FB2
:10370000D9014D915C9196E0949F9001959F300D69
:1037100011240190F081E02DE20FF31F228133810B
:103720002115310599F1448155818F5F80934D0DAD
:1037300090E0880F991FFC01E959F24F31832083F3
:10374000FC01E35AF24F518340838D5A924FFC01A2
:10375000118210821092520D0E94950D65E47DE059
:1037600080E390E00E94600B882309F44CCF8091A5
:103770004D0D882309F447CF815080934D0D3FCFE5
:103780000E94950D79CF0E94950DA4CF00811181E3
:1037900069E176E0C8010E94982C1C01892B09F090
:1037A00060C1CE01439625969FAF8EAF259794E4D6
:1037B000291631040CF044C1F101EE0FFF1FE20D98
:1037C000F31DE950FC4FA0812696AFAF26970181EB
:1037D00012810E94F20B60E080E00E94C00B60E466
:1037E00075E082E39EE00E948D0D61E080E00E9422
:1037F000C00BB80182E39EE00E948D0D412C512C3C
:1038000032011FEF86E20E941502892B89F4B3E48E
:103810002B1631041CF032E4232E312CEFEF2E1A3C
:103820003E0A6CE271E080E090E00E94CD02BFCFE2
:103830008FE20E941502892B51F4121413041CF01C
:1038400022242394312CF1E02F1A3108EACF80E3AF
:103850000E941502892BA1F54114510461047104E1
:1038600089F40E9400032B013C018EE39EE00E943C
:103870007407811133C064E670E080E090E00E943C
:10388000CD02C0CF0E94000364197509860997090B
:10389000613D77408105910540F30E94F20B61E0A4
:1038A00080E00E94C00B63E575E082E39EE00E9429
:1038B0008D0D6CED75E080E090E00E94CD02DAC0E5
:1038C000411451046104710481F20E94F20B61E021
:1038D00080E00E94C00B65E675E0E7CF8EE39EE0D6
:1038E0000E94BF04982E882331F22596AEADBFAD5D
:1038F0002597E0E11D92EA95E9F72696FFAD269718
:10390000FB8B1BA31CA31DA31EA31FA318A7CE01E3
:1039100083960E94B8068823B9F063E080E00E9495
:10392000C00B68E775E082E39EE00E948D0D0E9467
:10393000300B8EE39EE00E940D070E946E076CED37
:1039400075E080E090E09BCF90EAC92EC982DD242B
:10395000D394DA8262E0CE0101960E94F00D8111CB
:103960000C94162760E1CE0143960E94F00D811160
:103970000C94162782E1E82EEBA680E38983DA8295
:103980009E012D5F3F4F42E0BE016F5F7F4F8EE390
:103990009EE00E944105882339F063E080E00E94A8
:1039A000C00B6CE875E0BFCFFF24F394FF92812C2D
:1039B000B12CA12CCE018B966C01DE0111967D01FC
:1039C00004E09D0140E36CE08EE39EE00E949805D8
:1039D0000F908111E2CF40E150E0B701CE01439654
:1039E0000E94822C63E0892BF1F480E00E94C00BDE
:1039F00060EA75E082E39EE00E948D0D0E94500B0C
:103A0000BFEF2B1A3B0A8EE39EE00E940D070E9437
:103A10006E0760ED77E080E090E00E94CD02992093
:103A200009F4F0CEC4CE80E00E94C00B64EB75E0D8
:103A300082E39EE00E948D0D0E94300B912CE3CF1B
:103A40000E94F20B61E080E00E94C00B68EC75E020
:103A500082E39EE00E948D0D60ED77E080E090E0D3
:103A60002CCF62E276E0C8010E94982C892B29F4C1
:103A70000E94510E0E94F20B6FCE63E376E0C80104
:103A80000E94982C892B19F40E94510EF3CF6EE3FB
:103A900076E0C8010E94982C892B09F058C00E943A
:103AA000F20B0CEB802E02E0902EA12CB12C80E3C7
:103AB0000E941502019711F00C9404270E949801AE
:103AC0008C0124E130E0DC010E94612AA50194010F
:103AD0000E947728790160E080E00E94C00B6AE4D0
:103AE00076E082E39EE00E948D0D62E080E00E941D
:103AF000C00B6FE576E082E39EE00E948D0DB80179
:103B000082E39EE00E945E0C6EEB76E082E39EE034
:103B10000E948D0D63E080E00E94C00B10E000E089
:103B200067E676E00E151F0514F062EC76E082E39E
:103B30009EE00E948D0D0F5F1F4F0431110581F72C
:103B400064E170E080E090E00E94CD02B0CF69E6D1
:103B500076E0C8010E94982C892B09F0D8C162E058
:103B60008EE30E946C020E94F20BE0E98E2E9924F3
:103B70009394A12CB12CFFE3CF2EFFE1DF2EA0EA1E
:103B80004A2EA1E05A2EBFE46B2EB2E07B2E15E93F
:103B9000E12E12E0F12E80E30E941502019711F050
:103BA0000C9404278EE30E941502892B09F09AC118
:103BB00061E080E00E94C00B65E776E082E39EE072
:103BC0000E948D0D80919C028A3129F5F201149199
:103BD00017FD76C161E08AE10E946C02112309F4AD
:103BE000EBC0123009F0FCC08091B100887F836087
:103BF0008093B10089EF8093B3008092390D909249
:103C00003A0DA0923B0DB0923C0D80917000826005
:103C10008093700055C18F3F09F052C18AE18093B3
:103C20009C02F2011491812F1F3F09F449C1123007
:103C300009F466C060F4112379F1113009F443C02E
:103C400087FD3EC161E08AE10E946C02CACF143058
:103C500009F495C008F475C0153091F71092200151
:103C6000109221018091210188608093210180912F
:103C70002101816080932101F3018491E82FF0E01C
:103C8000EE0FFF1FE55EFD4F85919491F701849142
:103C90008093250D15E09ECF14BC15BC84B58260C1
:103CA00084BD85B5816085BDF3018491E82FF0E086
:103CB000EE0FFF1FE55EFD4F85919491F701849112
:103CC00080932C0D87CF10928000109281008091FC
:103CD0008100886080938100809181008160809361
:103CE0008100F3018491E82FF0E0EE0FFF1FE55E05
:103CF000FD4F85919491F701849180932B0D6ACFAC
:103D00001092B0001092B1008091B0008260809358
:103D1000B0008091B10081608093B100F301849183
:103D2000E82FF0E0EE0FFF1FE55EFD4F85919491C7
:103D300090932A0D8093290DF70184918093280D8B
:103D400049CF10929000109291008091910088606C
:103D50008093910080919100816080939100F301A4
:103D60008491E82FF0E0EE0FFF1FE55EFD4F859197
:103D70009491F70184918093270D13E02BCF10923B
:103D8000A0001092A1008091A10088608093A10002
:103D90008091A10081608093A100F3018491E82FBC
:103DA000F0E0EE0FFF1FE55EFD4F85919491F70166
:103DB00084918093260D0ECF85B5887F836085BD65
:103DC0008CE787BD8092410D9092420DA092430DE9
:103DD000B092440D80916E00826080936E0070C03E
:103DE0001130C1F480918100887F816080938100CF
:103DF000D0928900C092880080923D0D90923E0D35
:103E0000A0923F0DB092400D80916F008260809330
:103E10006F0056C01330C1F480919100887F81609B
:103E200080939100D0929900C09298008092350DB5
:103E30009092360DA092370DB092380D809171009E
:103E40008260809371003CC01430C1F48091A10065
:103E5000887F81608093A100D092A900C092A800C1
:103E60008092310D9092320DA092330DB092340DAC
:103E70008091720082608093720022C01530C1F47C
:103E800080912101887F816080932101D092290156
:103E9000C092280180922D0D90922E0DA0922F0D90
:103EA000B092300D8091730082608093730008C0DF
:103EB0001230B1F064F4112389F0113009F498CF75
:103EC00068EC70E080E090E00E94CD0264CE143097
:103ED00019F20CF4A7CF153099F7D8CF8FE371CF33
:103EE0008FE389CE60E084E00E94C00B6AE876E050
:103EF00082E39EE00E948D0D61E080E00E94C00B95
:103F000066E976E082E39EE00E948D0DD9CF65EAF6
:103F100076E0C8010E94982C892B09F062C00E94AB
:103F2000F20B98E5892E92E0992EA12CB12C80E31A
:103F30000E941502019709F067C70E9498018C0141
:103F40009C01990F440B550B285C3109410951091B
:103F5000A4E1B0E00E949628A50194010E94772870
:103F6000790161E080E00E94C00B6FEA76E082E3B5
:103F70009EE00E948D0D61E080E00E94C00B64EC29
:103F800076E082E39EE00E948D0DB80182E39EE020
:103F90000E945E0C62E080E00E94C00B6EEC76E056
:103FA00082E39EE00E948D0D10E000E00E151F05DB
:103FB0008CF46FEF82E39EE00E94FD0B0F5F1F4FBA
:103FC0000D30110599F764EF71E080E090E00E94F8
:103FD000CD02ADCF62EC76E082E39EE00E948D0DD3
:103FE000EDCF66ED76E0C8010E94982C892B09F090
:103FF00096C00E94F20B60E080E00E94C00B69EE68
:1040000076E082E39EE00E948D0D61E082E00E94F6
:104010006C0260E08EE30E946C02B3E0EB2EF12CA8
:1040200013E2C12ED12C09EB402E02E0502E83E783
:10403000682E82E0782E80E30E941502019709F035
:10404000E3C660E082E00E943E02C7010197F1F7FB
:1040500061E082E00E943E02C6010197F1F760E054
:1040600082E00E943E02F2016491F3018491E82F04
:10407000F0E0EE0FFF1FEF55FE4F8591949100E4A5
:1040800012E42FE030E0462F0E94F712611571050F
:104090008105910529F06F5F7F4F8F4F9F4F9F7074
:1040A0000E945A2726E933E44BE05DE30E94B927DA
:1040B00020E030E040E05FE30E94B9274B015C0163
:1040C0006DEF76E089E89DE00E948D0D22E0B5015C
:1040D000A40189E89DE00E94A70C89E097E00E9476
:1040E000940C61E080E00E94C00B6DEF76E082E30B
:1040F0009EE00E948D0D21E0B501A40182E39EE0C7
:104100000E94A70C6DE077E082E39EE00E948D0D97
:1041100064EF71E080E090E00E94CD028CCF66E118
:1041200077E0C8010E94982C892B09F06DC00E948D
:10413000F20B60E080E00E94C00B6FE177E082E369
:104140009EE00E948D0D80E30E941502019709F008
:104150005BC60E949801BC01990F880B990B0E94C5
:104160005A2720E030E040EA50E40E94B92720E0DE
:1041700030EC4FE754E40E943F296B017C010E9420
:10418000F20B60E080E00E94C00B6FE277E082E318
:104190009EE00E948D0D22E0B701A60182E39EE021
:1041A0000E94A70C68E377E082E39EE00E948D0DF9
:1041B00061E080E00E94C00B6BE377E082E39EE069
:1041C0000E948D0DA70196016AE979E989E290E4E0
:1041D0000E94D2282CEE31E548E35EE30E943F299D
:1041E00020E030E040EE50E40E94D328AB01BC0157
:1041F00022E082E39EE00E94A70C68EE73E080E07C
:1042000090E00E94CD029FCF60E477E0C8010E9459
:10421000982C892B79F50E94F20B60E080E00E94D7
:10422000C00B69E477E082E39EE00E948D0D60E0C0
:104230008EE30E946C0280E30E941502019709F050
:10424000E3C58EE30E9415028C0162E080E00E94CB
:10425000C00B6EE577E0012B11F063E777E082E3B6
:104260009EE00E948D0D68EC70E080E090E00E947E
:10427000CD02E1CF68E877E0C8010E94982C892B35
:1042800009F06DC00E94F20B60E080E00E94C00B5C
:104290006BE977E082E39EE00E948D0D8824839491
:1042A000FCEF9F2EAA24AA94BA2C80E30E94150248
:1042B000019709F0A9C50E9498018C019C01990FF2
:1042C000440B550B2F5F334041095109A4E6B0E080
:1042D0000E949628A50194010E947728690160E058
:1042E00080E00E94C00B6AEA77E082E39EE00E94D1
:1042F0008D0D61E080E00E94C00B6EEC76E082E301
:104300009EE00E948D0DB60182E39EE00E945E0C4D
:1043100068EB77E082E39EE00E948D0D60EC77E031
:1043200089E89DE00E948D0DB80189E89DE00E941A
:104330005E0C62ED77E089E89DE00E948D0DB6018C
:1043400089E89DE00E945E0C80EE97E00E94940C4C
:1043500064EF71E080E090E00E94CD02A6CF63EEB2
:1043600077E0C8010E94982C892B09F049C00E946F
:10437000F20B60E080E00E94C00B6FEE77E082E31A
:104380009EE00E948D0D61E08EE30E946C0280E34E
:104390000E941502019709F037C562E080E00E9493
:1043A000C00B63E078E082E39EE00E948D0D61E047
:1043B0008EE30E943E0262E080E00E94C00B66E154
:1043C00078E082E39EE00E948D0D68EB7BE080E068
:1043D00090E00E94CD0260E08EE30E943E0262E027
:1043E00080E00E94C00B63E078E082E39EE00E94E0
:1043F0008D0D68EE73E080E090E00E94CD02C7CFA3
:1044000068E278E0C8010E94982C892B19F40E9478
:10441000411530CB6AE378E0C8010E94982C892BC3
:10442000C9F50E94F20B60E080E00E94C00B65E4D9
:1044300078E082E39EE00E948D0D60E08EE30E94B2
:104440006C0280E30E941502019709F0DDC48EE33F
:104450000E9415028C0162E080E00E94C00B62E5C0
:1044600078E082E39EE00E948D0D62E088E00E9489
:10447000C00B6AE678E0012B11F064E778E082E394
:104480009EE00E948D0D68EC70E080E090E00E945C
:10449000CD02D7CF6EE778E0C8010E94982C892B17
:1044A00009F081C00E94F20B44244394ECEF5E2E8D
:1044B00066246A94762C80E30E941502019709F025
:1044C000A3C460E082E00E946C020E9498015C013B
:1044D00082E00E9415028C0195010B2C000C440B0C
:1044E000550B2F5F334041095109A4E6B0E00E940B
:1044F0009628A30192010E947728690160E080E07C
:104500000E94C00B66ED77E082E39EE00E948D0D75
:10451000B60182E39EE00E945E0C68EB77E082E3E6
:104520009EE00E948D0D61E080E00E94C00B6AE871
:1045300078E082E39EE00E948D0D63E978E001154A
:10454000110511F061EA78E082E39EE00E948D0D92
:1045500060EC77E089E89DE00E948D0DB50189E867
:104560009DE00E945E0C64EB78E089E89DE00E948B
:104570008D0DB60189E89DE00E945E0C61EC78E04B
:1045800089E89DE00E948D0D83EF95E0012B11F4E9
:104590008DEE95E00E94940C64EF71E080E090E075
:1045A0000E94CD0288CF66ED78E0C8010E94982C69
:1045B000892B09F074C00E94F20B60E080E00E9439
:1045C000C00B65EE78E082E39EE00E948D0D60E016
:1045D00082E00E946C02712CC12CD12C760180E308
:1045E0000E941502019709F00FC462E080E00E946A
:1045F000C00B67EF78E082E39EE00E948D0D64E1DE
:1046000070E080E090E00E94CD0282E00E941502FE
:104610008C010E9400034B015C010130110509F57A
:104620007110DDCFDC01CB018C199D09AE09BF09EA
:104630008D329140A105B10590F262E080E00E94C8
:10464000C00B6BE079E082E39EE00E948D0D68EE86
:1046500073E080E090E00E94CD02762C7501640149
:10466000BECF012B09F0BBCF772009F4B8CF8C184F
:104670009D08AE08BF082DE2821621E09206A10433
:10468000B10408F4ACCF62E080E00E94C00B67EF99
:1046900078E082E39EE00E948D0D712CA0CF6FE147
:1046A00079E0C8010E94982C892B09F0C7C00E94AC
:1046B000F20B60E080E00E94C00B6DE279E082E3E3
:1046C0009EE00E948D0D61E082E00E946C0280E31A
:1046D0000E941502019709F097C361E082E00E94F1
:1046E0003E020EE110E062E080E00E94C00B6BE34E
:1046F00079E082E39EE00E948D0D62E081E10E94FC
:10470000C00B60EC76E082E39EE00E948D0D62E0DB
:1047100081E10E94C00BB801CE0143960E9413189C
:104720001A8219821C821B821E821D826B897C89DF
:104730006115710531F04F89588DCE0101960E94A7
:10474000E817CE0101960E94BB17DC0114964D912B
:104750005C9115976D917C9182E39EE00E948B03A2
:10476000CE0101960E948B17CE0143960E948B17B3
:1047700068EE73E080E090E00E94CD0201501109E4
:1047800009F0B1CF60E082E00E943E0202E010E05A
:1047900072E0E72EF12C62E080E00E94C00B6AE438
:1047A00079E082E39EE00E948D0D62E081E10E944B
:1047B000C00B60EC76E082E39EE00E948D0D62E02B
:1047C00081E10E94C00BB701CE0143960E941318ED
:1047D0001A8219821C821B821E821D826B897C892F
:1047E0006115710531F04F89588DCE0101960E94F7
:1047F000E817CE0101960E94BB17FC014481558148
:104800006081718182E39EE00E948B03CE0101965C
:104810000E948B17CE0143960E948B1768EE73E0BF
:1048200080E090E00E94CD02EE24E394F12C013070
:10483000110509F44CCF01E010E0ADCF67E579E058
:10484000C8010E94982C892BE1F50E94F20B80E3AD
:104850000E941502019709F0D7C260E080E00E9433
:10486000C00B61E679E082E39EE00E948D0D60E07E
:104870008EE30E946C028EE30E94150261E00197B4
:10488000B1F480E00E94C00B63E779E082E39EE030
:104890000E948D0D64EF71E080E090E00E94CD02F7
:1048A00064E170E080E090E00E94CD02D0CF80E033
:1048B0000E94C00B68E879E082E39EE00E948D0DC3
:1048C000EFCF6DE979E0C8010E94982C892B09F09F
:1048D000FFC00E94F20B60E08EE30E946C0288E051
:1048E000BE01655C7F4FDB01E82F1D92EA95E9F779
:1048F000E9EBF2E0DE01D396982F01900D929A95A4
:10490000E1F7E1ECF2E0DE019B96982F01900D9229
:104910009A95E1F7E9ECF2E0DE019396982F019089
:104920000D929A95E1F7E1EDF2E0DE015396982FB2
:1049300001900D929A95E1F7E9EDF2E0DE01119612
:1049400001900D928A95E1F780E00E942215BE0148
:104950006D5C7F4F81E00E942215BE01655D7F4F37
:1049600082E00E942215BE016D5D7F4F83E00E94B0
:104970002215BE016D5E7F4F84E00E942215BE01AC
:104980006F5F7F4F85E00E94221560E080E00E940B
:10499000C00B6BEA79E082E39EE00E948D0D55E04A
:1049A000652E712C80E30E941502019709F02CC23C
:1049B0000E9498016C019C01990F440B550B245FD8
:1049C000314041095109A6E4B0E00E9496282AEF3F
:1049D00030E040E050E00E94772889019A01025EB1
:1049E0001F4F2F4F3F4F0536110514F004E610E01E
:1049F00017FF02C010E000E09801012E000C440BEC
:104A0000550B2E51310941095109A4E6B0E00E942D
:104A1000962826E430E040E050E00E947728C90163
:104A2000B3010E94452A5B014C0162E080E00E94D4
:104A3000C00BF12CE12C65E0EA14FB0444F0EA140D
:104A4000FB0421F4682D181419040CF060E082E3D3
:104A50009EE00E94FD0BFFEFEF1AFF0A24E1E21631
:104A6000F10449F761E080E00E94C00B6EEC76E053
:104A700082E39EE00E948D0DB80182E39EE00E94D9
:104A80005E0C6DEB79E082E39EE00E948D0D64EC9C
:104A900079E089E89DE00E948D0DB60189E89DE0EE
:104AA0000E945E0C6FEC79E089E89DE00E948D0D1C
:104AB000B80189E89DE00E945E0C84ED99E00E94B7
:104AC000940C66E970E080E090E00E94CD026ACF2D
:104AD00068ED79E0C8010E94982C892B09F08BC001
:104AE0000E94F20B60E08EE30E946C0280E30E9461
:104AF0001502019709F088C108EE13E0C12CD12CF2
:104B000076010E949801BC01990F880B990B0E94B5
:104B10005A2720E030EC4FE754E40E943F2920E080
:104B200030E040EA50E40E94B92720E030E040E263
:104B300050E40E94D2289B01AC010E94B9279B013E
:104B4000AC01C701B6010E94D3286B017C01015062
:104B50001109B9F620E030E04AE754E40E943F2909
:104B60000E94EB296B017C010E94F20B60E080E067
:104B70000E94C00B6BEE79E082E39EE00E948D0DF7
:104B800061E080E00E94C00B23E0B701A60182E350
:104B90009EE00E94A70C68E377E082E39EE00E941B
:104BA0008D0D62E080E00E94C00B67EF79E082E348
:104BB0009EE00E948D0D63E080E00E94C00B24EA1D
:104BC00030E74DE35EE3C701B6010E943F29AB0128
:104BD000BC0123E082E39EE00E94A70C61E07AE042
:104BE00082E39EE00E948D0D68EE73E080E090E02D
:104BF0000E94CD027BCF64E07AE0C8010E94982C2D
:104C0000892B11F00C943A1D88E0E1EEF2E0DE0110
:104C1000539601900D928A95E1F7BE016D5E7F4F2C
:104C200080E00E9422153BE9A32EB12C88248394B6
:104C3000912C80E30E941502019709F0E5C01986C6
:104C40001A861B861C861D8661E08EE30E946C021C
:104C500060E08EE30E943E0264E170E080E090E05C
:104C60000E94CD0261E08EE30E943E02C5010197E1
:104C7000F1F760E08EE30E946C0201E117E28EE33F
:104C80000E941502892B09F051C001501109B9F792
:104C90000E94F20B60E080E00E94C00B67E17AE0C6
:104CA00082E39EE00E948D0D61E080E00E94C00BD7
:104CB00066ED77E082E39EE00E948D0D20E02E9667
:104CC0004CAD5DAD6EAD7FAD2E9782E39EE00E9450
:104CD000A70C60EE77E082E39EE00E948D0D62E01B
:104CE00080E00E94C00B64E27AE082E39EE00E94D2
:104CF0008D0D20E02A964CAD5DAD6EAD7FAD2A974F
:104D000082E39EE00E94A70C60E082E39EE00E94A6
:104D1000FD0B6BE275E082E39EE00E948D0D60ED7D
:104D200077E080E090E00E94CD0283CF01E117E2BE
:104D30008EE30E941502019721F401501109C1F779
:104D4000A7CF28E2E22EF12C17E000E091E1C92E76
:104D500097E2D92E8EE30E941502892B29F441E0B7
:104D6000C41AD108B9F794CF0E94A8022B013C01C4
:104D700081E1C82E87E2D82E8EE30E9415020197AA
:104D800029F481E0C81AD108B9F782CF0E94A8029D
:104D900064197509860997096932710581059105BC
:104DA00078F0E9E0F0E0EC0FFD1FE00FF11D8081ED
:104DB0009401012E01C0220F0A94EAF7822B80830E
:104DC000111120C00F5F17E091E0E91AF10809F016
:104DD000BDCF698570E090E080E00E9458272E9654
:104DE0006CAF7DAF8EAF9FAF2E976B8570E090E07C
:104DF00080E00E9458272A966CAF7DAF8EAF9FAFA0
:104E00002A9746CF1150E0CF0E94F20B60E080E07D
:104E10000E94C00B6DE275E082E39EE00E948D0D62
:104E200064EF71E080E090E00C945D1C63E080E052
:104E30000E94C00B6AED75E00C94931CBB274A30AE
:104E400031F4992322F4BDE2909581959F4F0C9403
:104E50002A27BB27FB015527AA27880F991FAA1FBE
:104E6000A41710F0A41B83955051B9F7A05DAA3385
:104E700008F0A95DA193009779F7B111B193119250
:104E8000CB010C944327DC01FC01672F7191772340
:104E9000E1F7329704C07C916D9370836291AE17F5
:104EA000BF07C8F308950E94952708F481E008958C
:104EB000E89409C097FB3EF49095809570956195B4
:104EC0007F4F8F4F9F4F9923A9F0F92F96E9BB276A
:104ED0009395F695879577956795B795F111F8CFE6
:104EE000FAF4BB0F11F460FF1BC06F5F7F4F8F4F51
:104EF0009F4F16C0882311F096E911C0772321F047
:104F00009EE8872F762F05C0662371F096E8862FDE
:104F100070E060E02AF09A95660F771F881FDAF735
:104F2000880F9695879597F90895990F0008550F62
:104F3000AA0BE0E8FEEF16161706E807F907C0F01F
:104F400012161306E407F50798F0621B730B840B27
:104F5000950B39F40A2661F0232B242B252B21F401
:104F600008950A2609F4A140A6958FEF811D811DA1
:104F700008950E94CC270C943D280E942F2838F0D9
:104F80000E94362820F0952311F00C9426280C94CA
:104F90002C2811240C9471280E944E2870F3959FA0
:104FA000C1F3950F50E0551F629FF001729FBB2720
:104FB000F00DB11D639FAA27F00DB11DAA1F649FBC
:104FC0006627B00DA11D661F829F2227B00DA11D6F
:104FD000621F739FB00DA11D621F839FA00D611DF5
:104FE000221F749F3327A00D611D231F849F600D16
:104FF000211D822F762F6A2F11249F5750409AF03F
:10500000F1F088234AF0EE0FFF1FBB1F661F771FCA
:10501000881F91505040A9F79E3F510580F00C9495
:1050200026280C9471285F3FE4F3983ED4F38695CC
:1050300077956795B795F795E7959F5FC1F7FE2B35
:10504000880F911D9695879597F9089597F99F6711
:1050500080E870E060E008959FEF80EC0895002400
:105060000A941616170618060906089500240A94CD
:1050700012161306140605060895092E0394000C53
:1050800011F4882352F0BB0F40F4BF2B11F460FFE2
:1050900004C06F5F7F4F8F4F9F4F089557FD90580B
:1050A000440F551F59F05F3F71F04795880F97FBEC
:1050B000991F61F09F3F79F08795089512161306A6
:1050C0001406551FF2CF4695F1DF08C016161706D5
:1050D0001806991FF1CF869571056105089408950A
:1050E000E894BB2766277727CB0197F90895052E0B
:1050F00097FB1EF400940E948E2857FD07D00E9453
:10510000A12807FC03D04EF40C948E2850954095AE
:10511000309521953F4F4F4F5F4F08959095809563
:10512000709561957F4F8F4F9F4F08950E94C328C0
:10513000A59F900DB49F900DA49F800D911D1124EB
:105140000895A1E21A2EAA1BBB1BFD010DC0AA1FC8
:10515000BB1FEE1FFF1FA217B307E407F50720F0E0
:10516000A21BB30BE40BF50B661F771F881F991F5B
:105170001A9469F760957095809590959B01AC01A4
:10518000BD01CF010895A29FB001B39FC001A39FAD
:10519000700D811D1124911DB29F700D811D112470
:1051A000911D08955058BB27AA270E94EA280C9405
:1051B0003D280E942F2838F00E94362820F039F42C
:1051C0009F3F19F426F40C942C280EF4E095E7FB8D
:1051D0000C942628E92F0E944E2858F3BA1762072C
:1051E00073078407950720F079F4A6F50C947028CE
:1051F0000EF4E0950B2EBA2FA02D0B01B9019001F2
:105200000C01CA01A0011124FF27591B99F0593F35
:1052100050F4503E68F11A16F040A22F232F342F7D
:105220004427585FF3CF469537952795A795F040CB
:105230005395C9F77EF41F16BA0B620B730B840BE0
:10524000BAF09150A1F0FF0FBB1F661F771F881F98
:10525000C2F70EC0BA0F621F731F841F48F48795F0
:1052600077956795B795F7959E3F08F0B0CF9395E2
:10527000880F08F09927EE0F9795879508950E945B
:1052800053290C943D280E94362858F00E942F285C
:1052900040F029F45F3F29F00C94262851110C941A
:1052A00071280C942C280E944E2868F39923B1F39E
:1052B000552391F3951B550BBB27AA27621773073C
:1052C000840738F09F5F5F4F220F331F441FAA1FD0
:1052D000A9F335D00E2E3AF0E0E832D0915050408C
:1052E000E695001CCAF72BD0FE2F29D0660F771F3A
:1052F000881FBB1F261737074807AB07B0E809F020
:10530000BB0B802DBF01FF2793585F4F3AF09E3FA4
:10531000510578F00C9426280C9471285F3FE4F333
:10532000983ED4F3869577956795B795F7959F5FE7
:10533000C9F7880F911D9695879597F90895E1E033
:10534000660F771F881FBB1F621773078407BA0792
:1053500020F0621B730B840BBA0BEE1F88F7E095ED
:1053600008950E94562888F09F5798F0B92F9927E2
:10537000B751B0F0E1F0660F771F881F991F1AF040
:10538000BA95C9F714C0B13091F00E947028B1E00D
:1053900008950C947028672F782F8827B85F39F00C
:1053A000B93FCCF3869577956795B395D9F73EF4D9
:1053B00090958095709561957F4F8F4F9F4F089581
:1053C0000E94952708F48FEF089519F416F40C94B1
:1053D0002C280C94302A0E945628B8F39923C9F33C
:1053E000B6F39F57550B87FF0E943E2A0024A0E684
:1053F00040EA900180585695979528F4805C660F96
:10540000771F881F20F026173707480730F4621BE4
:10541000730B840B202931294A2BA69517940794E6
:10542000202531254A2758F7660F771F881F20F05F
:1054300026173707480730F4620B730B840B200DD7
:10544000311D411DA09581F7B901842F9158880F16
:105450009695879508950E949527880B990B089536
:105460009F3F31F0915020F4879577956795B795D8
:10547000880F911D9695879597F908959150504002
:10548000660F771F881FD2F7089597FB072E16F433
:10549000009407D077FD09D00E94682A07FC05D048
:1054A0003EF4909581959F4F0895709561957F4F3B
:1054B0000895EE0FFF1F881F8BBF0790F691E02D18
:1054C00019940E94C328B7FF0895821B930B089577
:1054D000AA1BBB1B51E107C0AA1FBB1FA617B7071A
:1054E00010F0A61BB70B881F991F5A95A9F7809536
:1054F0009095BC01CD0108950F931F93CF93DF9337
:105500008230910510F482E090E0E091500EF0912D
:10551000510E30E020E0B0E0A0E0309799F4211582
:10552000310509F44AC0281B390B24303105D8F560
:105530008A819B816115710589F1FB0193838283C7
:10554000FE0111C040815181028113814817590722
:10555000E0F04817590799F4109761F012960C93F0
:10556000129713961C933296CF01DF91CF911F9122
:105570000F9108950093500E1093510EF4CF211502
:10558000310551F04217530738F0A901DB019A01A8
:10559000BD01DF01F801C1CFEF01F9CF9093510EAA
:1055A0008093500ECDCFFE01E20FF31F81939193B4
:1055B0002250310939832883D7CF20914E0E309164
:1055C0004F0E232B41F42091AD023091AE02309367
:1055D0004F0E20934E0E2091AB023091AC0221155C
:1055E000310541F42DB73EB74091AF025091B00262
:1055F000241B350BE0914E0EF0914F0EE217F3078E
:10560000A0F42E1B3F0B2817390778F0AC014E5F32
:105610005F4F2417350748F04E0F5F1F50934F0E12
:1056200040934E0E819391939FCFF0E0E0E09CCFAA
:10563000CF93DF930097E9F0FC0132971382128237
:10564000A091500EB091510EED0130E020E0109786
:10565000A1F420813181820F931F20914E0E309151
:105660004F0E2817390709F061C0F0934F0EE093F1
:105670004E0EDF91CF910895EA01CE17DF07E8F5CE
:105680004A815B819E0141155105B1F7E901FB8318
:10569000EA8349915991C40FD51FEC17FD0761F4B6
:1056A000808191810296840F951FE90199838883F7
:1056B000828193819B838A83F0E0E0E012968D9152
:1056C0009C9113970097B9F52D913C911197CD01BD
:1056D0000296820F931F20914E0E30914F0E281785
:1056E000390739F6309751F51092510E1092500E3D
:1056F000B0934F0EA0934E0EBCCFD383C283408194
:105700005181840F951FC817D90761F44E5F5F4F11
:1057100088819981480F591F518340838A819B81D9
:10572000938382832115310509F0B0CFF093510E98
:10573000E093500E9ECFFD01DC01C0CF1382128298
:10574000D7CF4F925F926F927F928F929F92AF923C
:10575000BF92CF92DF92EF92FF920F931F93CF935E
:10576000DF938C01009799F4CB01DF91CF911F91CA
:105770000F91FF90EF90DF90CF90BF90AF909F90F0
:105780008F907F906F905F904F900C947C2AFC01DB
:10579000E60FF71F9C0122503109E217F30708F4C6
:1057A000AEC0D901CD91DC911197C617D70720F172
:1057B000C530D10578F0CE0104978617970750F0D1
:1057C000C61BD70B2297C193D1936D937C93CF01C6
:1057D0000E94182BC801DF91CF911F910F91FF906C
:1057E000EF90DF90CF90BF90AF909F908F907F9081
:1057F0006F905F904F9008955B01AC1ABD0A4C0109
:105800008C0E9D1EA091500EB091510E512C412C2A
:10581000F12CE12C109731F580914E0E90914F0EA6
:105820008815990509F05CC04616570608F058C05F
:105830008091AB029091AC02009741F48DB79EB776
:105840004091AF025091B002841B950BE817F90705
:1058500008F055C0F0934F0EE0934E0EF90171839E
:105860006083B8CF8D919C91119712966C9012978E
:1058700013967C901397A815B90559F56C0142E071
:10588000C40ED11CCA14DB0420F1AC014A195B0917
:10589000DA011296159780F06282738251834083F9
:1058A000D9016D937C93E114F10471F0D701139643
:1058B000FC93EE9312978ECF22968C0F9D1FF901C9
:1058C00091838083F301EFCFF093510EE093500E5C
:1058D00081CF4816590608F42C017D01D3019ACFD7
:1058E000CB010E947C2A7C01009749F0AE01B801EF
:1058F0000E948F2CC8010E94182B87016BCF10E0EB
:1059000000E068CFFB01DC0104C08D91019080199B
:1059100021F441505040C8F7881B990B0895FB01B2
:10592000DC0102C001900D9241505040D8F708951B
:10593000FB01DC018D91019080190110D9F3990BC5
:105940000895FB01DC0101900D920020E1F708951C
:04595000F894FFCFF9
:105954002B0A000000003C0A000000004F0A00006F
:1059640000005F0A000000003E0600000000690617
:1059740000000000A50600000000D606000000009C
:105984001607000000004007000000006F0A000036
:105994000000E307000000002808000000003A08A7
:1059A400000000007E0800000000D608000000008F
:1059B4001F09000000005709000000009D090000B5
:1059C4000000D80900000000040A000000003306AB
:1059D400000000003306000000001906000000006B
:1059E400220600020400330600000000FF4D0C8A6A
:1059F4000203005B0C1802140001010000520E8027
:105A0400000000400014005400101010101010107A
:105A14001018181818181818181C1C1C1C1C1C1CEE
:105A24001C1E1E1E1E1E1E1E1E1F1F1F1F1F1F1F8D
:105A34001F0609090600000000020A020AD609D658
:105A4400092B052B050B060B067D0A7D0A7F0A7FB1
:105A54000AD60AD60A1D071D07810A810A830A830A
:105A64000A850A850A870A870A890A890A8B0A8BA2
:105A74000AF605F6058D0A8D0A8F0A8F0A4707472D
:105A840007FE05FE05E909E909910A910A39073972
:105A940007930A930A950A950A970A970A990A9905
:105AA4000A9B0A9B0AFC0BFC0B050C050C0E0C0E46
:105AB4000C170C170C200C200C290C290C9D0A9D8A
:105AC4000A9F0A9F0AA10AA10A0B06A30A020AABAB
:105AD4000A930AB40AFE05B90ABF0AC60AD10AD84B
