:100000000C9451010C9482010C9482010C94820195
:100010000C9482010C9482010C9482010C94820154
:100020000C9482010C9482010C9482010C94820144
:100030000C9482010C9482010C9482010C94820134
:100040000C9482010C94840D0C9482010C94820116
:100050000C9482010C9482010C9482010C94DA0CB1
:100060000C9482010C944E0D0C94240D0C9482017E
:100070000C9482010C9482010C9482010C948201F4
:100080000C9482010C9482010C9482010C948201E4
:100090000C9482010C9482010C9482010C94DD0D6D
:1000A0000C9482010C9482010C9482010C948201C4
:1000B0000C9482010C9482010C9482010C948201B4
:1000C0000C9482010C9482010C9482010C948201A4
:1000D0000C9482010C9482010C9482010C94820194
:1000E0000C9482010C94B7010C94E6010C94AC03BF
:1000F0000C945A030C94F2030C94C0010C94CE019E
:100100000C9492090C94A1090C94E5010C945B03E6
:100110000C94B3010C94FE0A0C94EA010C94E809C7
:100120000C94BB090C94AB010C9445070C94CA01C8
:100130000C94BA010C94DC010C9490040C94D20140
:100140000C94AF010C94D8010C94A5010C94E0011F
:100150000C942A090C94010F0C9498030C945C03E2
:100160000C9491090C94A8070C949C0C0C94B40961
:100170000C9489030C94C4010C94BA030C943F04AE
:10018000000020002300260029002C002F00320050
:100190000001000003010601090100000A0B020929
:1001A0000C0D0E0807030401000000000000000011
:1001B000000000000000000000000000000000003F
:1001C00000000000000012111000000000000000FC
:1001D000000000000000000000000000000000001F
:1001E00000002100240027002A002D0030003300E9
:1001F00001010000040107010A010000220025009E
:1002000028002B002E0031003400020100000501FF
:1002100008010B0105050505070508080808020285
:1002200002020A0A08080404040401010101010190
:1002300001010303030303030303040707070C0C73
:100240000C0C0C0C0C0C020202020606060606063A
:1002500006060B0B0B0B0B0B0B0B010210202008DF
:100260000810204010204080020102010804020111
:100270000102040810204080804020100804020180
:1002800080040201804020100804020108040201D9
:100290000102040810204080010204081020408060
:1002A000010F11241FBECFEFD1E2DEBFCDBF00E0B2
:1002B0000CBF17E0A0E0B2E0ECEEFAE200E00BBF0A
:1002C00002C007900D92A638B107D9F729E0A6E839
:1002D000B7E001C01D92AC34B207E1F711E0C1E50F
:1002E000D1E000E006C021970109802FFE010E94A5
:1002F0004D15C035D10780E00807A9F70E94530FBC
:100300000C9474150C9400008CBD9DBD0895815013
:10031000823108F05AC0E82FF0E08827ED56FE4FF2
:100320008F4F0C944D15B301B701A501AB01AF017F
:10033000E501BA01C001C401CA01CE01D201D80150
:10034000DC01E501E001E601EA01809180008F77A0
:10035000809380000895809180008F7DF9CF8091F7
:100360008000877FF5CF84B58F7784BD089584B5ED
:100370008F7DFBCF8091B0008F778093B000089580
:100380008091B0008F7DF9CF809190008F7780931E
:1003900090000895809190008F7DF9CF809190001A
:1003A000877FF5CF8091A0008F778093A00008957C
:1003B0008091A0008F7DF9CF8091A000877FF5CF3D
:1003C000809120018F7780932001089580912001F2
:1003D0008F7DF9CF80912001877FF5CFCF93DF9379
:1003E000282F30E0F901E656FE4F8491F901E65AD4
:1003F000FD4FD491F901EC5EFD4FC491CC23A1F0E7
:1004000081110E948701EC2FF0E0EE0FFF1FE058F2
:10041000FE4FA591B491EC91ED2381E090E009F4B9
:1004200080E0DF91CF91089580E090E0FACF1F93B4
:10043000CF93DF93282F30E0F901E656FE4F8491E9
:10044000F901E65AFD4FD491F901EC5EFD4FC491DC
:10045000CC23A9F0162F81110E948701EC2FF0E028
:10046000EE0FFF1FE650FE4FA591B4918FB7F894A1
:10047000EC91111108C0D095DE23DC938FBFDF9182
:10048000CF911F910895DE2BF8CFCF93DF9390E0AB
:10049000FC01E65AFD4F24918C5E9D4FFC01849136
:1004A0008823C9F090E0880F991FFC01E052FE4FAD
:1004B000A591B491FC01E650FE4FC591D491611114
:1004C0000DC09FB7F8948C91209582238C938881DE
:1004D000282328839FBFDF91CF910895623051F484
:1004E0009FB7F8943C91822F809583238C93E88169
:1004F0002E2BEFCF8FB7F894EC912E2B2C938FBF30
:10050000EACF3FB7F89480917C0890917D08A09144
:100510007E08B0917F0826B5A89B05C02F3F19F033
:100520000196A11DB11D3FBFBA2FA92F982F882773
:10053000BC01CD01620F711D811D911D42E0660F4E
:10054000771F881F991F4A95D1F708958F929F9220
:10055000AF92BF92CF92DF92EF92FF924B015C017C
:100560000E9481026B017C010E9481026C197D094D
:100570008E099F09683E734081059105A8F321E02B
:10058000821A9108A108B10888EEC80E83E0D81E2F
:10059000E11CF11C81149104A104B10429F7FF901E
:1005A000EF90DF90CF90BF90AF909F908F90089585
:1005B0002FB7F894609178087091790880917A0843
:1005C00090917B082FBF08958F929F92AF92BF9218
:1005D000CF92DF92EF92FF926B017C0149015A01A9
:1005E00060E079E08DE390E0A70196010E942B1571
:1005F00069017A0181E0C81AD108E108F1080E9476
:10060000D802860E971EA81EB91E8092830890926B
:100610008408A0928508B092860880918208811192
:1006200022C0E4E7F2E02491209382088EE292E077
:10063000FC013491E32FF0E0EE0FFF1FE650FE4F78
:10064000459154915093810840938008FC01849116
:10065000E82FF0E0EE0FFF1FE052FE4FA591B4919E
:10066000EC912E2B2C93D0928700C0928600809123
:10067000840090918500B0E0A0E0C816D906EA0693
:10068000FB0620F4D0928500C092840081E1809323
:10069000810080E18093800080916F008260809370
:1006A0006F00FF90EF90DF90CF90BF90AF909F9042
:1006B0008F90089508950895AF92BF92CF92DF92E0
:1006C000EF92FF920F931F93CF93DF936C017B0107
:1006D0008B01040F151FEB015E01AE18BF08C01798
:1006E000D10759F06991D601ED91FC910190F0810B
:1006F000E02DC6011995892B79F7C501DF91CF91BE
:100700001F910F91FF90EF90DF90CF90BF90AF902F
:100710000895FC01538D448D252F30E0842F90E007
:10072000821B930B541710F0CF96089501970895EC
:10073000FC01918D828D981761F0A28DAE0FBF2FB5
:10074000B11D5D968C91928D9F5F9F73928F90E00B
:1007500008958FEF9FEF0895FC01918D828D98177A
:1007600031F0828DE80FF11D858D90E008958FEFB7
:100770009FEF0895FC01918D228D892F90E0805C80
:100780009F4F821B91098F739927089587E898E0FE
:100790000E94BA0321E0892B09F420E0822F0895FA
:1007A000FC01A48DA80FB92FB11DA35ABF4F2C91E6
:1007B000848D90E001968F739927848FA689B789DD
:1007C0002C93A089B1898C91837080648C93938DD4
:1007D000848D981306C00288F389E02D80818F7D77
:1007E00080830895EF92FF920F931F93CF93DF932F
:1007F000EC0181E0888F9B8D8C8D98131AC0E8895D
:10080000F989808185FF15C09FB7F894EE89FF892B
:100810006083E889F98980818370806480839FBFC9
:1008200081E090E0DF91CF911F910F91FF90EF90C9
:100830000895F62E0B8D10E00F5F1F4F0F731127D9
:10084000E02E8C8D8E110CC00FB607FCFACFE88914
:10085000F989808185FFF5CFCE010E94D003F1CFC9
:10086000EB8DEC0FFD2FF11DE35AFF4FF0829FB788
:10087000F8940B8FEA89FB8980818062CFCFCF9378
:10088000DF93EC01888D8823B9F0AA89BB89E889B8
:10089000F9898C9185FD03C0808186FD0DC00FB65E
:1008A00007FCF7CF8C9185FFF2CF808185FFEDCFDC
:1008B000CE010E94D003E9CFDF91CF91089580E06F
:1008C00090E0892B29F00E94C60381110E9400004C
:1008D00080E090E0892B49F080E090E0892B29F0BE
:1008E0000E94000081110E94000080E090E0892BAE
:1008F00049F080E090E0892B29F00E9400008111EE
:100900000E94000080E090E0892B49F080E090E0B8
:10091000892B29F00E94000081110C940000089599
:10092000BC016E5F7F4FDC01ED91FC910190F08185
:10093000E02D40E0199591E0811190E0892F089514
:1009400008958EBD00000DB407FEFDCF8EB508954D
:10095000DF92EF92FF920F931F93CF93DF937C016F
:10096000062FD42E152F80E590E00E94840160E0D0
:10097000F70186850E94170282E10E94A104CD2D15
:10098000D12F0C0F1D2F111DC017D10721F08991F8
:100990000E94A104F9CF61E0F7018685DF91CF9134
:1009A0001F910F91FF90EF90DF900C9417021F930F
:1009B000CF93DF93EC01162F80E590E00E94840135
:1009C00060E08E850E941702812F80680E94A1043A
:1009D00080E00E94A104182F61E08E850E9417021A
:1009E000812FDF91CF911F9108950F931F93CF9384
:1009F000DF93EC01062F142F80E590E00E94840124
:100A000060E08E850E941702802F0E94A104812F32
:100A10000E94A10461E08E85DF91CF911F910F911B
:100A20000C941702CF92DF92EF92FF920F931F93D5
:100A3000CF93DF93EC016B01F42E890140E062E07B
:100A40000E94F50444E06AE0CE010E94F50440E80B
:100A500064E1CE010E94F504A6016F2DCE010E9433
:100A6000A80443E062E0CE010E94F5040E94D8028F
:100A70006B017C0129E5C20ED11CE11CF11C6AE06E
:100A8000CE010E94D70482FF1BC040E062E0CE018D
:100A90000E94F50464E4CE010E94D704F80180832B
:100AA00062E4CE010E94D704F801818380E0DF91E7
:100AB000CF911F910F91FF90EF90DF90CF9008950D
:100AC0000E94D8026C157D058E059F05C0F283E05B
:100AD000EECF2F923F924F925F926F927F928F92C2
:100AE0009F92AF92BF92CF92DF92EF92FF920F93BD
:100AF0001F93CF93DF931F921F92CDB7DEB73C01B8
:100B0000162F942E290180E0A114B10411F0F501F3
:100B10008081382C329490EF3922380E40E062E028
:100B2000C3010E94F5044FE768E0C3010E94F50489
:100B300040E864E1C3010E94F504A201602FC301F3
:100B40000E94A804432D6AE1C3010E94F504412FCD
:100B500062E0C3010E94F5041C3051F46AE1C30154
:100B60000E94D704482F40686AE1C3010E94F5043F
:100B70000E94D8021B012C01F4E22F0E311C411CF3
:100B8000511C68E0C3010E94D704982F992109F0F5
:100B9000B6C080FF16C083E00F900F90DF91CF9119
:100BA0001F910F91FF90EF90DF90CF90BF90AF908B
:100BB0009F908F907F906F905F904F903F902F907D
:100BC00008950E94D8026215730584059505C8F240
:100BD000E2CFE114F10409F467C0C114D10409F4AF
:100BE00063C064E1C3010E94D704982EF60180819E
:100BF000891508F47EC090829920C9F180E590E0C3
:100C00000E94840160E0F30186850E9417029A9495
:100C100082E90E94A104882099F00FEF10E001C042
:100C2000000F8A94EAF782E90E94A104902F909520
:100C3000F701208192238023982B9083882483942A
:100C40008701080D111D891440F482E90E94A10456
:100C5000F80181938F018394F6CF80E00E94A10474
:100C6000F801808361E0F30186850E94170268E144
:100C7000C3010E94D7048770A114B10411F0F501DB
:100C8000808353FC38C0E114F104B9F1C114D104DC
:100C9000A1F1988D992389F1F6014081413031F419
:100CA000843029F58FEF78CF80E0EBCF4230F8F039
:100CB00081111DC042509E012F5F3F4FB701C301FC
:100CC0000E941205811168CFF6019081E90EF11C96
:100CD000F701329720819981291309C0F1E0EF1AB9
:100CE000F108F70120819A81291709F455CF87E08F
:100CF00053CF84E051CF82E04FCF80E04DCF6CE006
:100D0000C3010E94D704582E837109F462CF81E099
:100D100043CF8F92AF92BF92CF92DF92EF92FF922A
:100D20000F93CF93DF93CDB7DEB72C970FB6F89420
:100D3000DEBF0FBECDBF20E6298321E02A83FE015E
:100D400033969C012A5F3F4FDC014D91CD014193C9
:100D5000A217B307C9F7E0913E09E150FF0BE45C2D
:100D6000F64FDE011996CE010D9621912D93A8170D
:100D7000B907D9F71F92812CB12CA12CD12CC12CF1
:100D8000F12CE12C0CE09E012F5F3F4F40E16EE023
:100D90008CE399E00E9469050F902C960FB6F894A9
:100DA000DEBF0FBECDBFDF91CF910F91FF90EF90CF
:100DB000DF90CF90BF90AF908F9008956F927F9209
:100DC0008F92AF92BF92CF92DF92EF92FF920F93EA
:100DD0001F93CF93DF9300D01F92CDB7DEB73C01B6
:100DE00080E589831A829E012D5F3F4F42E0BE015C
:100DF0006F5F7F4FC3010E941205182F811118C029
:100E00001F92812CB12CA12CD12CC12CF12CE12CC6
:100E100004E09E012F5F3F4F40E36CE0C3010E945E
:100E200069050F90833021F0182F811101C011E066
:100E3000812F0F900F900F900F90DF91CF911F9106
:100E40000F91FF90EF90DF90CF90BF90AF908F9079
:100E50007F906F9008950F931F93CF93DF938C0132
:100E6000D62FC42F0E94D704C0954C2F48236D2F36
:100E7000C801DF91CF911F910F910C94F50448E0C8
:100E800060E18CE399E00C942B076F927F928F9234
:100E9000AF92BF92CF92DF92EF92FF920F93CF93D8
:100EA000DF9300D01F921F92CDB7DEB73C0182E0E6
:100EB0008D8340E064E2C3010E94F50440E066E2F5
:100EC000C3010E94F50446E268E4C3010E94F504F0
:100ED00086E28B838D818230C8F140E86CE1C301EA
:100EE0000E942B0787E08C831F92812CCE010496F1
:100EF0005C0101966C0104977C0101E09E012D5F6D
:100F00003F4F40E36CE0C3010E946905982F0F90AA
:100F1000811119C08D818230C9F48C81811116C074
:100F200081E00F900F900F900F900F90DF91CF9175
:100F30000F91FF90EF90DF90CF90BF90AF908F9088
:100F40007F906F90089581E0923059F380E0E9CF6F
:100F50002F923F924F925F926F927F928F929F92C9
:100F6000AF92BF92CF92DF92EF92FF920F931F93B7
:100F7000CF93DF93CDB7DEB72E970FB6F894DEBFD1
:100F80000FBECDBF06E0413508F046C14E873B019C
:100F90002C0140E86CE10E942B0783E989832E85B0
:100FA000222329F081E0F3019081953008F480E05C
:100FB000992493941C869C85990F990F990F1E85EF
:100FC000191B17FD10E032E0882319F098E89B8385
:100FD00033E021E0912F977009F420E0912F95954F
:100FE00095959595290FD1F094E0811193E02917FB
:100FF00008F4922F2C85E22FF0E03196E60DF71DD4
:10100000232F4191A1E0B0E0AC0FBD1FA20FB11D95
:101010004C932F5F422F431B491798F38111185FA0
:1010200010320CF484C080E78A838B819C818927ED
:101030009D8189279E8189278F839E01285F3F4F4D
:1010400047E0BE016F5F7F4FC2010E941205082F6B
:101050008111E2C01A8693E09B871D87FE013796B7
:101060001F0109E08A84482D4295407F480D6AE1BE
:10107000C2010E94F5041F92CE010A965C01FE0196
:101080003B966F0171019E012F5F3F4F40E36CE083
:10109000C2010E946905082F0F90823009F065C0D7
:1010A0006CE1C2010E94D70485FDB6C08F7109F4BE
:1010B00080E2282F30E0412F110F550B42175307C4
:1010C0000CF09EC0182FE22FE595E595E595EF5FB2
:1010D000922F977081E009F480E0E80F81E090E0C2
:1010E0008C0F9D1F8E0F911DFC012150310927701F
:1010F000332781E090E002C0880F991F2A95E2F71C
:101100009C018081822B80838BCF85E98983FE853A
:10111000FF2331F081E0F3019081983008F04BCF4C
:1011200080E049CF87E98983F6E0FC87F9CF912FEA
:1011300097709A87812F8595859585958E5F282F45
:101140002295207F290F2A8301E0911101C000E040
:10115000080F22242394312C2C0E3D1E280E311C06
:10116000F9E0F81BFB871D877DCF811155C010E288
:101170009D8590320CF457CF8B81883809F042C09E
:1011800083E093E02C85E22FF0E03196E60DF71D29
:10119000980FA1E0B0E0AC0FBD1FA80FB11D2C91BE
:1011A00021938F5F8913F5CF8B858C87833009F06E
:1011B0004DC08A8581114AC09E012D5F3F4F41E09D
:1011C000B101C2010E941205082F811125C09B8127
:1011D000F101818198133CC09C818281981338C0B1
:1011E000808182FF12C09394F2E09F1609F48DCFA4
:1011F00023E0921609F496CF81E0981609F4CDCE3B
:1012000005E00AC082E094E0BDCFF3018387892D19
:10121000880F980E93949082802F2E960FB6F89494
:10122000DEBF0FBECDBFDF91CF911F910F91FF9019
:10123000EF90DF90CF90BF90AF909F908F907F9076
:101240006F905F904F903F902F90089501E0E4CF12
:1012500007E0E2CF08952091C707260F3327331FF9
:1012600021323105ECF420911008FC0190E080E07F
:10127000243069F082E00895A091C7072191AC0164
:101280004955584FA40FB52FB11D2C9301968617C1
:1012900098F38091C707680F6093C70780E00895AF
:1012A00081E008951092100881E080930F08109259
:1012B000EA0761E084E10E94170261E085E10E9493
:1012C0001702E9EBF0E080818E7F808380818D7F43
:1012D000808388E48093B80085E48093BC000895FF
:1012E000CF93DF9391E09093A6078823B9F0C09144
:1012F000B800D091BA008091BC008A7B8093BC007A
:1013000060E084E10E94170260E085E10E9417021C
:101310000E945209D093BA00C093B800DF91CF91D8
:1013200008950895E091400880913F08E81730F44F
:10133000F0E0EA57F84F808190E008958FEF9FEF3B
:1013400008959091400880913F082FEF3FEF981744
:1013500048F4E92FF0E0EA57F84F208130E09F5F32
:1013600090934008C901089580913F0890914008EA
:10137000891B990B0895CF92DF92EF92FF920F9302
:101380001F93CF93DF937C01CB018A012091160834
:10139000222389F0EB016B01C40ED51ECC15DD05AF
:1013A00069F06991D701ED91FC910190F081E02DF8
:1013B000C7011995F3CF642F0E942B09C801DF9153
:1013C000CF911F910F91FF90EF90DF90CF900895F4
:1013D000CF93DF931F92CDB7DEB7698320911608B4
:1013E0002223F9F020913D08203258F021E030E02E
:1013F000FC013383228390E080E00F90DF91CF9156
:10140000089580913E08E82FF0E0E95EF74F99815A
:1014100090838F5F80933E0880933D0881E090E049
:10142000ECCF61E0CE0101960E942B09F7CFCF925D
:10143000DF92EF92FF920F931F93CF93DF93FC0104
:10144000C48121E020931608C093370810923E080B
:1014500010923D088385682B84E299E00E94E80998
:10146000D0913D08D13208F092C00E9481026B01F8
:101470007C0180911008811165C082E08093100882
:1014800081E080930F088FEF80930E0810920D0873
:10149000D0930C08A7E1B8E0ECEEF7E080E0D813B9
:1014A00085C01092EB078091EB07CC0FC82BC0933F
:1014B000EB078091EA07813009F07CC01092EA07BF
:1014C0000E9481026B017C018091EB078093BB003D
:1014D0008091120890911308A0911408B0911508FA
:1014E000892B8A2B8B2B99F00E9481020091120884
:1014F0001091130820911408309115086C197D097A
:101500008E099F090617170728073907E0F1809110
:10151000BC0083FDD9CF85EC8093BC000E94810282
:101520006B017C0180911008823009F445C08091E4
:101530000E088F3F61F180910E08803241F1809159
:101540000E0825C08091120890911308A0911408EC
:10155000B0911508892B8A2B8B2B09F48ACF0E9416
:101560008102009112081091130820911408309103
:1015700015086C197D098E099F090617170728079A
:10158000390708F076CF809111080E9470091092F7
:101590003E0810923D0810921608DF91CF911F91DE
:1015A0000F91FF90EF90DF90CF9008959D919193D0
:1015B0008F5F75CF85EEB0CF8091120890911308A0
:1015C000A0911408B0911508892B8A2B8B2B09F454
:1015D000A9CF0E9481020091120810911308209156
:1015E0001408309115086C197D098E099F0906179A
:1015F00017072807390708F095CFC5CF90E080E09E
:10160000089526E930E040E050E060E971E080E0D4
:1016100090E00E94E40268EC70E080E090E00E94BC
:10162000A60226E930E040E050E060E971E080E0A9
:1016300090E00E94E40268EC70E080E090E00C949E
:10164000A60228EC30E040E050E068EE73E080E075
:1016500090E00E94E40268EC70E080E090E00C947E
:10166000A602CF92DF92EF92FF920F931F93CF9338
:10167000DF93EB010E94EE01892B51F080E0DF91B6
:10168000CF911F910F91FF90EF90DF90CF90089531
:101690000E94D802088119812A813B816B017C015B
:1016A000C01AD10AE20AF30A970186010D321140ED
:1016B0002105310518F3688379838A839B8381E050
:1016C000DECF009769F0FC0101900020E9F7319727
:1016D000AF01481B590BBC0180E399E00C945C03FB
:1016E00090E080E008958F92AF92BF92CF92DF9208
:1016F000EF92FF920F93CF93DF93CDB7DEB764974E
:101700000FB6F894DEBF0FBECDBF062FE62EF12C2C
:10171000A701BC01CE0101960E94621521E030E0D4
:101720002C0F3D1F2E0D3F1D402FBE016F5F7F4FC1
:101730008CE399E00E941205811123C082E18C8B19
:101740001B8A0E5F1F92812CCE0143965C0101968D
:101750006C0143977C019C0140E36CE08CE399E0D1
:101760000E9469050F9081110CC08C898130D1F4E1
:101770008B898430B9F481E099819A3009F480E052
:10178000819564960FB6F894DEBF0FBECDBFDF9192
:10179000CF910F91FF90EF90DF90CF90BF90AF90DF
:1017A0008F90089581E0EDCF0F931F93CF938C011D
:1017B000C62F0E94170A6C2F6460C8010E94170A86
:1017C0006C2F6B7FC8010E94170A83EC90E0019791
:1017D000F1F7CF911F910F9108950F931F93CF931E
:1017E000DF938C01D62FC42F607F642B0E94D40B13
:1017F00080E1D89FB00111246C2BC801DF91CF91FB
:101800001F910F910C94D40BCF93DF9300D000D095
:101810001F921F92CDB7DEB798E0E8E3F2E0DE0159
:10182000119601900D929A95E1F7909138099617CB
:1018300010F46FEF690F262F30E0220F331F41E0C5
:1018400050E04C0F5D1F240F351FF9016081680FB8
:10185000606840E080E399E028960FB6F894DEBF18
:101860000FBECDBFDF91CF910C94ED0B40E061E056
:1018700080E399E00E94ED0B8BE39FE10197F1F784
:101880000895DF92EF92FF920F931F93CF93DF9310
:101890000E94360C10E000E036E0D32E809149081B
:1018A00090914A08E0904F08F0905008880F991FD7
:1018B000FC01EF5AF74FC081D181CE19DF09C00F6B
:1018C000D11FD7FD2BC0855A974FFC018081918194
:1018D000C817D9071CF5602F80E00E94040C8EE722
:1018E00094E0E016F10611F48EE494E00E94610B9E
:1018F000E0914908F0914A08EE0FFF1FEB59F74FAE
:10190000DC9EC001DD9E900D11240190F081E02D40
:10191000E80FF91F808191810E94610B0F5F1F4FBB
:101920000430110509F0BACFDF91CF911F910F91CB
:10193000FF90EF90DF90089541E00E94ED0B81E071
:1019400090E0089585ED8093BC00809112089091FD
:101950001308A0911408B09115080796A11DB11D98
:1019600023E0B695A795979587952A95D1F720916D
:10197000BC0024FD03C01092100808954091120885
:10198000509113086091140870911508452B462B4F
:10199000472B69F30097A105B10541F02AE22A958A
:1019A000F1F700C00197A109B109E1CF80911108B9
:1019B0000C9470091F920F920FB60F9211242F935F
:1019C0003F938F939F93AF93BF93809178089091AB
:1019D0007908A0917A08B0917B083091770823E0CC
:1019E000230F2D3758F50196A11DB11D20937708BF
:1019F0008093780890937908A0937A08B0937B0835
:101A000080917C0890917D08A0917E08B0917F081C
:101A10000196A11DB11D80937C0890937D08A09331
:101A20007E08B0937F08BF91AF919F918F913F91B6
:101A30002F910F900FBE0F901F90189526E8230F3F
:101A40000296A11DB11DD2CF1F920F920FB60F9219
:101A500011240BB60F922F933F934F935F936F9385
:101A60007F938F939F93AF93BF93EF93FF9387E8F9
:101A700098E00E94D003FF91EF91BF91AF919F91A9
:101A80008F917F916F915F914F913F912F910F9027
:101A90000BBE0F900FBE0F901F9018951F920F92C4
:101AA0000FB60F9211240BB60F922F938F939F9323
:101AB000EF93FF93E0919708F09198088081E0916F
:101AC0009D08F0919E0882FD1DC090818091A00824
:101AD0008F5F8F732091A108821741F0E091A008D9
:101AE000F0E0E957F74F958F8093A008FF91EF91B1
:101AF0009F918F912F910F900BBE0F900FBE0F9063
:101B00001F9018958081F2CF1F920F920FB60F92FF
:101B100011240BB60F920F931F932F933F934F9364
:101B20005F936F937F938F939F93AF93BF93EF9345
:101B3000FF930E94D802009183081091840820919D
:101B40008508309186086017710782079307B8F0FF
:101B500080916F008D7F80936F0082E08093810081
:101B600081E080938000E0918008F091810890816D
:101B70008091820880958923808310928208E09169
:101B80008008F09181088081909182088927808364
:101B9000FF91EF91BF91AF919F918F917F916F9145
:101BA0005F914F913F912F911F910F910F900BBE1D
:101BB0000F900FBE0F901F9018951F920F920FB6A7
:101BC0000F9211240BB60F922F933F934F935F9375
:101BD0006F937F938F939F93AF93BF93EF93FF93F5
:101BE0008091B900887F803609F44DC008F040C06C
:101BF000883209F4A9C028F5803109F49DC0C8F4E1
:101C0000882309F4FBC0883009F496C0FF91EF9156
:101C1000BF91AF919F918F917F916F915F914F9104
:101C20003F912F910F900BBE0F900FBE0F901F9002
:101C30001895883109F488C0803241F780930E08E6
:101C400014C0803409F49DC040F48033B9F3883364
:101C5000E9F680930E0885ECB0C0803509F485C0A4
:101C6000883509F496C0883489F60E94A20CCECF3C
:101C7000883909F48CC038F5883729F050F4883653
:101C800011F0803719F683E0809310081092E9076D
:101C900057C0883809F47BC0803919F0803809F0C2
:101CA000B5CF8091E907803208F071C0E091E90773
:101CB00081E08E0F8093E9078091BB00F0E0E7534D
:101CC000F84F80833DC0803B39F0E0F4803A09F45E
:101CD00079C0883A09F09ACF84E080931008109276
:101CE000C8071092C707E0913B08F0913C0819958E
:101CF0008091C70781110FC081E08093C7071092C0
:101D0000A70709C0803C09F4A6CF883C09F4A3CFFB
:101D1000883B09F07BCFE091C80781E08E0F80936C
:101D2000C807F0E0E955F84F80818093BB0090919F
:101D3000C8078091C70729C08091EB078093BB003B
:101D400085EC8093BC0062CF90910D0880910C08C7
:101D5000981758F5E0910D0881E08E0F80930D08DB
:101D6000F0E0E451F84F8081E9CFE0910D0881E087
:101D70008E0F80930D088091BB00F0E0E451F84F86
:101D8000808390910D0880910C089817C8F285E81F
:101D9000D8CFE0910D0881E08E0F80930D088091DF
:101DA000BB00F0E0E451F84F808380910F0881116F
:101DB0005CCF81E08093EA0784EA8093BC001092B4
:101DC000100824CF85EC8093BC00109210088091FD
:101DD000E907803230F4E091E907F0E0E753F84F8B
:101DE00010826091E90770E0E0913908F0913A08BB
:101DF00089EC97E019951092E90708CF10920E0828
:101E000034CFE7E8F8E01382128288EE93E0A0E096
:101E1000B0E084839583A683B78328E134E03183DF
:101E2000208325EC30E03587248724EC30E03787A9
:101E3000268720EC30E0318B208B21EC30E0338B97
:101E4000228B22EC30E0358B248B26EC30E0378B74
:101E5000268B118E128E138E148EE4E2F9E013821B
:101E6000128284839583A683B7838AE294E0918368
:101E70008083ECE3F9E088E494E0918380838AE254
:101E800086878FEF8787E0E3F9E0138212828CE385
:101E900094E09183808387E2848384E1818784E076
:101EA000828713860895CF93DF93CDB7DEB7AD97C2
:101EB0000FB6F894DEBF0FBECDBF789484B58260B4
:101EC00084BD84B5816084BD85B5826085BD85B5DE
:101ED000816085BD80916E00816080936E0010925C
:101EE00081008091810082608093810080918100D7
:101EF0008160809381008091800081608093800068
:101F00008091B10084608093B1008091B0008160C5
:101F10008093B000809191008260809391008091C5
:101F20009100816080939100809190008160809306
:101F300090008091A10082608093A1008091A10017
:101F400081608093A1008091A00081608093A000B7
:101F50008091210182608093210180912101816023
:101F600080932101809120018160809320018091E4
:101F70007A00846080937A0080917A0082608093F6
:101F80007A0080917A00816080937A0080917A0053
:101F9000806880937A001092C100E0919708F091D8
:101FA000980882E08083E0919308F0919408108271
:101FB000E0919508F091960880E1808310929F0847
:101FC000E0919B08F0919C0886E08083E09199085D
:101FD000F0919A08808180618083E0919908F09166
:101FE0009A08808188608083E0919908F0919A082E
:101FF000808180688083E0919908F0919A088081BF
:102000008F7D80831FB7F89480913808811127C095
:10201000E9E4F2E08491EFE8F2E09491E82FF0E057
:10202000EE0FFF1FE052FE4FA591B491EC91E92312
:1020300021F461E085E30E94170261E085E30E94DC
:1020400045028CB580618CBD8CB580648CBD61E02F
:1020500084E30E94450261E083E30E94450280918F
:1020600038088F5F809338081FBF61E080914A096C
:102070000E94450261E080914A090E941702809106
:102080004B098F3F09F475C160E00E9445028091C1
:102090004B090E94EE01892B09F06BC161E0809130
:1020A0004B090E94450260E080914B090E94170293
:1020B00083E090E00197F1F761E080914B090E9485
:1020C000170262E370E080E090E00E94A60240E028
:1020D00064E28CE399E00E94F50440E066E28CE360
:1020E00099E00E94F50446E268E48CE399E00E94DE
:1020F000F50440E864E58CE399E00E94F50449EAC0
:1021000066E58CE399E00E94F50443E068E58CE322
:1021100099E00E94F50448EE6AE58CE399E00E949C
:10212000F50440E46AE28CE399E00E94F5044DE393
:1021300062E28CE399E00E94F50468E28CE399E0A6
:102140000E94D704982F9370933039F0482F436042
:1021500068E28CE399E00E94F50461E08AE10E9464
:1021600045021092400810923F0810923E081092CB
:102170003D080E9452098AE593E090933C088093C1
:102180003B088BE593E090933A08809339081092CE
:10219000350980913A09823018F098E0909335091A
:1021A0008093380962E370E080E090E00E94A6022C
:1021B00060913B0980E399E00E94170A68EE73E0A2
:1021C00080E090E00E94A60260E380E399E00E9434
:1021D000D40B0BE416E4C8010197F1F760E380E348
:1021E00099E00E94D40BC8010197F1F760E380E306
:1021F00099E00E94D40B83E592E00197F1F760E249
:1022000080E399E00E94D40B60913509606240E060
:1022100080E399E00E94ED0B84E08093360940E072
:102220006CE080E399E00E94ED0B0E94360C82E0A6
:102230008093370940E066E080E399E00E94ED0B6F
:1022400040E062E080E399E00E94ED0B8BE39FE1C8
:102250000197F1F788E080933B0960E080E399E023
:102260000E94170A62E08FE20E94450262E086E265
:102270000E94450262E081E30E94450262E080E341
:102280000E9445020E94360C60E086E00E94040C29
:1022900081E594E00E94610B61E083E00E94040C00
:1022A00089E594E00E94610B63E084E00E94040CE5
:1022B00087E694E00E94610BCE0143969BA78AA714
:1022C00080913702882309F46BC00E94D8020091E4
:1022D00073081091740820917508309176086B018D
:1022E0007C01C01AD10AE20AF30A97018601053F70
:1022F000114021053105D0F0609373087093740884
:1023000080937508909376081091360281E0182723
:102310001093360263E084E00E94040C87E694E0A8
:10232000111102C083E794E00E94610B6FE678E030
:1023300081E390E00E94310B8823C1F010923702B4
:102340008AE292E0909366088093650882E090E0CC
:1023500090935C0880935B08109252081092510889
:102360001092500810924F080E94410C0E945F0486
:10237000A7CF4FE062E08CE399E00E94F50413E000
:1023800062E370E080E090E00E94A60262E08CE3ED
:1023900099E00E94D70484FF9ACE115089F797CE16
:1023A0006BE478E08FE290E00E94310B8823F9F033
:1023B000E0914908F0914A08EE0FFF1FEF5AF74FDE
:1023C000808191811816190684F401979183808386
:1023D00080914F0890915008181619060CF097C07C
:1023E00001979093500880934F080E94410C65E438
:1023F00078E086E290E00E94310B882361F18091C1
:10240000490890914A08880F991FFC01EF5AF74F2D
:1024100040815181855A974FDC012D913C9121508B
:10242000310942175307ACF44F5F5F4F518340832C
:1024300080914F0890915008833091050CF06AC04C
:10244000821793070CF066C0019690935008809312
:102450004F080E94410C6FE678E081E390E00E9413
:10246000310B8823E9F18091490890914A089C0139
:10247000220F331FF901EB59F74F2F5A374FD9016C
:102480004D915C9166E0649F9001659F300D112431
:102490000190F081E02DE20FF31F2281338121159D
:1024A0003105D9F144815581019690934A08809372
:1024B0004908880F991FFC01EB59F74F318320839E
:1024C000FC01E55AF74F518340838F5A974FFC0127
:1024D000118210821092500810924F080E94410CF5
:1024E00061E478E080E390E00E94310B882309F4F6
:1024F0003DCF8091490890914A08181619060CF0B2
:1025000035CF019790934A088093490829CF0E94BC
:10251000410C6BCF0E94410C9CCF0081118161E87E
:1025200074E0C8010E946B153C01892B09F04AC177
:10253000F4E46F1671040CF02EC1F301EE0FFF1FCF
:10254000E60DF71DE05CFD4FC080CCA60181128135
:102550000E94360C60E080E00E94040C8AE894E05F
:102560000E94610B61E080E00E94040CC8010E949F
:10257000610B212C312C210199249A9486E20E942E
:10258000EE01892B89F423E4621671041CF0E2E465
:102590006E2E712C4FEF641A740A6CE271E080E0C9
:1025A00090E00E94A602C4CF8FE20E94EE01892B28
:1025B00051F4161417041CF066246394712C81E006
:1025C000681A7108EACF80E30E94EE01892B81F539
:1025D000211431044104510489F40E94D8021B01E2
:1025E0002C018CE399E00E94450781112FC064E61D
:1025F00070E080E090E00E94A602C0CF0E94D80266
:102600006219730984099509613D77408105910537
:1026100040F30E94360C61E080E00E94040C8DE9DA
:1026200094E00E94610B6CED75E080E090E0C1C029
:102630002114310441045104A1F20E94360C61E0DE
:1026400080E00E94040C8FEA94E0EBCF8CE399E0E9
:102650000E949004182F882351F2EAA5FBA560E19F
:10266000C62E1192CA94E9F7DCA4DB8A9BA29CA235
:102670009DA29EA29FA298A6CE0183960E94890643
:102680008823A9F063E080E00E94040C82EC94E0CF
:102690000E94610B0E94010B8CE399E00E94DE0610
:1026A0000E943F076CED75E080E090E0A4CF50EA17
:1026B000E52EE982FF24F394FA8262E0CE010196CE
:1026C0000E94730B8111B9C160E1CE0143960E9453
:1026D000730B8111B2C122E129A780E38983FA82B9
:1026E0009E012D5F3F4F42E0BE016F5F7F4F8CE345
:1026F00099E00E941205882339F063E080E00E948F
:10270000040C86ED94E0C4CF41E04F93812CB12CB2
:10271000A12CCE0189966C01DE0111967D0104E0A9
:102720009D0140E36CE08CE399E00E9469050F9005
:102730008111E3CF40E150E0B701CE0143960E9402
:10274000551563E0892BE1F480E00E94040C8AEEC9
:1027500094E00E94610B0E94210BBFEF6B1A7B0A71
:102760008CE399E00E94DE060E943F0760ED77E06F
:1027700080E090E00E94A602112309F4FFCED8CE9B
:1027800080E00E94040C8EEF94E00E94610B0E9496
:10279000010B10E0E5CF0E94360C61E080E00E9462
:1027A000040C82E195E00E94610B60ED77E080E02F
:1027B00090E00E94A6020E94360C60E080E00E9439
:1027C000040C8CCE64E275E0C8010E946B153C01DC
:1027D000892B89F7E2E46E167104ECF6F301EE0F33
:1027E000FF1FEE0FFF1FE45FFC4FC080D180DDA60E
:1027F000CCA6028113810E94360C60E080E00E942A
:10280000040C8AE894E00E94610B61E080E00E9481
:10281000040CC8010E94610B212C312C21011FEFF7
:1028200086E20E94EE01892B89F421E4621671048C
:102830001CF030E4632E712C4FEF641A740A6CE2C2
:1028400071E080E090E00E94A602C4CF8FE20E9477
:10285000EE01892B51F4161417041CF066246394BE
:10286000712C81E0681A7108EACF80E30E94EE01C2
:10287000892B11F5211431044104510489F40E947B
:10288000D8021B012C018CE399E00E9445078111BD
:1028900019C064E670E080E090E00E94A602C0CF1C
:1028A0000E94D8026219730984099509613D774035
:1028B0008105910540F3ADCE21143104410451044A
:1028C00011F3BBCE8CE399E00E949004982E8823EC
:1028D00001F3EAA5FBA590E1C92E1192CA94E9F78C
:1028E000ACA5BDA50D900020E9F7AD0141505109FF
:1028F000ECA5FDA54E1B5F0B4131510514F040E1E5
:1029000050E06CA57DA5CE0143960E9462151BA3E5
:102910001CA31DA31EA31FA318A7CE0183960E946C
:1029200089068823A9F063E080E00E94040C82EC11
:1029300094E00E94610B0E94010B8CE399E00E94DD
:10294000DE060E943F076CED75E080E090E0A5CFC9
:10295000F0EAF983CC24C394CA8262E0CE010196E6
:102960000E94730B811170C060E1CE0143960E94FA
:10297000730B811169C082E1D82ED9A680E38983C7
:10298000CA829E012D5F3F4F42E0BE016F5F7F4FC5
:102990008CE399E00E941205882339F063E080E01F
:1029A0000E94040C86ED94E0C4CFEE24E394EF92F1
:1029B000812CB12CA12CCE0189966C01DE011196DF
:1029C0007D0104E09D0140E36CE08CE399E00E940E
:1029D00069050F908111E2CF40E150E0B701CE01CF
:1029E00043960E94551563E0892BE1F480E00E9434
:1029F000040C8AEE94E00E94610B0E94210BBFEF51
:102A00006B1A7B0A8CE399E00E94DE060E943F0766
:102A100060ED77E080E090E00E94A602992009F442
:102A2000FFCED8CE80E00E94040C8EEF94E00E948E
:102A3000610B0E94010B912CE5CF63E080E00E94C6
:102A4000040C8FE295E024CE63E080E00E94040C49
:102A50008FE295E06ECFA1E21A2EAA1BBB1BFD01EF
:102A60000DC0AA1FBB1FEE1FFF1FA217B307E4076D
:102A7000F50720F0A21BB30BE40BF50B661F771FC5
:102A8000881F991F1A9469F76095709580959095A5
:102A90009B01AC01BD01CF010895EE0FFF1F881F00
:102AA0008BBF0790F691E02D1994FB01DC0104C067
:102AB0008D910190801921F441505040C8F7881B36
:102AC000990B0895FB01DC0102C001900D92415069
:102AD0005040D8F70895FB01DC018D9101908019D9
:0C2AE0000110D9F3990B0895F894FFCF72
:102AEC0042050000000053050000000066050000D0
:102AFC00000076050000000081040000000086053F
:102B0C000002040024050000000059041802030010
:102B1C007707000000000101000040001400540081
:102B2C000297050297050297050297050297050281
:102B3C0097050297050297050297050297050297DC
:102B4C000502970506A40506A40506A40503AF0512
:102B5C0003AF0503AF0503AF0503AF0504BA0504C6
:102B6C00BA0504BA0504BA0504BA0505C80505C8B2
:102B7C000505C80505C80505C80507DA0507DA0502
:102B8C0007DA0507DA0507DA0508E20508E20508A1
:102B9C00E20508E20508E20509EA0509EA0509EA81
:102BAC000509EA0509EA050AF2050AF2050AF20521
:102BBC000BFD050BFD050BFD050BFD0513080613A1
:102BCC0008060C11060D1A060E23060F2C061035DE
:102BDC0006113E0612470612470612470612470612
:102BEC00124706124706015206FE5F066906690681
:102BFC006B066B066D066D06650465046F066F0645
:102C0C0071067106D206D206730673067506750632
:102C1C0077067706790679067B067B067D067D06A8
:102C2C007F067F0681068106830683068506850658
:102C3C008706870657045704890689068B068B0678
:102C4C008D068D068F068F069106910693069306C8
:102C5C00950695069706970618061806210621066E
:102C6C002A062A06330633063C063C06450645066C
:102C7C00990699069B069B069D069D0665049F0674
:102C8C006906A7068F06B0065704B506BB06C20632
:102C9C00CD06D406E006E706EF06F6068506FF0627
:102CAC008F0602076F0605078706080789060B07BC
:102CBC0093060F078B0612071806150721061B072C
:102CCC002A0621076F06280785062D078706350774
:102CDC0089063E078F06440793064B077D0651076E
:102CEC00690656077F065C07870661078906670732
:102CFC0057046E0700000000F2035C0389033F04D5
:102D0C00BA039803AC0300000000E809BB09FE0AF3
:102D1C009109B409A1099209000000009C0C5C0304
:102D2C00FE0A2A0900000000A807450790043E206F
:102D3C000043495454495553004772617661646F9E
:102D4C0072205246494400507265737320456E746C
:102D5C0065720020202020202020202020202020F0
:102D6C0000526F626F20526569004170726F786912
:102D7C006D65206F2063617274616F3A004D656EF2
:102D8C0075207072696E636970616C2E2E2E00470F
:102D9C007261766163616F2063616E63656C6164FF
:102DAC006100417574656E7469636163616F20665F
:102DBC00616C686F75004572726F206C6569747513
:102DCC00726120636865636B200047726176616491
:102DDC006F20636F6D207375636573736F00566539
:102DEC0072696669636163616F2066616C686F7597
:102DFC00200020546F646F73206772617661646F7A
:102E0C00732120004564756361204E617665004630
:102E1C00616C6861206E6120677261766163616FBD
:102E2C00200046697369636120286C6172616E6A67
:102E3C006129004D6174656D617469636120287648
:102E4C0065726D2E29005175696D69636120287654
:102E5C0065726465290042696F6C6F67696120282F
:102E6C00617A756C2900436F6C65746F72206465B0
:102E7C00204461646F73004D6F76657220667265D5
:102E8C006E74650047697261722074726173004DD3
:102E9C006F7665722074726173004769726172207B
:102EAC0064697265697461004573717565726461FA
:102EBC00206573717565726461004163616F2032C6
:102ECC0078004163616F203378004163616F203477
:102EDC0078003320536567756E646F73003520532B
:102EEC006567756E646F7300536F6D206C6F6F70D8
:102EFC00004D75736963612031004D7573696361B1
:102F0C002032004D75736963612033004D75736910
:102F1C0063612034004D75736963612035004D7514
:102F2C0073696361203600536F6D20616365727441
:102F3C006F00436172746120496E6963696F00436D
:102F4C00617274612066696D004100420043004566
:102F5C00004600480049004A004B004C004D004E12
:102F6C00004F0050005100520054005500560057BD
:102F7C0000580059005A003000370038003900441E
:102F8C00697265697461004573717565726461007D
:102F9C0043696D6100426169786F0044474447445E
:102FAC004700446972656974612033780041474178
:102FBC004741470045737175657264612033780031
:102FCC005747574757470043696D61203378005383
:102FDC00475347534700426169786F203378004468
:102FEC006F005265004D6900466100536F6C004CD8
:102FFC0061005369005069616E6F004861727061C5
:10300C0000466C6175746100417A756C00416D61AC
:10301C0072656C6F005665726D656C686F005665F5
:10302C00726465004D6172726F6D0043696E7A61F6
:10303C00004D65646F0046656C697A004E6F6A6F6F
:10304C00005261697661005472697374650053753E
:10305C007270726573610054657374652053656E8C
:06306C00736F7265730032
:00000001FF
